:100000000C945B000C9483000C9483000C9483008C
:100010000C9483000C9483000C9483000C94830054
:100020000C9483000C9483000C9483000C94830044
:100030000C9483000C9483000C9483000C94830034
:100040000C94910D0C9483000C9455130C949813FC
:100050000C9483000C9483000C9483000C94830014
:100060000C946B190C94830000000007000201003F
:100070000003040600000000000000000102040864
:100080001020408001020408102001020408102002
:10009000040404040404040402020202020203032E
:1000A0000303030300000000250028002B00EF0CD1
:1000B0005B148A18900D11241FBECFEFD8E0DEBF6D
:1000C000CDBF13E0A0E0B1E0ECEAFBE302C0059095
:1000D0000D92A63DB107D9F726E0A6EDB3E001C029
:1000E0001D92A93EB207E1F710E0CAE5D0E004C0D6
:1000F0002197FE010E94B41DC735D107C9F70E94A0
:10010000AC120C94F11A0C9400000895DC01FB0170
:1001100012968C911297808313968C9113978183FA
:1001200014968C911497828315968C9115978383DE
:1001300016968C911697848317968C9117978583C2
:1001400018968C911897868319968C91878388E0EE
:1001500090E00895FC01DB014C9150E060E070E01C
:10016000428353836483758311968C911197582B26
:10017000428353836483758312968C911297682B04
:10018000428353836483758313968C911397782BE2
:10019000428353836483758314964C91149750E083
:1001A00060E070E0468357836087718715968C9175
:1001B0001597582B468357836087718716968C91C5
:1001C0001697682B468357836087718717968C91A3
:1001D000782B468357836087718788E090E0089585
:1001E00086E091E0089584E191E0089585E391E04F
:1001F00008958EE491E008958FE691E0089582E8F5
:1002000091E0089583E393E0089583EA91E00895EF
:10021000DC01FB0112963C91129713962C911397D7
:1002200014969C91149715968C9115973083218381
:100230009283838316963C91169717962C91179765
:1002400018969C91189719968C9119973483258349
:10025000968387831A963C911A971B962C911B972D
:100260001C969C911C971D968C91308721879287B4
:1002700083878CE090E00895DC01FB01818142815D
:1002800050E060E070E0BA0155274427582B808188
:10029000482B8381782B12964D935D936D937C93BD
:1002A00015978581468150E060E070E0BA015527DE
:1002B0004427582B8481482B8781782B16964D93A1
:1002C0005D936D937C9319978185428550E060E042
:1002D00070E0BA0155274427582B8085482B838529
:1002E000782B1A964D935D936D937C931D978CE0BC
:1002F00090E0089584EC91E008958AED91E00895EE
:10030000FC01E25BFE4F80810895AF92BF92CF92D5
:10031000DF92EF92FF920F931F93CF93DF9300D062
:1003200000D01F92CDB7DEB78C016B01643671052A
:100330003CF0FC01E25BFE4F8081882309F476C02B
:10034000DA01ED91FC910190F081E02DB8016D573B
:100350007F4FCA0109957801BCE7EB0EF11C2FEF26
:10036000F70120832EEF31962083319680833196DA
:1003700090833196292F280F209520833196C082B3
:10038000D801AE57BF4FDC9245E050E020E030E0AE
:10039000BC016A5F7F4F6417750734F0A1912A0F83
:1003A000311D4F5F5F4FF7CF6C01F8E0CF0ED11CCE
:1003B000800F911FFC01ED57FF4F2095208325E60C
:1003C000C216D104CCF45701C5018E199F098C15B2
:1003D0009D0584F4D80112968D919C911397F50197
:1003E00061915F01DC01ED91FC910190F081E02DC4
:1003F0000995EACFC6011CC08BE693E09A838983F6
:1004000083E08B838BEF91E09D838C83D801ED910A
:10041000FC910190F081E02DAE014F5F5F4F67E0EE
:1004200070E0C80109958FEF9FEF02C080E090E077
:100430000F900F900F900F900F90DF91CF911F9121
:100440000F91FF90EF90DF90CF90BF90AF90089505
:10045000CF93DF93CDB7DEB7A8970FB6F894DEBF82
:100460000FBECDBFBE016F5F7F4F0E94971464E344
:1004700072E08BE795E00E94DD1069E572E08BE7A2
:1004800095E00E94C010BE016F5F7F4F8BE795E043
:100490000E94DD1068E672E08BE795E00E94C010D4
:1004A0004D855E856F8578892AE030E08BE795E0A1
:1004B0000E948F1167E772E08BE795E00E94C01001
:1004C00049895A896B897C892AE030E08BE795E07D
:1004D0000E948F1166E872E08BE795E00E94C010E1
:1004E000498D5A8D6B8D7C8D22E030E08BE795E055
:1004F0000E94AA1265E972E08BE795E00E94DD1088
:100500006AE972E08BE795E00E94C0104D8D5E8D28
:100510006F8D78A122E030E08BE795E00E94AA126F
:1005200065E972E08BE795E00E94DD1069EA72E010
:100530008BE795E00E94C01049A15AA16BA17CA154
:1005400022E030E08BE795E00E94AA1265E972E0B4
:100550008BE795E00E94DD1064E372E08BE795E0A5
:100560000E94DD106CE073E08BE795E00E94DD10E7
:1005700064EF71E080E090E00E940C0EA8960FB648
:10058000F894DEBF0FBECDBFDF91CF910895CF931A
:10059000DF9300D01F92CDB7DEB719821A821B827B
:1005A0009E012F5F3F4FAE014E5F5F4FBE016D5FFB
:1005B0007F4F0E94E1156CE073E08BE795E00E94AD
:1005C000DD1068EB72E08BE795E00E94C01040E11F
:1005D00050E06B818BE795E00E94AE116AEC72E00F
:1005E0008BE795E00E94C01040E150E06A818BE704
:1005F00095E00E94AE116CED72E08BE795E00E94F1
:10060000C01040E150E069818BE795E00E94AE1197
:100610006CE073E08BE795E00E94DD1064EF71E021
:1006200080E090E00E940C0E0F900F900F90DF91F1
:10063000CF9108950F931F93CF93DF93CDB7DEB77C
:100640002A970FB6F894DEBF0FBECDBF8C0128E20B
:1006500047E350E060E070E0CE0101960E94DE14B6
:100660008B81F80182838C8183838D819E81AF8110
:10067000B88584839583A683B78389859A85918776
:1006800080876CE070E0C8010E947315811107C07B
:100690006EEE72E08BE795E00E94C010FFCF68EE2F
:1006A00073E080E090E00E940C0E61E0C8010E94BF
:1006B0001A15C8010E942802C8010E94C70261E001
:1006C000C8010E941A152A960FB6F894DEBF0FBE15
:1006D000CDBFDF91CF911F910F9108950F931F937D
:1006E000CF93DF93CDB7DEB7A4970FB6F894DEBFF4
:1006F0000FBECDBF8C01CB01BE016F5F7F4F0E944B
:1007000022178D899E89AF89B88DF80180839183E6
:10071000A283B383898D9A8DAB8DBC8D84839583A1
:10072000A683B7838D8D9E8DAF8DB8A1808791876D
:10073000A287B387C801A4960FB6F894DEBF0FBE98
:10074000CDBFDF91CF911F910F9108954091F2039A
:100750005091F3036091F4037091F5038091F003DD
:100760009091F1030E94D313109233051092320539
:100770001092350510923405109239051092380503
:100780001092370510923605EEECF4E080E090E030
:1007900021913191232BB1F4FC01EE0FFF1FE253A5
:1007A000FB4F26ED33E03183208383589F4F909396
:1007B000DB038093DA038EEE93E09093DD03809366
:1007C000DC0304C001968931910511F788E695E0B4
:1007D0000C941A03CF92DF92EF92FF9220E030E068
:1007E0006A017B01022E04C0F694E794D794C79463
:1007F0000A94D2F7FC01C192CF01285F3F4F20320B
:10080000310571F7FF90EF90DF90CF9008954F92F0
:100810005F926F927F92AF92BF92CF92DF92EF92F0
:10082000FF920F931F93CF93DF93EC017B018A819B
:10083000FB0180838B8181838C8182838D81838383
:10084000DB01179640E050E0BA01E4E0F0E04A80B6
:100850005B806C807D808F010C5F1F4F44155505B8
:1008600066057705C0F48A859B85E80FF91F3497E4
:10087000D080218192818381FD013397D08231968E
:100880002083319690838C93F8014F5F5F4F6F4FB9
:100890007F4F1496DCCFEE0DFF1D8C8580838D85F8
:1008A00081838E8582838F85838380E090E040E022
:1008B00050E0BA014C845D846E847F84F701E00FC0
:1008C000F11F0C5F1F4F4415550566057705B8F4F9
:1008D000AC89BD89A80FB91FCC901196DC901197F7
:1008E00012963C91129713962C91C082D18232833A
:1008F00023834F5F5F4F6F4F7F4F0496DBCF8E890F
:1009000080838F898183888D8283898D8383412C25
:10091000512C32018E899F89A88DB98D48165906B0
:100920006A067B0680F55201AA0CBB1CEC8DFD8D7E
:10093000EA0DFB1DA081B181FD0101900020E9F7C6
:1009400031976F01CA1ADB0AA60160E070E0C701A7
:10095000800F911F0E94EA030C5F1F4F8C8D9D8DAD
:10096000FC01EA0DFB1D60817181A601C701800FAA
:10097000911F0E94F41A0C0D1D1DFFEF4F1A5F0A04
:100980006F0A7F0AC7CFC801DF91CF911F910F91E6
:10099000FF90EF90DF90CF90BF90AF907F906F90DF
:1009A0005F904F900895EF92FF920F931F93CF9314
:1009B000DF938C017B01EC018A81FB018193AB8188
:1009C000BC81ED0109900020E9F72197CA1BDB0BE0
:1009D000AE0160E070E0CF010E94EA03F80163819C
:1009E0007481AE01C70105960E94F41ACE010596E6
:1009F000DF91CF911F910F91FF90EF900895CF92CB
:100A0000DF92EF92FF920F931F93CF93DF936C01CE
:100A1000EB01FC018281888383818983A481B58174
:100A2000FD0101900020E9F731978F010A1B1B0B94
:100A3000A80160E070E0CE0102960E94EA03F60190
:100A400064817581A801CE0106960E94F41AC8013E
:100A50000696F601A681B781FD0101900020E9F715
:100A600031977F01EA1AFB0AA70160E070E08C0F62
:100A70009D1F0E94EA03065F1F4FF6016681778182
:100A8000A701CE01800F911F0E94F41A0E0D1F1DA9
:100A9000F601A085B185FD0101900020E9F73197AD
:100AA0007F01EA1AFB0AA70160E070E0CE01800F27
:100AB000911F0E94EA030C5F1F4FF601608571854C
:100AC000A701CE01800F911F0E94F41AC8018E0D5C
:100AD0009F1DF6016285438534852585C80FD91F82
:100AE000688349833A832B830496DF91CF911F91CA
:100AF0000F91FF90EF90DF90CF900895CF92DF920B
:100B0000EF92FF92FC011082118212821382DB01AC
:100B100020E030E04D9150E0022E02C0440F551FFE
:100B20000A94E2F7052E000C660B770BC080D1808B
:100B3000E280F3804C295D296E297F29408351830F
:100B400062837383285F3F4F2032310519F7FF908E
:100B5000EF90DF90CF9008958F929F92AF92BF92C7
:100B6000CF92DF92EF92FF920F931F93CF93DF9379
:100B700000D000D0CDB7DEB77C018B01FB018191A5
:100B8000BF01F7018283CE0101960E947E05898113
:100B90009A81AB81BC814C015D01F5E08F0E911C07
:100BA000A11CB11C680125E0C20ED11CA601401B8E
:100BB000510B60E070E0481559056A057B0548F463
:100BC000F60141916F019F0122503109F9014083E3
:100BD000EDCFF801E80FF91F14820C5F1F4FF701EA
:100BE0001483038305960F900F900F900F90DF9161
:100BF000CF911F910F91FF90EF90DF90CF90BF901A
:100C0000AF909F908F9008954F925F926F927F92D6
:100C10008F929F92AF92BF92CF92DF92EF92FF920C
:100C20000F931F93CF93DF93CDB7DEB72C970FB6FB
:100C3000F894DEBF0FBECDBF7C018B01DB018C9130
:100C400090E0F7019383828311962C91922B9383EA
:100C500082836E5F7F4FCE0109960E947E05898454
:100C60009A84AB84BC84B501A4014A5F5F4F6F4F87
:100C70007F4FF8013696CF01801B910BA0E0B0E0CA
:100C800084179507A607B70728F48191DF0112970B
:100C90008C93F1CFF801E80DF91D1582C801059676
:100CA000D70115969C938E931497B4016A5F7F4F7A
:100CB000600F711FCE0105960E947E05BAE08B0E73
:100CC000911C4D815E816F8178852401092C000C77
:100CD00066087708440E551E661E771EF801E80D5B
:100CE000F91DCF01801B910BA0E0B0E084159505A4
:100CF000A605B70528F48191DF0112978C93F1CFF7
:100D00006401C40ED51EB8016C0D7D1DFB01319729
:100D10001082C4010197800F911FF701978386838A
:100D2000CE0101960E947E05A6014C5F5F4F49806F
:100D30005A806B807C804A01052E000CAA08BB08F3
:100D4000840C951CA61CB71CF801E40FF51F9F012D
:100D5000201B310BC901A0E0B0E088159905AA0558
:100D6000BB0528F48191DF0112978C93F0CFCA0163
:100D7000840D951DF801E80FF91FDF0111971C92F2
:100D80009A0121503109020F131FD70119961C93A4
:100D90000E9318972181428150E060E070E0BA0123
:100DA00055274427522B2081422B2381722BF70198
:100DB000428753876487758704962C960FB6F894FC
:100DC000DEBF0FBECDBFDF91CF911F910F91FF907E
:100DD000EF90DF90CF90BF90AF909F908F907F90DB
:100DE0006F905F904F9008952F923F924F925F9235
:100DF0006F927F928F929F92AF92BF92CF92DF922B
:100E0000EF92FF920F931F93CF93DF93CDB7DEB78F
:100E100028970FB6F894DEBF0FBECDBF8C015B01E3
:100E2000DB018C9111969C9111971296CC901297A0
:100E3000D12CE12CF12C7601DD24CC24D92AC82A2E
:100E400013968C91F82AF80182819381A481B5814F
:100E50008C159D05AE05BF0570F4B601660F771FB2
:100E6000660F771F828593850E946D0ED8011B96B1
:100E70009C938E931A97F801C282D382E482F58202
:100E8000D5011796C12CD12C7601F4E08F2E912C30
:100E900098012A5F3F4FF801428153816481758137
:100EA000C4010496C416D506E606F70680F54C91F3
:100EB00050E060E070E0742F662755274427FD015D
:100EC0003397E0814E2BFD013297E0815E2BFD01CF
:100ED0003197E0816E2BF8014683578360877187D5
:100EE0004C01089742855385840F951FF901408175
:100EF000518162817381FC014083518362837383DA
:100F0000FFEFCF1ADF0AEF0AFF0A1496C4CFF401ED
:100F1000EA0DFB1D20813181C280D12CE12CF12C06
:100F20007601DD24CC24D32AC22A2381F22A4C0163
:100F3000F80184859585A685B7858C159D05AE0538
:100F4000BF0570F4B601660F771F660F771F84899F
:100F500095890E946D0ED80155969C938E93549757
:100F6000F801C486D586E686F78620E030E0C12CFD
:100F7000D12C7601D8015096F801448555856685B7
:100F80007785F501E80DF91DC4010496C416D50650
:100F9000E606F70648F59180428150E060E070E097
:100FA000BA0155274427592990804929E3817E2B8E
:100FB000F801408B518B628B738B4C01848995892E
:100FC000FC01E20FF31F4D915D916D917C911397A0
:100FD0004083518362837383FFEFCF1ADF0AEF0AE6
:100FE000FF0A2C5F3F4FC8CF20813181C280D12CB6
:100FF000E12CF12C7601DD24CC24D32AC22A2381D2
:10100000F22A4C01F80186899789A08DB18D8C1543
:101010009D05AE05BF0560F4B601660F771F848D90
:10102000958D0E946D0ED8015D969C938E935C9772
:10103000F801C68AD78AE08EF18E412C512C3201FC
:101040001801FAE12F0E311CF80186899789A08DCD
:10105000B18D481659066A067B0608F05AC0B501DC
:10106000680D791DCE0101960E947E0594012C5FCA
:101070003F4FC980DA80EB80FC80C901032E000C51
:10108000AA0BBB0BAC01BD014C0D5D1D6E1D7F1D80
:101090004D835E836F837887F501E20FF31FAF0105
:1010A0004A195B09CA01A0E0B0E04D815E816F8101
:1010B000788584179507A607B70728F44191DF01C3
:1010C00012974C93ECCFC9018C0D9D1DF501E80FD3
:1010D000F91F31971082215031092A0D3B1DD8018B
:1010E0005B963C932E935A974C01C201880F991F2F
:1010F0005C96ED91FC915D97E80FF91FD1018D9100
:101100009C9191838083BFEF4B1A5B0A6B0A7B0A29
:101110009BCFC40128960FB6F894DEBF0FBECDBF9B
:10112000DF91CF911F910F91FF90EF90DF90CF90C3
:10113000BF90AF909F908F907F906F905F904F90F7
:101140003F902F9008950F931F93CF93DF93CDB7C8
:10115000DEB72A970FB6F894DEBF0FBECDBF8C0165
:1011600083E593E09A8389831B821C821D821E8201
:101170001F82188619861A86D801ED91FC9101907C
:10118000F081E02DAE014F5F5F4F6AE070E0C80173
:1011900009950E94DB0DF80160877187828793872C
:1011A0002A960FB6F894DEBF0FBECDBFDF91CF9168
:1011B0001F910F9108954F925F926F927F92AF921D
:1011C000BF92CF92DF92EF92FF920F931F93CF9334
:1011D000DF93CDB7DEB72E970FB6F894DEBF0FBE04
:1011E000CDBF8C018FE593E09A8389831C821B829B
:1011F0008CE093E09E838D8398878F839A8789877D
:101200001B861C861D861E86680180EEC80ED11CBA
:101210007801AEEEEA1AAEEFFA0A94E6492E512CA6
:10122000612C712CD601ED91FC913097B9F184813C
:1012300095819C838B83808191819E838D83828124
:101240009381DC01ED91FC910480F581E02D0995FD
:1012500098878F83D601ED91FC9182819381DC0187
:10126000ED91FC910680F781E02D09959A87898799
:101270004B865C866D867E86F80180819181F601C1
:10128000A081B18118966D917C911997DC01ED9147
:10129000FC91AE014F5F5F4FC8010995B2E0CB0EE4
:1012A000D11CCE14DF0409F0BDCF6801ECEBCE1ADF
:1012B000EEEFDE0A84E6482E512C612C712CF701EA
:1012C000A081B1811097E1F112968D919C911397B5
:1012D0009C838B8314968D919C9115979E838D830F
:1012E000ED91FC9111970480F581E02DCD010995D8
:1012F00098878F83D7018D919C91DC01ED91FC91B2
:101300000680F781E02D09959A8789874B865C8650
:101310006D867E86D801ED91FC91A080B180F701A9
:1013200080819181DC01ED91FC910280F381E02DBF
:101330000995AE014F5F5F4FBC01C801F5010995EA
:10134000F2E0EF0EF11CEC14FD0409F0B8CFF80147
:10135000E25BFE4F81E080832E960FB6F894DEBFED
:101360000FBECDBFDF91CF911F910F91FF90EF90F6
:10137000DF90CF90BF90AF907F906F905F904F9035
:1013800008958F929F92AF92BF92CF92DF92EF9289
:10139000FF920F931F93CF93DF93CDB7DEB72A97BA
:1013A0000FB6F894DEBF0FBECDBF8C015B0183E5A5
:1013B00093E09A8389831B821C821D821E821F8276
:1013C000188619861A860E94DB0DF801C084D18424
:1013D000E284F3849B01AC012C193D094E095F099D
:1013E00069017A01B501CE0101960E94AA0088EE3A
:1013F000882E83E0982EA12CB12CC701B601A5013F
:1014000094010E94731DCB80DC80ED80FE80C20EB3
:10141000D31EE41EF51ECB82DC82ED82FE829B0190
:10142000AC0160E472E48FE090E00E944F1DCF8039
:10143000D884E984FA84DC01CB018C0D9D1DAE1D9E
:10144000BF1D8F839887A987BA870E94DB0DCB8049
:10145000DC80ED80FE8031E0C31AD108E108F1089C
:10146000A50194010E94731DC21AD30AE40AF50A69
:10147000F801C486D586E686F786CF80D884E984CD
:10148000FA84F6E3DF1AF5E6EF0AF4ECFF0A9B01B3
:10149000AC0160E472E48FE090E00E944F1DC61A38
:1014A000D70AE80AF90AF801C08AD18AE28AF38ADF
:1014B000B801605F7F4FC8010C960E9487170E9499
:1014C000DB0DF801ED5AFE4F6083718382839383B5
:1014D0002A960FB6F894DEBF0FBECDBFDF91CF9135
:1014E0001F910F91FF90EF90DF90CF90BF90AF9042
:1014F0009F908F9008952F923F924F925F926F929C
:101500007F928F929F92AF92BF92CF92DF92EF9293
:10151000FF920F931F93CF93DF93CDB7DEB7609702
:101520000FB6F894DEBF0FBECDBF988B8F870E9499
:10153000DB0D4B015C012F8538892D5A3E4F3E83D0
:101540002D83F90180819181A281B381A50194014C
:10155000281B390B4A0B5B0BDA01C901893F9A4200
:10156000A105B10528F0EF85F889E25BFE4F1082F6
:101570000F8518890C5B1E4FD8018D919C91892B8A
:1015800081F0EF85F889E95AFE4F80819181A2812F
:10159000B38188159905AA05BB0518F4F8011182D5
:1015A00010826F847888F4EB6F1AFEEF7F0A2F8524
:1015B0003889285B3E4F3A832983CF84D88838E125
:1015C000C30ED11C4F855889425B5E4F58874F83AD
:1015D0002F853889245A3E4F3A8729874F85588965
:1015E000455A5E4F5C874B87EF84F8885AEBE51AC3
:1015F0005EEFF50A2F853889265B3E4F3C832B83AF
:101600004F855889495A5E4F5E874D8714012501E1
:1016100054E1250E311C411C511CEF85F889848949
:101620009589A689B789892B8A2B8B2B89F4AF855D
:10163000B88912968D919C911397DC01ED91FC91E4
:101640000680F781E02D09959C0197FF15C036C1F2
:101650000E94DB0DDC01CB0188199909AA09BB099D
:10166000EF85F889248935894689578928173907EC
:101670004A075B07E0F64AC1D3018D919C9111970F
:10168000820F931F8D939C93F801408151814730C5
:101690005105D9F4AB81BC818D919C911197AC011E
:1016A0004F5F5F4F4D935C93EF85F889E80FF91F0B
:1016B000208FF70180819181019791838083892B0D
:1016C00009F0ABCF88E090E02FC04115510521F51E
:1016D0002F3F310569F481E090E0F8019183808328
:1016E000AD85BE852D923D924D925C92139795CF1C
:1016F0000E94DB0DDC01CB0188199909AA09BB09FD
:1017000089389341A105B10508F487CFEF85F889A1
:10171000E25BFE4F1082FAC041305105B1F42E3F1A
:10172000310531F482E090E0D8018D939C9375CF20
:10173000F80111821082AF81B8858C9181116DCF33
:101740008F8598890E94A30868CF4230510569F4BB
:10175000F70131832083AB81BC811D921C9283E011
:1017600090E0F801918380832EC04330510561F4ED
:10177000322F2227F70180819181280F391F318371
:10178000208384E090E0D0CF4430510581F460E0C4
:1017900071E00E945F1D8F3F910531F485E090E07C
:1017A000F8019183808339CF1182108236CF453082
:1017B000510569F4E981FA8131832083E6E0F0E0A4
:1017C000D801ED93FC93D3012D933C9326CF463063
:1017D000510599F4322F2227E981FA818081918184
:1017E000280F391F31832083E7E0F0E0D801ED9323
:1017F000FC93D7018D919C9162CF4830510509F03F
:101800000CCFF8011182108260E071E00E945F1D30
:101810008F3F910509F001CFA981BA818D919C91EB
:101820000097C9F48F8598890E94A3088F859889AD
:101830000E94DB08EF85F889E15BFE4F8082918290
:10184000A282B382ED81FE8180829182A282B382E4
:101850008FEF9FEF60C08A30910531F4B6018F851C
:1018600098890E94C109D9CE8630910551F4B601FC
:1018700089859A850E94F40681E0AB85BC858C93AE
:10188000CCCE8B30910521F4EF81F8851082C5CE46
:10189000FC01B596EE0FFF1F2F853889E20FF31F6D
:1018A00080819181009709F4B8CEDC01ED91FC9123
:1018B0000190F081E02DB6010995AFCEEF85F88952
:1018C000E25BFE4F8081882321F10F851889015B3F
:1018D0001E4FF80180819181A281B381A5019401FD
:1018E000281B390B4A0B5B0BDA01C901853C994077
:1018F000A105B10570F08F8598890E94A308D801D1
:101900008D929D92AD92BC92139703C08EEF9FEF84
:1019100002C080E090E060960FB6F894DEBF0FBE84
:10192000CDBFDF91CF911F910F91FF90EF90DF908E
:10193000CF90BF90AF909F908F907F906F905F906F
:101940004F903F902F900895CF93DF93CDB7DEB7A0
:101950002C970FB6F894DEBF0FBECDBF68E675E0DA
:10196000CE0101960E946E03E0EEF3E089819A8138
:10197000AB81BC8182839383A483B5838D819E8157
:10198000AF81B88586839783A087B18789859A853B
:10199000AB85BC8582879387A487B587E6EDF3E0A6
:1019A00086819781DC012D913C9164817581D901FB
:1019B000ED91FC9140EE53E009958EEE93E00E948C
:1019C0007B0A64E670E080E090E02C960FB6F89415
:1019D000DEBF0FBECDBFDF91CF910C940C0E28E27D
:1019E0004FEF5FEFBA0188E695E00E94DE148FE8C2
:1019F00093E09093EF038093EE038BE795E0909351
:101A0000F1038093F00380E091EEA0E0B0E08093DA
:101A1000F2039093F303A093F403B093F5031092B1
:101A20003C0587E793E090934B0580934A0510921D
:101A30004C0510924D0510924E0510924F051092D4
:101A400055051092540510925605109257051092A4
:101A500058051092590510925F0510925E0510927C
:101A60006005109261051092620510926305109254
:101A7000670510926605EEECF4E01192119285E094
:101A8000E030F807D1F7E0E0F5E01192119285E03F
:101A9000E233F807D1F7E6E0F4E0119284E0EA36A9
:101AA000F807D9F7EAE6F4E0119284E0EE3CF80793
:101AB000D9F71092020410920304109204041092B9
:101AC000050483E893E09093E1038093E003109290
:101AD000E2031092E3031092E4031092E5031092E4
:101AE000E6031092E7031092E8031092E9031092C4
:101AF000EA031092EB031092EC031092ED038FE2D5
:101B000093E09093D7038093D60380EE93E0909375
:101B1000D9038093D8031092DF031092DE03089557
:101B200008951F920F920FB60F9211242F933F9397
:101B30008F939F93AF93BF9380917305909174059A
:101B4000A0917505B09176053091720523E0230FC1
:101B50002D3720F40196A11DB11D05C026E8230FE5
:101B60000296A11DB11D2093720580937305909379
:101B70007405A0937505B0937605809177059091D3
:101B80007805A0917905B0917A050196A11DB11D46
:101B90008093770590937805A0937905B0937A05A3
:101BA000BF91AF919F918F913F912F910F900FBE59
:101BB0000F901F9018952FB7F8946091730570914E
:101BC000740580917505909176052FBF08953FB7F4
:101BD000F8948091770590917805A0917905B0915E
:101BE0007A0526B5A89B05C02F3F19F00196A11DC7
:101BF000B11D3FBFBA2FA92F982F8827820F911DA3
:101C0000A11DB11DBC01CD0142E0660F771F881FE9
:101C1000991F4A95D1F70895CF92DF92EF92FF92E4
:101C2000CF93DF936B017C010E94E70DEB01C114A0
:101C3000D104E104F10479F00E94E70D6C1B7D0BE7
:101C4000683E7340A0F381E0C81AD108E108F108AA
:101C5000C851DC4FECCFDF91CF91FF90EF90DF9038
:101C6000CF900895789484B5826084BD84B58160F6
:101C700084BD85B5826085BD85B5816085BDEEE694
:101C8000F0E0808181608083E1E8F0E01082808173
:101C900082608083808181608083E0E8F0E08081E1
:101CA00081608083E1EBF0E0808184608083E0EB01
:101CB000F0E0808181608083EAE7F0E080818460E9
:101CC0008083808182608083808181608083808145
:101CD000806880831092C10008956F927F928F92E6
:101CE0009F92AF92BF92CF92DF92EF92FF920F93AB
:101CF0001F93CF93DF93EC01009789F4CB01DF9121
:101D0000CF911F910F91FF90EF90DF90CF90BF90F8
:101D1000AF909F908F907F906F900C94560FFC0126
:101D2000E60FF71F9C0122503109E217F30708F470
:101D3000ACC0D9010D911C91119706171707B0F08F
:101D40000530110508F49FC0C8010497861797074E
:101D500008F499C002501109061B170B0193119347
:101D60006D937C93CF010E94EB0F8DC05B01A01A95
:101D7000B10A4C01800E911EA091E706B091E806D1
:101D800040E050E0E12CF12C109709F44AC0A8156E
:101D9000B905D1F56D907C901197630182E0C80E72
:101DA000D11CCA14DB0480F1A3014A195B096A0142
:101DB00082E0C80ED11C1296BC9012971396AC917B
:101DC000B5E0CB16D10440F0B282A38351834083A7
:101DD000D9016D937C930AC00E5F1F4FC301800F22
:101DE000911FF90191838083EB2DFA2FE114F10407
:101DF00031F0D7011396FC93EE93129744C0F09301
:101E0000E806E093E7063FC08D919C911197481733
:101E1000590708F4AC017D0112960D90BC91A02DDC
:101E2000B3CF8091E5069091E60688159905E1F417
:101E300046175707C8F4809100019091010100975F
:101E400041F48DB79EB74091040150910501841B68
:101E5000950BE817F907C8F4F093E606E093E5065A
:101E6000F901718360830FC0CB010E94560F7C0182
:101E7000009759F0A801BE010E94F41ACE010E94F9
:101E8000EB0FC70104C0CE0102C080E090E0DF91FB
:101E9000CF911F910F91FF90EF90DF90CF90BF9067
:101EA000AF909F908F907F906F900895CF93DF9326
:101EB0008230910510F482E090E0E091E706F09125
:101EC000E80620E030E0C0E0D0E0309711F140813A
:101ED000518148175907C0F04817590761F48281AA
:101EE0009381209719F09B838A832BC09093E806F7
:101EF0008093E70626C02115310519F042175307D4
:101F000018F49A01BE01DF01EF010280F381E02D98
:101F1000DCCF2115310509F1281B390B243031059F
:101F200090F412968D919C9113976115710521F093
:101F3000FB019383828304C09093E8068093E706B5
:101F4000FD01329644C0FD01E20FF31F819391938E
:101F5000225031092D933C933AC02091E5063091EF
:101F6000E606232B41F420910201309103013093C6
:101F7000E6062093E506209100013091010121152C
:101F8000310541F42DB73EB7409104015091050150
:101F9000241B350BE091E506F091E606E217F30706
:101FA000A0F42E1B3F0B2817390778F0AC014E5FC9
:101FB0005F4F2417350748F04E0F5F1F5093E6061A
:101FC0004093E5068193919302C0E0E0F0E0CF01F9
:101FD000DF91CF9108950F931F93CF93DF930097D5
:101FE00009F48CC0FC013297138212820091E7063B
:101FF0001091E8060115110581F420813181820FCD
:10200000931F2091E5063091E6062817390779F5E8
:10201000F093E606E093E50671C0D80140E050E099
:10202000AE17BF0750F412962D913C911397AD0156
:102030002115310509F1D901F3CF9D01DA0133836F
:10204000228360817181860F971F8217930769F43D
:10205000EC0128813981260F371F2E5F3F4F3183D6
:1020600020838A819B8193838283452B29F4F0937B
:10207000E806E093E70642C01396FC93EE931297AE
:10208000ED01499159919E01240F351FE217F30785
:1020900071F480819181840F951F029611969C9313
:1020A0008E938281938113969C938E931297E0E096
:1020B000F0E0D80112968D919C911397009719F03A
:1020C000F8018C01F6CF8D919C9198012E5F3F4FC6
:1020D000820F931F2091E5063091E60628173907F5
:1020E00069F4309729F41092E8061092E70602C0CE
:1020F000138212821093E6060093E506DF91CF91DA
:102100001F910F910895CF92DF92EF92FF920F935C
:102110001F93CF93DF936C01EB017B01E40EF51E5F
:1021200000E010E0CE15DF0561F06991D601ED9178
:10213000FC910190F081E02DC6010995080F191F4F
:10214000F1CFC801DF91CF911F910F91FF90EF90D8
:10215000DF90CF9008956115710579F0FB01019032
:102160000020E9F73197AF01461B570BDC01ED91D9
:10217000FC910280F381E02D099480E090E00895C5
:102180000C94AB10DC01ED91FC910190F081E02DFD
:1021900009940F931F93CF93DF93EC016DE00E949E
:1021A000C2108C016AE0CE010E94C210800F911F04
:1021B000DF91CF911F910F9108950F931F93CF93AC
:1021C000DF93EC010E94AB108C01CE010E94C9107C
:1021D000800F911FDF91CF911F910F9108958F92E2
:1021E0009F92AF92BF92CF92DF92EF92FF920F93A6
:1021F0001F93CF93DF93CDB7DEB7A1970FB6F894B7
:10220000DEBF0FBECDBF6C01142FE52FCB01022F17
:1022100019A2223008F40AE07E0121E2E20EF11C4C
:10222000802E912CA12CB12C612F7E2FA501940121
:102230000E94731D029F1019112481E0E81AF10811
:102240001A3014F4105D01C0195CF7011083122FCD
:10225000E32FCA01232B242B252B31F7B701C6010D
:102260000E94AB10A1960FB6F894DEBF0FBECDBF93
:10227000DF91CF911F910F91FF90EF90DF90CF9062
:10228000BF90AF909F908F900895CF92DF92EF9282
:10229000FF920F931F93CF93DF93EC016A017B01B1
:1022A0002115310579F4E881F9810190F081E02D63
:1022B000642FDF91CF911F910F91FF90EF90DF90EE
:1022C000CF9009942A303105E9F477FF1AC06DE206
:1022D0000E94C2108C0144275527BA014C195D0990
:1022E0006E097F092AE0CE010E94EF10800F911F36
:1022F000DF91CF911F910F91FF90EF90DF90CF90E2
:1023000008952AE0B701A601CE01DF91CF911F9178
:102310000F91FF90EF90DF90CF900C94EF100F9300
:102320001F93CF93DF93EC010E9445118C01CE01E6
:102330000E94C910800F911FDF91CF911F910F91C3
:1023400008952115310541F4DC01ED91FC910190D6
:10235000F081E02D642F09940C94EF100F931F93DC
:10236000CF93DF93EC019A01462F50E060E070E0DC
:102370000E94A1118C01CE010E94C910800F911FF3
:10238000DF91CF911F910F9108954F925F926F92BD
:102390007F928F929F92AF92BF92CF92DF92EF92F5
:1023A000FF92CF93DF93EC016A017B01B22E9A0179
:1023B000AB01C701B6010E944A1D882319F065E9E7
:1023C00073E027C026013701E89477F82FEF3FEF3D
:1023D0004FE75FE7C301B2010E944A1D81110DC0A2
:1023E0002FEF3FEF4FE75FE7C301B2010E94791B78
:1023F00018161CF469E973E00CC02FEF3FEF4FE7AC
:102400005FE4C701B6010E94D81C18169CF46DE960
:1024100073E0CE01DF91CF91FF90EF90DF90CF90EE
:10242000BF90AF909F908F907F906F905F904F90F4
:102430000C94AB102FEF3FEF4FE75FECC701B601F5
:102440000E94791B87FDE3CF20E030E0A901C7019E
:10245000B6010E94791B87FF0AC06DE2CE010E947F
:10246000C2104C01F7FAF094F7F8F09402C0812CF6
:10247000912CA12C60E070E080E09FE3AB1441F070
:1024800020E030E040E251E40E947E1BA394F6CFAE
:102490009B01AC01C701B6010E940D1B2B013C0141
:1024A0000E94F71B6B017C010E94261C9B01AC0162
:1024B000C301B2010E940C1B2B013C012AE0B701B1
:1024C000A601CE010E94EF107C01E80CF91CBB2094
:1024D00039F062E372E0CE010E94AB10E80EF91E03
:1024E000DB2CDD2039F120E030E040E251E4C30193
:1024F000B2010E94DD1C2B013C010E94F01B4B012C
:10250000770FAA08BB082AE030E0B501A401CE018C
:102510000E944511E80EF91EC501B4010E94281C55
:102520009B01AC01C301B2010E940C1B2B013C01B9
:10253000DA94D7CFC701DF91CF91FF90EF90DF9072
:10254000CF90BF90AF909F908F907F906F905F9053
:102550004F9008950C94C5110E94320E0E94A6035C
:10256000CFE8D3E10E94A40C2097E1F30E948F13DF
:10257000F9CF0C94EB0FFC0124853585F901E05C63
:10258000FF4F80819181329620813181821B930B94
:102590008F7399270895DC011C96ED91FC911D978E
:1025A000DF01A05CBF4F2D913C91119712968D9148
:1025B0009C9111972817390739F08D919C91E80F5C
:1025C000F91F808190E008958FEF9FEF0895FC013F
:1025D000A485B585FD01E05CFF4F208131813296F5
:1025E000808191812817390779F080819181A80F26
:1025F000B91F8C91208131812F5F3F4F2F7333277B
:102600003183208390E008958FEF9FEF0895FC01C0
:1026100081A1882329F0A489B5898C9186FFFBCFFD
:1026200011A208950F931F93CF93DF93FC01A6850A
:10263000B7858D01005C1F4FE80188819981019663
:102640008F739927AD014E5B5F4FEA012881398175
:1026500082179307D1F3E80128813981A20FB31FB4
:102660006C93A685B785A05CBF4F11969C938E9303
:10267000A689B7892C9181E090E0078C02C0880F71
:10268000991F0A94E2F7822B8C9381E081A304883E
:10269000F589E02D80818064808381E090E0DF9186
:1026A000CF911F910F91089508951F920F920FB629
:1026B0000F9211242F934F935F938F939F93EF93D8
:1026C000FF938091C00082FD1CC02091C6008091C4
:1026D00021069091220601968F7399274091230637
:1026E000509124068417950771F0E0912106F0912E
:1026F0002206EF51FA4F2083909322068093210601
:1027000002C08091C600FF91EF919F918F915F91E0
:102710004F912F910F900FBE0F901F9018958BE740
:1027200095E00E94BB12892B11F00C94541308956C
:102730001F920F920FB60F9211242F933F938F93F6
:102740009F93EF93FF932091DD053091DE058091FB
:10275000DF059091E0052817390731F48091C10019
:102760008F7D8093C10014C0E091DF05F091E005FA
:10277000E356FA4F20818091DF059091E0050196A4
:102780008F7399279093E0058093DF052093C6000F
:10279000FF91EF919F918F913F912F910F900FBEDD
:1027A0000F901F901895CF92DF92EF92FF920F93A8
:1027B0001F93CF93DF93EC016A017B014115514ECA
:1027C0006105710509F1EC89FD8981E090E008A0BF
:1027D00002C0880F991F0A94E2F7808360E079E0D5
:1027E0008DE390E0A70196010E94731D89019A0173
:1027F000015011092109310936952795179507953B
:10280000980101151041A8F0EC89FD89108260E85B
:1028100074E88EE190E0A70196010E94731DDA0131
:10282000C9010197A109B109B695A7959795879513
:102830009C01E889F9893083EA89FB89208319A200
:10284000EE89FF89408181E090E09C010C8C02C000
:10285000220F331F0A94E2F7242B2083EE89FF898D
:1028600040819C010D8C02C0220F331F0A94E2F7B5
:10287000242B2083EE89FF8940819C010E8C02C0AD
:10288000220F331F0A94E2F7242B2083EE89FF895D
:1028900020810F8C02C0880F991F0A94E2F780955F
:1028A00082238083DF91CF911F910F91FF90EF9052
:1028B000DF90CF900895EBE7F5E01382128288EE67
:1028C00093E0A0E0B0E084839583A683B78385EA94
:1028D00093E09183808381EE95E0958784878DE9ED
:1028E00095E09787868785EC90E0918B808B84ECD0
:1028F00090E0938B828B80EC90E0958B848B81ECC5
:1029000090E0978B868B82EC90E0918F808F86ECA5
:1029100090E0938F828F84E0848F83E0858F87E0BF
:10292000868F85E0878F81E080A3089508950F93B7
:102930001F93CF93DF938C01EB0188E2FB0111928F
:102940008A95E9F74BE050E061EB73E0CE010E941D
:10295000FD1A1B8681E090E0A0E0B0E08C879D87A7
:10296000AE87BF87F80184819581A681B781888B66
:10297000998BAA8BBB8B83E090E0A0E0B0E08C8BBE
:102980009D8BAE8BBF8B1CA21DA21EA21FA2188EF8
:10299000198E1A8E1B8E1C8E1D8E1E8E1F8E8AE027
:1029A00097EDA3E2BCE388A399A3AAA3BBA3DF91FD
:1029B000CF911F910F9108950C94B912FC018CEBEB
:1029C00093E0918380834483558366837783238355
:1029D00008951F93CF93DF931F92CDB7DEB7162FC5
:1029E000FC01638185E296E049830E946A18612FA9
:1029F00085E296E00E9411184981642F85E296E0F5
:102A00000E94111885E296E00E94871881E00F90DD
:102A1000DF91CF911F910895462FFC016087718748
:102A20006DE370E00E94E9146EE170E080E090E0F8
:102A30000C940C0EFF920F931F93CF93DF93EC0136
:102A4000F62E0885198560E070E00E940C1569E19A
:102A500070E080E090E00E940C0E40E067E070E0E3
:102A6000CE010E94E914FF2011F040E801C040E0CF
:102A70006FE370E0CE010E94E9146AE070E080E04C
:102A800090E00E940C0EB801CE010E940C1564E18A
:102A900070E080E090E0DF91CF911F910F91FF9067
:102AA0000C940C0E1F93CF93DF93EC01162F6B81C8
:102AB00085E296E00E946A18612F85E296E00E9406
:102AC000111885E296E00E94871841E06B8185E24B
:102AD00096E00E94671885E296E00E94BD17DF919C
:102AE000CF911F9108950F931F93CF93DF93EC0124
:102AF0008B0185E296E00E94501860E070E0CE0104
:102B00000E945215803A61F460E070E0CE010E94AC
:102B10000C1540E26FE370E0CE010E94E9140FC093
:102B200068EE73E080E090E00E940C0E60E070E0E0
:102B3000CE010E945215803A39F380E03DC060E03A
:102B400070E0CE010E945215803A39F06AE070E0E0
:102B500080E090E00E940C0EF2CF62E370E080E033
:102B600090E00E940C0E40E06EE370E0CE010E9407
:102B7000E9146AE070E080E090E00E940C0E40E012
:102B800067E070E0CE010E94E91440E06FE370E07E
:102B9000CE010E94E9146AE070E080E090E00E94BB
:102BA0000C0EB801CE010E940C1564E170E080E0CB
:102BB00090E00E940C0E81E0DF91CF911F910F9168
:102BC0000895CF92DF92EF92FF920F931F93CF93CE
:102BD000DF93EC016B017A01890140E067E070E06E
:102BE0000E94E914C114D10439F069E370E0CE0108
:102BF0000E945215F6018083E114F10439F066E376
:102C000070E0CE010E945215F70180830115110575
:102C100039F06AE370E0CE010E945215F80180831A
:102C200068EC70E080E090E0DF91CF911F910F9110
:102C3000FF90EF90DF90CF900C940C0ECF92DF922C
:102C4000FF920F931F93CF93DF931F92CDB7DEB701
:102C50006C01F62E042F122FFC01638185E296E0B1
:102C600059830E946A186F2D85E296E00E94111820
:102C700085E296E00E948718412FF601638185E284
:102C800096E00E946718F02EC02E5981D52E8C2D0B
:102C90008F19811740F485E296E00E94BD17F60176
:102CA00081936F01F4CF81E00F90DF91CF911F915D
:102CB0000F91FF90DF90CF900895AF92BF92CF9287
:102CC000DF92EF92FF920F931F93CF93DF9300D089
:102CD00000D000D0CDB7DEB77C01CB015A012CE08B
:102CE000F70111922A95E9F7AE014F5F5F4F26E099
:102CF000FA0111922A95E9F726E0B5010E941E1605
:102D00006A8170E0762F66278981682BCC80D12C70
:102D1000DC2CCC248B81C82A0E8110E0102F0027D8
:102D20008D81082BF4E1AF16B104C1F054F4E8E052
:102D3000AE16B10409F441C0FEE0AF16B10471F063
:102D40006FC088E2A816B104C1F1EEE2AE16B1047C
:102D5000A1F1FAE1AF16B10409F062C0072E000C30
:102D6000880B990B0E94281C20E030E040E85DE3CE
:102D70000E94DD1CF7016083718382839383B60117
:102D8000DD0C880B990B0E94281C20E030E040E805
:102D90005DE30E94DD1CF70164837583868397835E
:102DA000B801110F880B990B0E94281C20E030E01D
:102DB00040E85DE30E94DD1C2EC0072E000C880B4E
:102DC000990B0E94281C20E030E048EC52E40E945D
:102DD0007E1BF7016083718382839383B601DD0CD0
:102DE000880B990B0E94281C20E030E048EC52E44C
:102DF0000E947E1BF7016483758386839783B801E5
:102E0000110F880B990B0E94281C20E030E048EC41
:102E100052E40E947E1BF701608771878287938747
:102E2000C70126960FB6F894DEBF0FBECDBFDF9167
:102E3000CF911F910F91FF90EF90DF90CF90BF90B7
:102E4000AF900895EF92FF920F931F93CF93DF936C
:102E5000CDB7DEB72C970FB6F894DEBF0FBECDBF4F
:102E60007C018B0184E2FB0111928A95E9F784E2EF
:102E700090E0A0E0B0E0FB0180839183A283B38364
:102E8000F70184819581A681B781FB0184839583B5
:102E9000A683B78383E090E0A0E0B0E080879187CD
:102EA000A287B3870E94DB0DF801608B718B828B48
:102EB000938B4AE150E0B701CE0101960E945D1666
:102EC00089819A81AB81BC81F801848B958BA68B1B
:102ED000B78B8D819E81AF81B885808F918FA28FB6
:102EE000B38F89859A85AB85BC85848F958FA68F96
:102EF000B78F81E02C960FB6F894DEBF0FBECDBF22
:102F0000DF91CF911F910F91FF90EF900895CF9295
:102F1000DF92EF92FF920F931F93CF93DF938C0179
:102F2000EB01688179818A819B8120E03AEC4AE952
:102F30005BE30E94731DF801C080D180E280F380C2
:102F4000C20ED31EE41EF51EC082D182E282F3823D
:102F5000688379838A839B83DF91CF911F910F913F
:102F6000FF90EF90DF90CF9008958091550690E00C
:102F700020915606821B91090895909156068091E2
:102F80005506981750F4E92FF0E0E95AF94F2081DF
:102F900030E09F5F9093560602C02FEF3FEFC901CC
:102FA0000895E091560680915506E81730F4F0E058
:102FB000E95AF94F808190E008958FEF9FEF0895CF
:102FC0000895CF92DF92EF92FF920F931F93CF93CA
:102FD000DF937C01262F972F8A0180913106882369
:102FE00091F0C62FD72F6E01C40ED51ECC15DD056E
:102FF00071F06991D701ED91FC910190F081E02D84
:10300000C7010995F3CF642F822F0E944219C8018E
:10301000DF91CF911F910F91FF90EF90DF90CF90B4
:103020000895CF93DF931F92CDB7DEB769832091C8
:1030300031062223D1F020913206203240F021E0E7
:1030400030E0FC013383228380E090E015C0809162
:103050003306E82FF0E0EC5CF94F998190838F5FA5
:10306000809333068093320605C061E0CE0101965D
:103070000E94421981E090E00F90DF91CF91089576
:10308000FC011382128288EE93E0A0E0B0E084831A
:103090009583A683B7838AEC93E091838083089518
:1030A0001092560610925506109233061092320670
:1030B0000C948E18862F413208F040E267E576E0E6
:1030C0000E94AC181092560680935506089521E090
:1030D0000C945A1881E08093310660935406109244
:1030E00033061092320608950F93062F21E0409187
:1030F000320664E376E0809154060E94F018109244
:10310000330610923206109231060F91089561E055
:103110000C94741885E296E00C9440181092E40622
:1031200081E08093E2061092E10661E082E10E9474
:10313000C11A61E083E10E94C11AE9EBF0E08081ED
:103140008E7F808380818D7F808388E48093B80028
:1031500085E48093BC000895413208F03FC090910F
:10316000E4069111FCCF91E09093E4062093E206EF
:103170002FEF209377061092BC06240F2093BB06F6
:103180009093E3069091E306880F892B8093E306E2
:103190008091E106813041F41092E1068091E306CE
:1031A0008093BB0085EC01C085EE8093BC008091CC
:1031B000E4068130E1F38091BC06841710F440915D
:1031C000BC062DEB36E0FB01D9018A2F821B841748
:1031D00018F48D918193F9CF842F089580E008959C
:1031E0000F93413208F046C09091E4069111FCCF54
:1031F00032E03093E4060093E2063FEF3093770627
:103200001092BC064093BB06FB016DEB76E0DB0140
:103210003A2F361B341718F431913D93F9CF1092A1
:10322000E3063091E306880F832B8093E3068091B9
:10323000E106813041F41092E1068091E30680932B
:10324000BB0085EC01C085EE8093BC00222321F0F9
:103250008091E4068230D1F3809177068F3F79F038
:1032600080917706803241F080917706803331F08B
:1032700094E005C091E003C092E001C093E0892F83
:103280000F910895613298F42091E406243089F476
:1032900060939906FC012BE936E0D9018A2F821B45
:1032A000861718F481918D93F9CF80E0089581E01D
:1032B000089582E0089585ED8093BC008091BC0064
:1032C00084FDFCCF1092E406089585EC8093BC0049
:1032D0001092E40608951F920F920FB60F921124D8
:1032E0002F933F934F935F936F937F938F939F930E
:1032F000AF93BF93EF93FF938091B900887F80369F
:1033000009F49CC068F5883209F45BC090F4803100
:1033100009F454C038F4882309F4F5C0883009F45E
:103320004DC0F5C0883109F44CC0803209F45DC04D
:10333000EEC0803409F468C048F4803309F455C005
:10334000883309F0E4C080937706A8C0803509F47B
:103350004FC0883509F45DC0883409F0D8C0D5C0A5
:10336000883909F4C6C0A8F4883709F467C038F46E
:10337000883609F463C0803709F460C0C8C0883853
:1033800009F4B7C0803909F45FC0803809F0BFC0C4
:103390005BC0803B09F485C038F4803A09F466C00C
:1033A000883A09F47EC0B3C0803C09F4A6C0883CCA
:1033B00009F4A3C0883B09F489C0A9C08091E30641
:1033C00010C09091BC068091BB06981770F5E091F3
:1033D000BC0681E08E0F8093BC06F0E0E354F94F09
:1033E00080818093BB0085EC85C0809377068DC07B
:1033F000E091BC0681E08E0F8093BC068091BB00FB
:10340000F0E0E354F94F80839091BC068091BB06B5
:103410006DC0E091BC0681E08E0F8093BC06809168
:10342000BB00F0E0E354F94F80838091E206811104
:103430006CC081E08093E10684EA60C083E0809301
:10344000E40610927806CFCF80917806803208F09B
:1034500050C0E091780681E08E0F809378068091CD
:10346000BB00F0E0E758F94F8083BDCF809178062C
:10347000803230F4E0917806F0E0E758F94F10829E
:103480000E945B196091780670E0E091DD06F09192
:10349000DE0689E796E00995109278060E94651984
:1034A00036C084E08093E40610929A061092990642
:1034B000E091DF06F091E00609958091990681116F
:1034C00005C081E08093990610929B06E0919A06D0
:1034D00081E08E0F80939A06F0E0E556F94F8081E7
:1034E0008093BB0090919A0680919906981708F4F2
:1034F0007ACF85E88093BC000AC085EC8093BC003D
:103500001092E40604C0109277060E945B19FF91A6
:10351000EF91BF91AF919F918F917F916F915F914B
:103520004F913F912F910F900FBE0F901F901895C4
:10353000833081F028F4813099F08230A1F0089531
:103540008630A9F08730B9F08430D1F480918000C2
:103550008F7D03C0809180008F77809380000895D5
:1035600084B58F7702C084B58F7D84BD0895809126
:10357000B0008F7703C08091B0008F7D8093B00042
:1035800008951F93CF93DF93282F30E0F901E85976
:10359000FF4F8491F901E458FF4FD491F901E057AE
:1035A000FF4FC491CC23C9F0162F81110E94981AA5
:1035B000EC2FF0E0EE0FFF1FEC55FF4FA591B491FB
:1035C0008FB7F894111105C09C91ED2FE095E92378
:1035D00002C0EC91ED2BEC938FBFDF91CF911F9147
:1035E0000895F8940C94C91DFB01DC0102C0019000
:1035F0000D9241505040D8F70895FB01DC01415035
:10360000504048F001900D920020C9F701C01D9272
:1036100041505040E0F708955058BB27AA270E9418
:10362000241B0C949E1C0E94901C38F00E94971C36
:1036300020F039F49F3F19F426F40C948D1C0EF4FD
:10364000E095E7FB0C94871CE92F0E94AF1C58F310
:10365000BA17620773078407950720F079F4A6F577
:103660000C94D11C0EF4E0950B2EBA2FA02D0B015B
:10367000B90190010C01CA01A0011124FF27591BB7
:1036800099F0593F50F4503E68F11A16F040A22FBD
:10369000232F342F4427585FF3CF4695379527952E
:1036A000A795F0405395C9F77EF41F16BA0B620B2D
:1036B000730B840BBAF09150A1F0FF0FBB1F661F74
:1036C000771F881FC2F70EC0BA0F621F731F841FB7
:1036D00048F4879577956795B795F7959E3F08F0DD
:1036E000B0CF9395880F08F09927EE0F979587959F
:1036F00008950E94631C08F481E008950E94921BC3
:103700000C949E1C0E94971C58F00E94901C40F044
:1037100029F45F3F29F00C94871C51110C94D21CA2
:103720000C948D1C0E94AF1C68F39923B1F35523B0
:1037300091F3951B550BBB27AA27621773078407C4
:1037400038F09F5F5F4F220F331F441FAA1FA9F35A
:1037500035D00E2E3AF0E0E832D091505040E69548
:10376000001CCAF72BD0FE2F29D0660F771F881FA9
:10377000BB1F261737074807AB07B0E809F0BB0B9C
:10378000802DBF01FF2793585F4F3AF09E3F5105B0
:1037900078F00C94871C0C94D21C5F3FE4F3983EA5
:1037A000D4F3869577956795B795F7959F5FC9F799
:1037B000880F911D9695879597F90895E1E0660F1A
:1037C000771F881FBB1F621773078407BA0720F093
:1037D000621B730B840BBA0BEE1F88F7E0950895FC
:1037E0000E94F71B6894B1110C94D21C08950E949A
:1037F000B71C88F09F5798F0B92F9927B751B0F0B0
:10380000E1F0660F771F881F991F1AF0BA95C9F764
:1038100014C0B13091F00E94D11CB1E008950C9415
:10382000D11C672F782F8827B85F39F0B93FCCF3C8
:10383000869577956795B395D9F73EF490958095E1
:10384000709561957F4F8F4F9F4F0895E89409C001
:1038500097FB3EF490958095709561957F4F8F4FC3
:103860009F4F9923A9F0F92F96E9BB279395F695D9
:10387000879577956795B795F111F8CFFAF4BB0F57
:1038800011F460FF1BC06F5F7F4F8F4F9F4F16C0BB
:10389000882311F096E911C0772321F09EE8872F45
:1038A000762F05C0662371F096E8862F70E060E001
:1038B0002AF09A95660F771F881FDAF7880F96957A
:1038C000879597F90895990F0008550FAA0BE0E81E
:1038D000FEEF16161706E807F907C0F012161306D2
:1038E000E407F50798F0621B730B840B950B39F412
:1038F0000A2661F0232B242B252B21F408950A2678
:1039000009F4A140A6958FEF811D811D089597F9B7
:103910009F6780E870E060E008959FEF80EC089575
:1039200000240A941616170618060906089500249E
:103930000A9412161306140605060895092E039418
:10394000000C11F4882352F0BB0F40F4BF2B11F48C
:1039500060FF04C06F5F7F4F8F4F9F4F089557FDEB
:103960009058440F551F59F05F3F71F04795880FED
:1039700097FB991F61F09F3F79F087950895121684
:1039800013061406551FF2CF4695F1DF08C0161630
:1039900017061806991FF1CF8695710561050894E1
:1039A0000895E894BB2766277727CB0197F90895F8
:1039B0000E94631C08F48FEF08950E94F01C0C9481
:1039C0009E1C0E94901C38F00E94971C20F09523AA
:1039D00011F00C94871C0C948D1C11240C94D21C97
:1039E0000E94AF1C70F3959FC1F3950F50E0551FD7
:1039F000629FF001729FBB27F00DB11D639FAA2744
:103A0000F00DB11DAA1F649F6627B00DA11D661F92
:103A1000829F2227B00DA11D621F739FB00DA11DB3
:103A2000621F839FA00D611D221F749F3327A00D6D
:103A3000611D231F849F600D211D822F762F6A2F09
:103A400011249F5750409AF0F1F088234AF0EE0F6E
:103A5000FF1FBB1F661F771F881F91505040A9F79B
:103A60009E3F510580F00C94871C0C94D21C5F3F44
:103A7000E4F3983ED4F3869577956795B795F795D7
:103A8000E7959F5FC1F7FE2B880F911D969587954F
:103A900097F908950E94631C880B990B0895DB0128
:103AA0008F939F930E94951DBF91AF91A29F800D10
:103AB000911DA39F900DB29F900D1124089597FB27
:103AC000072E16F4009407D077FD09D00E94A01DA0
:103AD00007FC05D03EF4909581959F4F0895709511
:103AE00061957F4F0895A1E21A2EAA1BBB1BFD0111
:103AF0000DC0AA1FBB1FEE1FFF1FA217B307E407CD
:103B0000F50720F0A21BB30BE40BF50B661F771F24
:103B1000881F991F1A9469F7609570958095909504
:103B20009B01AC01BD01CF0108950E94BA1DA59F64
:103B3000900DB49F900DA49F800D911D11240895A8
:103B4000AA1BBB1B51E107C0AA1FBB1FA617B707C3
:103B500010F0A61BB70B881F991F5A95A9F78095DF
:103B60009095BC01CD010895EE0FFF1F0590F491D3
:103B7000E02D0994A29FB001B39FC001A39F700DD7
:103B8000811D1124911DB29F700D811D1124911D65
:103B9000089510E0CAE5D0E004C0FE010E94B41D03
:0C3BA0002196CB35D107C9F7F894FFCF70
:103BAC000000E90680007374645F6D7367732F54B3
:103BBC00696D650063643731363663373463353588
:103BCC003263333131666263633266653561376205
:103BDC006332383900726F7373657269616C5F6D33
:103BEC007367732F546F706963496E666F00306131
:103BFC006435316638386663343438393266386344
:103C0C003130363834303737363436303035007260
:103C1C006F7373657269616C5F6D7367732F4C6F33
:103C2C006700313161626437333163323539333394
:103C3C003236316364363138336264313264363251
:103C4C003935003966306539386264613635393852
:103C5C0031393836646466353361666137613430C6
:103C6C006534390067656F6D657472795F6D736764
:103C7C00732F506F696E743332006363313533398F
:103C8C003132663134353362373038643232313662
:103C9C0038326263323364396163004D657373612A
:103CAC0067652066726F6D20646576696365206454
:103CBC00726F707065643A206D657373616765200F
:103CCC006C6172676572207468616E2062756666DD
:103CDC0065722E002D2D2D2D2D2D2D2D2D2D2D2DB7
:103CEC002D2D2D2D2D2D2D2D2D2D2D2D2D2D2D2DF8
:103CFC002D2D2D2D2D2D2D2D0053656E736F723A9C
:103D0C0020202020202020004472697665722056E5
:103D1C0065723A20202000556E6971756520494402
:103D2C003A20202020004D61782056616C75653A50
:103D3C00202020200020787878004D696E20566174
:103D4C006C75653A20202020005265736F6C757479
:103D5C00696F6E3A2020200053797374656D20537F
:103D6C0074617475733A2030780053656C66205416
:103D7C006573743A202020202030780053797374B6
:103D8C00656D204572726F723A20203078004E6F4C
:103D9C00742064657465637465642C206368656362
:103DAC006B204932432070696E730009002120009A
:103DBC005379733A0020473A0020413A00204D3A9B
:103DCC0000583A200009593A2000095A3A20006953
:103DDC006D7500726F7373657269616C5F6D73677B
:103DEC00732F52657175657374506172616D00004B
:103DFC000000008600AA00F000F30000000000FFA5
:103E0C00040406F600F90000000000D304AC05FC25
:103E1C0000FF00000000000704F406020105010089
:103E2C0000000008013C017A017D010000000085C2
:103E3C00017B0A80016E616E00696E66006F7666AA
:103E4C00000000000012138310BB12E712CB120704
:103E5C0013424E4F30353500000000009614DC1430
:103E6C00850022179714000000001118E117B517F0
:063E7C00BD17D117E0178D
:00000001FF
