:100000000C945E000C9486000C9486000C94860080
:100010000C9486000C9486000C9486000C94860048
:100020000C9486000C9486000C9486000C94320884
:100030000C9486000C9486000C9486000C94860028
:100040000C9492010C9486000C940F050C945205AC
:100050000C9486000C9486000C9486000C94860008
:100060000C9486000C94860000000007000201003A
:100070000003040600000000000000000102040864
:100080001020408001020408102001020408102002
:10009000040404040404040402020202020203032E
:1000A0000303030300000000250028002B000000CC
:1000B0000000240027002A008A01150611241FBE13
:1000C000CFEFD8E0DEBFCDBF11E0A0E0B1E0ECE5BE
:1000D000FAE102C005900D92A835B107D9F722E0E8
:1000E000A8E5B1E001C01D92AC34B207E1F710E021
:1000F000CEE5D0E004C02197FE010E94170DCC355B
:10010000D107C9F70E9468040C94690A0C94000096
:1001100040E855E260E070E08CE791E00E948D05D8
:1001200062E070E08BE691E00E9456066FEE71E0AF
:100130008BE691E00E94810663E070E08EE591E03D
:100140000E942F078BE691E00E94E60690935D01E6
:1001500080935C0184EB90E090935B0180935A0163
:100160000E94DC01709359016093580108954F92E9
:100170005F926F927F928F929F92AF92BF92CF9237
:10018000DF92EF92FF92CF93DF9364E170E08EE510
:1001900091E00E9449078BE691E00E949C068BE665
:1001A00091E00E94E606EC0180915C0190915D0176
:1001B000BE01681B790B072E000C880B990B0E945F
:1001C000880B6B017C0120E030E0A9010E94380C13
:1001D00046015701181624F0B7FAB094B7F8B09456
:1001E00080915A0190915B01BC01990F880B990B8A
:1001F0000E94880B9B01AC01C501B4010E94380C20
:100200001816ACF4D7FF09C020E030E044EB53E40B
:10021000C701B6010E946D0A08C0A701960160E0FF
:1002200070E084EB93E40E946C0A6B017C010E94F5
:10023000DC014B015C0120E030E04AE754E4C701F7
:10024000B6010E943D0C2B013C0180915801909118
:100250005901B401681B790B072E000C880B990B10
:100260000E94880B9B01AC01C301B2010E94DE0A0F
:100270002B013C0160E071E08CE791E00E94AB0251
:1002800060915C0170915D014AE050E08CE791E083
:100290000E9468036DE071E08CE791E00E94AB0280
:1002A0004AE050E0BE018CE791E00E94680367E1FC
:1002B00071E08CE791E00E94AB0222E030E0B701F0
:1002C000A6018CE791E00E94540466E271E08CE79D
:1002D00091E00E94AB0222E030E0B301A2018CE782
:1002E00091E00E9456049092590180925801D09357
:1002F0005D01C0935C01DF91CF91FF90EF90DF90A3
:10030000CF90BF90AF909F908F907F906F905F90B5
:100310004F9008958BE691E00E9450068EE591E0A3
:100320000C941A071F920F920FB60F9211242F935D
:100330003F938F939F93AF93BF938091740190915C
:100340007501A0917601B09177013091730123E09E
:10035000230F2D3720F40196A11DB11D05C026E8FD
:10036000230F0296A11DB11D209373018093740188
:1003700090937501A0937601B093770180917801F5
:1003800090917901A0917A01B0917B010196A11D14
:10039000B11D8093780190937901A0937A01B09375
:1003A0007B01BF91AF919F918F913F912F910F90C2
:1003B0000FBE0F901F9018952FB7F894609174019D
:1003C0007091750180917601909177012FBF08950A
:1003D0003FB7F8948091780190917901A0917A01CA
:1003E000B0917B0126B5A89B05C02F3F19F001965F
:1003F000A11DB11D3FBFBA2FA92F982F8827820FAB
:10040000911DA11DB11DBC01CD0142E0660F771FFA
:10041000881F991F4A95D1F70895CF92DF92EF92E6
:10042000FF92CF93DF936B017C010E94E801EB0107
:10043000C114D104E104F10479F00E94E8016C1BBD
:100440007D0B683E7340A0F381E0C81AD108E10833
:10045000F108C851DC4FECCFDF91CF91FF90EF90C6
:10046000DF90CF900895789484B5826084BD84B580
:10047000816084BD85B5826085BD85B5816085BD9F
:10048000EEE6F0E0808181608083E1E8F0E01082B8
:10049000808182608083808181608083E0E8F0E0F9
:1004A000808181608083E1EBF0E0808184608083E3
:1004B000E0EBF0E0808181608083EAE7F0E080811A
:1004C000846080838081826080838081816080837A
:1004D0008081806880831092C1000895CF92DF925E
:1004E000EF92FF920F931F93CF93DF936C01EB0179
:1004F0007B01E40EF51E00E010E0CE15DF0561F093
:100500006991D601ED91FC910190F081E02DC60139
:100510000995080F191FF1CFC801DF91CF911F91E5
:100520000F91FF90EF90DF90CF90089561157105C6
:1005300079F0FB0101900020E9F73197AF01461BEC
:10054000570BDC01ED91FC910280F381E02D0994C1
:1005500080E090E008950C949602DC01ED91FC910E
:100560000190F081E02D09940F931F93CF93DF93B7
:10057000EC016DE00E94AD028C016AE0CE010E94A8
:10058000AD02800F911FDF91CF911F910F910895C0
:100590008F929F92AF92BF92CF92DF92EF92FF9293
:1005A0000F931F93CF93DF93CDB7DEB7A1970FB60D
:1005B000F894DEBF0FBECDBF6C01142FE52FCB0129
:1005C000022F19A2223008F40AE07E0121E2E20E95
:1005D000F11C802E912CA12CB12C612F7E2FA50116
:1005E00094010E94CB0C029F1019112481E0E81A9B
:1005F000F1081A3014F4105D01C0195CF701108382
:10060000122FE32FCA01232B242B252B31F7B701FF
:10061000C6010E949602A1960FB6F894DEBF0FBEE7
:10062000CDBFDF91CF911F910F91FF90EF90DF90A1
:10063000CF90BF90AF909F908F900895CF92DF9210
:10064000EF92FF920F931F93CF93DF93EC016A0118
:100650007B012115310579F4E881F9810190F08160
:10066000E02D642FDF91CF911F910F91FF90EF90BC
:10067000DF90CF9009942A303105E9F477FF1AC052
:100680006DE20E94AD028C0144275527BA014C1936
:100690005D096E097F092AE0CE010E94C802800F21
:1006A000911FDF91CF911F910F91FF90EF90DF90FD
:1006B000CF9008952AE0B701A601CE01DF91CF9136
:1006C0001F910F91FF90EF90DF90CF900C94C80294
:1006D0009A01AB01770F660B770B0C941E034F92B8
:1006E0005F926F927F928F929F92AF92BF92CF92C2
:1006F000DF92EF92FF92CF93DF93EC016A017B01CF
:10070000B22E9A01AB01C701B6010E94AA0C882340
:1007100019F069E371E027C026013701E89477F802
:100720002FEF3FEF4FE75FE7C301B2010E94AA0C32
:1007300081110DC02FEF3FEF4FE75FE7C301B2011B
:100740000E94D90A18161CF46DE371E00CC02FEF5B
:100750003FEF4FE75FE4C701B6010E94380C18165F
:100760009CF461E471E0CE01DF91CF91FF90EF90B6
:10077000DF90CF90BF90AF909F908F907F906F90C1
:100780005F904F900C9496022FEF3FEF4FE75FEC96
:10079000C701B6010E94D90A87FDE3CF20E030E00F
:1007A000A901C701B6010E94D90A87FF0AC06DE2FC
:1007B000CE010E94AD024C01F7FAF094F7F8F094E4
:1007C00002C0812C912CA12C60E070E080E09FE3BE
:1007D000AB1441F020E030E040E251E40E94DE0A38
:1007E000A394F6CF9B01AC01C701B6010E946D0A2C
:1007F0002B013C010E94570B6B017C010E94860B70
:100800009B01AC01C301B2010E946C0A2B013C01A7
:100810002AE0B701A601CE010E94C8027C01E80CC3
:10082000F91CBB2039F065E471E0CE010E9496020C
:10083000E80EF91EDB2CDD2039F120E030E040E24B
:1008400051E4C301B2010E943D0C2B013C010E9406
:10085000500B4B01770FAA08BB082AE030E0B50126
:10086000A401CE010E941E03E80EF91EC501B401C9
:100870000E94880B9B01AC01C301B2010E946C0A6B
:100880002B013C01DA94D7CFC701DF91CF91FF90C4
:10089000EF90DF90CF90BF90AF909F908F907F9020
:1008A0006F905F904F9008950C946F030F931F9378
:1008B000CF93DF93EC010E946F038C01CE010E9465
:1008C000B402800F911FDF91CF911F910F91089576
:1008D0000E9433020E948800C9E4D5E00E94B7005C
:1008E0002097E1F30E944905F9CFFC012485358565
:1008F000F901E05CFF4F8081918132962081318146
:10090000821B930B8F7399270895DC011C96ED9140
:10091000FC911D97DF01A05CBF4F2D913C91119779
:1009200012968D919C9111972817390739F08D9166
:100930009C91E80FF91F808190E008958FEF9FEF61
:100940000895FC01A485B585FD01E05CFF4F208181
:1009500031813296808191812817390779F0808121
:100960009181A80FB91F8C91208131812F5F3F4F5A
:100970002F7333273183208390E008958FEF9FEF0B
:100980000895FC0181A1882329F0A489B5898C915F
:1009900086FFFBCF11A208950F931F93CF93DF9390
:1009A000FC01A685B7858D01005C1F4FE801888199
:1009B000998101968F739927AD014E5B5F4FEA01D4
:1009C0002881398182179307D1F3E8012881398181
:1009D000A20FB31F6C93A685B785A05CBF4F11967D
:1009E0009C938E93A689B7892C9181E090E0078C27
:1009F00002C0880F991F0A94E2F7822B8C9381E042
:100A000081A30488F589E02D80818064808381E062
:100A100090E0DF91CF911F910F91089508951F925B
:100A20000F920FB60F9211242F934F935F938F93D2
:100A30009F93EF93FF938091C00082FD1CC0209193
:100A4000C600809122029091230201968F7399270C
:100A500040912402509125028417950771F0E0918E
:100A60002202F0912302EE51FE4F20839093230245
:100A70008093220202C08091C600FF91EF919F9166
:100A80008F915F914F912F910F900FBE0F901F90FC
:100A900018958CE791E00E947504892B11F00C9455
:100AA0000E0508951F920F920FB60F9211242F93E7
:100AB0003F938F939F93EF93FF932091DE013091AB
:100AC000DF018091E0019091E1012817390731F4AD
:100AD0008091C1008F7D8093C10014C0E091E0013E
:100AE000F091E101E256FE4F20818091E00190916A
:100AF000E10101968F7399279093E1018093E001C2
:100B00002093C600FF91EF919F918F913F912F917C
:100B10000F900FBE0F901F901895CF92DF92EF921B
:100B2000FF920F931F93CF93DF93EC016A017B0138
:100B30004115514E6105710509F1EC89FD8981E08E
:100B400090E008A002C0880F991F0A94E2F7808302
:100B500060E079E08DE390E0A70196010E94CB0C64
:100B600089019A010150110921093109369527950A
:100B700017950795980101151041A8F0EC89FD899A
:100B8000108260E874E88EE190E0A70196010E946F
:100B9000CB0CDA01C9010197A109B109B695A79556
:100BA000979587959C01E889F9893083EA89FB89C3
:100BB000208319A2EE89FF89408181E090E09C01A9
:100BC0000C8C02C0220F331F0A94E2F7242B2083DF
:100BD000EE89FF8940819C010D8C02C0220F331FDA
:100BE0000A94E2F7242B2083EE89FF8940819C013F
:100BF0000E8C02C0220F331F0A94E2F7242B2083AD
:100C0000EE89FF8920810F8C02C0880F991F0A94FA
:100C1000E2F7809582238083DF91CF911F910F911E
:100C2000FF90EF90DF90CF900895ECE7F1E0138212
:100C3000128288EE93E0A0E0B0E084839583A683DF
:100C4000B7838BE491E09183808382EE91E0958776
:100C500084878EE991E09787868785EC90E0918B79
:100C6000808B84EC90E0938B828B80EC90E0958B72
:100C7000848B81EC90E0978B868B82EC90E0918F57
:100C8000808F86EC90E0938F828F84E0848F83E066
:100C9000858F87E0868F85E0878F81E080A3089528
:100CA000FC0111821082138212820895CF93FC01FD
:100CB00080819181892B11F5C62F60837183138206
:100CC000128261E08C2F0E948F0761E08C2F0E94BE
:100CD000CB070E94FB0781E00E94150880E00E947C
:100CE0001E0886E00E94230860ED77E080E090E037
:100CF0000E940D020E94110881E001C080E0CF91A6
:100D00000895FC017383628308951F93CF93DF934B
:100D1000EC01162F60E088810E94CB071EBD0DB448
:100D200007FEFDCF1EB561E088810E94CB07812FB1
:100D3000DF91CF911F910895FF920F931F93CF934F
:100D4000DF93FC0120813181232BC1F18C010E94B2
:100D5000FB0760E0F80180810E94CB0760E1C801D9
:100D60000E94850660E0C8010E948506C82F62E0E7
:100D700070E080E090E00E940D02C03199F760E0E1
:100D8000C8010E948506C82F60E0C8010E94850640
:100D9000F82E61E0F80180810E94CB070E941108C3
:100DA000CF70D0E0DC2FCC27CF0DD11D65E070E0F7
:100DB00080E090E00E940D02CE0102C08FEF9FEF15
:100DC000DF91CF911F910F91FF900895CF93DF9303
:100DD000FC0120813181232B41F1EC010E949C0612
:100DE0002A813B81821B930B97FD905F60E070E14D
:100DF000681B790B072E000C880B990B0E94880B3F
:100E000020E030E044EB53E40E943D0C20E030E071
:100E100040E859E30E943D0C0E94500BCB01653B1A
:100E200071052CF08856914002C088E19CEFDF915B
:100E3000CF910895CF93DF93EC010A960E94F308B7
:100E40001F821E828AE590E09B838A831982188222
:100E500084EB90E09D838C83DF91CF9108950F9375
:100E60001F93CF93DF936115710541F0EB018C0166
:100E70000A960E949109F801D783C683DF91CF912A
:100E80001F910F910895FC01628173810A960C9461
:100E9000CC09FC0126813781232BB1F06115710546
:100EA00019F40E9443070EC0FC0122813381448162
:100EB0005581620F731F461757070CF4BA010A9643
:100EC0000E94CC0981E0089580E00895833081F08C
:100ED00028F4813099F08230A1F008958630A9F08D
:100EE0008730B9F08430D1F4809180008F7D03C0C9
:100EF000809180008F7780938000089584B58F77EC
:100F000002C084B58F7D84BD08958091B0008F7735
:100F100003C08091B0008F7D8093B0000895CF937F
:100F2000DF9390E0FC01E458FF4F2491FC01E0576F
:100F3000FF4F8491882361F190E0880F991FFC0195
:100F4000E255FF4FC591D491FC01EC55FF4FA5919F
:100F5000B491611109C09FB7F894888120958223CC
:100F60008883EC912E230BC0623061F49FB7F89414
:100F70003881822F809583238883EC912E2B2C93AC
:100F80009FBF06C08FB7F894E8812E2B28838FBFB0
:100F9000DF91CF9108951F93CF93DF93282F30E0F7
:100FA000F901E859FF4F8491F901E458FF4FD491BA
:100FB000F901E057FF4FC491CC23C9F0162F8111DE
:100FC0000E946607EC2FF0E0EE0FFF1FEC55FF4F7D
:100FD000A591B4918FB7F894111105C09C91ED2F94
:100FE000E095E92302C0EC91ED2BEC938FBFDF91EC
:100FF000CF911F91089561E08AE00E94CB0761E0E4
:101000008AE00E948F078CB580618CBD8CB58064AE
:101010008CBD61E08DE00E948F0761E08BE00C9455
:101020008F078CB58F7B8CBD0895811103C08CB563
:10103000806202C08CB58F7D8CBD08959CB5937F76
:10104000892B8CBD08959CB5282F23709C7F922BF3
:101050009CBD2DB582FB992790F9822F8E7F892B1D
:101060008DBD08951F920F920FB60F9211242F93EA
:101070003F934F935F936F937F938F939F93AF9320
:10108000BF93EF93FF938091270287FF05C01092D3
:101090008500109284001BC020912702022E000CB4
:1010A000330B8091260290E02817390784F4809151
:1010B0002702082E000C990BFC01EE0FFF1F8E0F6C
:1010C0009F1FFC01E85DFD4F808186FD15C080916A
:1010D00027028F5F8093270220912702022E000CA7
:1010E000330B8091260290E028173907C4F48091D1
:1010F00027028C3064F113C080912702082E000C67
:10110000990BFC01EE0FFF1F8E0F9F1FFC01E85D86
:10111000FD4F808160E08F730E94CB07D8CF809114
:10112000840090918500049680349C4918F480E4F2
:101130009CE905C08091840090918500049690936D
:101140008900809388008FEF809327023BC0209115
:1011500084003091850080912702082E000C990BA5
:10116000FC01EE0FFF1F8E0F9F1FFC01E85DFD4F7E
:1011700081819281820F931F9093890080938800D0
:1011800080912702082E000C990BFC01EE0FFF1F27
:101190008E0F9F1FFC01E85DFD4F808186FF12C00E
:1011A00080912702082E000C990BFC01EE0FFF1F07
:1011B0008E0F9F1FFC01E85DFD4F808161E08F7302
:1011C0000E94CB07FF91EF91BF91AF919F918F91BB
:1011D0007F916F915F914F913F912F910F900FBE33
:1011E0000F901F901895FC01909126029C30A0F45E
:1011F00081E0890F809326029083892F90E0FC0183
:10120000EE0FFF1F8E0F9F1FFC01E85DFD4F88EB67
:101210009BE09283818308958FEF80830895DF920E
:10122000EF92FF920F931F93CF93DF93EC01D62E93
:101230007A01890188818C3008F06AC061E08D2DC7
:101240000E948F078881E82FF0E09F01220F331F53
:10125000E20FF31FE85DFD4F9D2D9F732081207CE1
:10126000D22ED92AD08260E272E0AB014E195F091A
:1012700057FF02C04D5F5F4F559547955595479570
:10128000498340E659E09A01201B310B37FF02C029
:101290002D5F3F4F35952795359527952A836CE02F
:1012A0000E94BF0C9CE0899FB001112440E050E0F7
:1012B0009A01260F371FF901EE0FFF1F2E0F3F1F58
:1012C000F901E85DFD4F908196FD16C04F5F5F4FBD
:1012D0004C30510569F781110FC01092800082E0F7
:1012E000809381001092850010928400B19A8091C1
:1012F0006F00826080936F00E881F0E0CF01880F7B
:10130000991FE80FF91FE85DFD4F8081806480839D
:101310008881DF91CF911F910F91FF90EF90DF9027
:10132000089520E639E040E252E00C940F09FC01F8
:1013300090819C3080F5818128E830E0281B3109BC
:1013400087FD3395220F331F220F331F6217730758
:101350007CF0828128E532E0281B310987FD339536
:10136000220F331F220F331F621773070CF49B01E8
:101370004FB7F894892F90E0FC01EE0FFF1F8E0FFE
:101380009F1FFC01E85DFD4F22503109220F331FE2
:10139000328321834FBF0895AF92BF92CF92DF92E5
:1013A000EF92FF920F931F93CF93DF93EC01603284
:1013B00082E078070CF03FC077FD06C0653B710501
:1013C0002CF064EB70E002C060E070E0898128E8F6
:1013D00030E05901A81AB10887FDB394AA0CBB1CD0
:1013E000AA0CBB1C0B2C000CCC08DD08072E000C33
:1013F000880B990B2A8108E512E0021B110927FDD1
:101400001395000F111F000F111F012E000C220B4E
:10141000330B3F932F931F930F9314EBE12EF12C7B
:1014200000E010E020E030E0A9010E94280A0F90BF
:101430000F900F900F90CE01DF91CF911F910F91E0
:10144000FF90EF90DF90CF90BF90AF900C949709F2
:101450004F925F926F927F92AF92BF92CF92DF9244
:10146000EF92FF920F931F93CF93DF93CDB7DEB729
:1014700029013A019B01AC01241935094609570994
:1014800089899A89AB89BC89BC01CD016A197B091C
:101490008C099D090E94AF0CA801970124193509F8
:1014A000460957090E94ED0CCA01B9016A0D7B1D5E
:1014B0008C1D9D1DDF91CF911F910F91FF90EF909B
:1014C000DF90CF90BF90AF907F906F905F904F90E4
:1014D0000895F8940C942C0D5058BB27AA270E940D
:1014E000840A0C94FE0B0E94F00B38F00E94F70B5C
:1014F00020F039F49F3F19F426F40C94ED0B0EF410
:10150000E095E7FB0C94E70BE92F0E940F0C58F3D2
:10151000BA17620773078407950720F079F4A6F5D8
:101520000C94310C0EF4E0950B2EBA2FA02D0B016C
:10153000B90190010C01CA01A0011124FF27591B18
:1015400099F0593F50F4503E68F11A16F040A22F1E
:10155000232F342F4427585FF3CF4695379527958F
:10156000A795F0405395C9F77EF41F16BA0B620B8E
:10157000730B840BBAF09150A1F0FF0FBB1F661FD5
:10158000771F881FC2F70EC0BA0F621F731F841F18
:1015900048F4879577956795B795F7959E3F08F03E
:1015A000B0CF9395880F08F09927EE0F9795879500
:1015B00008950E94C30B08F481E008950E94F20A86
:1015C0000C94FE0B0E94F70B58F00E94F00B40F0B9
:1015D00029F45F3F29F00C94E70B51110C94320C65
:1015E0000C94ED0B0E940F0C68F39923B1F3552373
:1015F00091F3951B550BBB27AA2762177307840726
:1016000038F09F5F5F4F220F331F441FAA1FA9F3BB
:1016100035D00E2E3AF0E0E832D091505040E695A9
:10162000001CCAF72BD0FE2F29D0660F771F881F0A
:10163000BB1F261737074807AB07B0E809F0BB0BFD
:10164000802DBF01FF2793585F4F3AF09E3F510511
:1016500078F00C94E70B0C94320C5F3FE4F3983E67
:10166000D4F3869577956795B795F7959F5FC9F7FA
:10167000880F911D9695879597F90895E1E0660F7B
:10168000771F881FBB1F621773078407BA0720F0F4
:10169000621B730B840BBA0BEE1F88F7E09508955D
:1016A0000E94570B6894B1110C94320C08950E945B
:1016B000170C88F09F5798F0B92F9927B751B0F0C1
:1016C000E1F0660F771F881F991F1AF0BA95C9F7C6
:1016D00014C0B13091F00E94310CB1E008950C9427
:1016E000310C672F782F8827B85F39F0B93FCCF3DA
:1016F000869577956795B395D9F73EF49095809543
:10170000709561957F4F8F4F9F4F0895E89409C062
:1017100097FB3EF490958095709561957F4F8F4F24
:101720009F4F9923A9F0F92F96E9BB279395F6953A
:10173000879577956795B795F111F8CFFAF4BB0FB8
:1017400011F460FF1BC06F5F7F4F8F4F9F4F16C01C
:10175000882311F096E911C0772321F09EE8872FA6
:10176000762F05C0662371F096E8862F70E060E062
:101770002AF09A95660F771F881FDAF7880F9695DB
:10178000879597F90895990F0008550FAA0BE0E87F
:10179000FEEF16161706E807F907C0F01216130633
:1017A000E407F50798F0621B730B840B950B39F473
:1017B0000A2661F0232B242B252B21F408950A26D9
:1017C00009F4A140A6958FEF811D811D089597F919
:1017D0009F6780E870E060E008959FEF80EC0895D7
:1017E00000240A9416161706180609060895002400
:1017F0000A9412161306140605060895092E03947A
:10180000000C11F4882352F0BB0F40F4BF2B11F4ED
:1018100060FF04C06F5F7F4F8F4F9F4F089557FD4C
:101820009058440F551F59F05F3F71F04795880F4E
:1018300097FB991F61F09F3F79F0879508951216E5
:1018400013061406551FF2CF4695F1DF08C0161691
:1018500017061806991FF1CF869571056105089442
:101860000895E894BB2766277727CB0197F9089559
:101870000E94C30B08F48FEF08950E94500C0C9443
:10188000FE0B0E94F00B38F00E94F70B20F095231E
:1018900011F00C94E70B0C94ED0B11240C94320C0A
:1018A0000E940F0C70F3959FC1F3950F50E0551FE8
:1018B000629FF001729FBB27F00DB11D639FAA27A5
:1018C000F00DB11DAA1F649F6627B00DA11D661FF4
:1018D000829F2227B00DA11D621F739FB00DA11D15
:1018E000621F839FA00D611D221F749F3327A00DCF
:1018F000611D231F849F600D211D822F762F6A2F6B
:1019000011249F5750409AF0F1F088234AF0EE0FCF
:10191000FF1FBB1F661F771F881F91505040A9F7FC
:101920009E3F510580F00C94E70B0C94320C5F3F06
:10193000E4F3983ED4F3869577956795B795F79538
:10194000E7959F5FC1F7FE2B880F911D96958795B0
:1019500097F908950E94C30B880B990B0895DB013A
:101960008F939F930E940C0DBF91AF91A29F800D0A
:10197000911DA39F900DB29F900D11240895991B66
:1019800079E004C0991F961708F0961B881F7A9576
:10199000C9F780950895A1E21A2EAA1BBB1BFD0171
:1019A0000DC0AA1FBB1FEE1FFF1FA217B307E4073E
:1019B000F50720F0A21BB30BE40BF50B661F771F96
:1019C000881F991F1A9469F7609570958095909576
:1019D0009B01AC01BD01CF010895052E97FB1EF4BC
:1019E00000940E94040D57FD07D00E94CB0C07FC09
:1019F00003D04EF40C94040D5095409530952195EC
:101A00003F4F4F4F5F4F089590958095709561952A
:101A10007F4F8F4F9F4F08950E941D0DA59F900DE2
:101A2000B49F900DA49F800D911D11240895EE0F79
:101A3000FF1F0590F491E02D0994A29FB001B39F80
:101A4000C001A39F700D811D1124911DB29F700DC7
:0C1A5000811D1124911D0895F894FFCF12
:101A5C007072657620616E676C653A2000092061B2
:101A6C006E676C653A2000092064656C74612061B6
:101A7C006E676C653A0009616E67756C61722076F1
:101A8C00656C6F636974793A006E616E00696E669D
:101A9C00006F7666002E0000000000CC046E02750C
:081AAC0004A1048504C104003B
:00000001FF
