:100000000C945E000C9486000C9486000C94860080
:100010000C9486000C9486000C9486000C94860048
:100020000C9486000C9486000C9486000C9420118D
:100030000C9486000C9486000C9486000C94860028
:100040000C949C0B0C9486000C94350F0C94780F38
:100050000C9486000C9486000C9486000C94860008
:100060000C9486000C94860000000007000201003A
:100070000003040600000000000000000102040864
:100080001020408001020408102001020408102002
:10009000040404040404040402020202020203032E
:1000A0000303030300000000250028002B000000CC
:1000B0000000240027002A000B0B3B1011241FBE58
:1000C000CFEFD8E0DEBFCDBF12E0A0E0B1E0EEE3BD
:1000D000F9E202C005900D92A23BB107D9F725E0E5
:1000E000A2EBB2E001C01D92A432B207E1F710E02A
:1000F000CEE5D0E004C02197FE010E948814CC35E3
:10010000D107C9F70E948E0E0C94EC130C940000DA
:10011000DC01FB0112968C911297808313968C91CF
:100120001397818314968C911497828315968C91E2
:100130001597838316968C911697848317968C91C6
:100140001797858318968C911897868319968C91AA
:10015000878388E090E00895FC01DB014C9150E03A
:1001600060E070E0428353836483758311968C91C1
:100170001197582B428353836483758312968C9115
:100180001297682B428353836483758313968C91F3
:100190001397782B428353836483758314964C9111
:1001A000149750E060E070E0468357836087718762
:1001B00015968C911597582B4683578360877187C6
:1001C00016968C911697682B4683578360877187A4
:1001D00017968C91782B468357836087718788E0C8
:1001E00090E0089586E091E0089584E191E008951B
:1001F00085E391E008958EE491E008958FE691E023
:10020000089582E891E0089583E392E0089583EAF7
:1002100091E00895FC0122818381FB012083818389
:1002200082E090E00895FB01218130E0322F222707
:100230004081242BFC013383228382E090E00895E7
:1002400084EC91E0089583ED91E008950F931F935E
:10025000CF93DF938C01EC012696CE010E9413010F
:10026000D8011A96ED91FC911B97CE01DF91CF91A9
:100270001F910F910994FC0184859585089584EC64
:1002800091E0089583ED91E00895FC01E25BFE4F5B
:1002900080810895FC01628173818AE394E00C946B
:1002A000AD10AF92BF92CF92DF92EF92FF920F9379
:1002B0001F93CF93DF9300D000D01F92CDB7DEB74E
:1002C0008C016B01643671053CF0FC01E25BFE4F72
:1002D0008081882309F476C0DA01ED91FC910190C8
:1002E000F081E02DB8016D577F4FCA010995780163
:1002F000BCE7EB0EF11C2FEFF70120832EEF3196B8
:10030000208331968083319690833196292F280F50
:10031000209520833196C082D801AE57BF4FDC9222
:1003200045E050E020E030E0BC016A5F7F4F641799
:10033000750734F0A1912A0F311D4F5F5F4FF7CF42
:100340006C01F8E0CF0ED11C800F911FFC01ED571E
:10035000FF4F2095208325E6C216D104CCF4570127
:10036000C5018E199F098C159D0584F4D80112963C
:100370008D919C911397F50161915F01DC01ED91E5
:10038000FC910190F081E02D0995EACFC6011CC0D7
:100390008BE692E09A83898383E08B8384EF91E0FC
:1003A0009D838C83D801ED91FC910190F081E02D2B
:1003B000AE014F5F5F4F67E070E0C80109958FEFB6
:1003C0009FEF02C080E090E00F900F900F900F9091
:1003D0000F90DF91CF911F910F91FF90EF90DF90E1
:1003E000CF90BF90AF90089540E855E260E070E094
:1003F00080E594E00E94B30F63E070E08AE394E04C
:100400000E948B1023EB30E04BE550E060E070E0A1
:100410008AE394E00E949F104091C4025091C5026B
:100420006091C6027091C7028091C2029091C3028E
:100430000E94B30F10920504109204041092070456
:100440001092060410920B0410920A0410920904F0
:1004500010920804E2EDF3E080E090E02191319108
:10046000232B81F4FC01EE0FFF1FEE52FC4F22EB19
:1004700032E0318320838C599F4F9093B502809353
:10048000B402089501968931910541F70895CF92FC
:10049000DF92EF92FF9220E030E06A017B01022EB2
:1004A00004C0F694E794D794C7940A94D2F7FC0159
:1004B000C192CF01285F3F4F2032310571F7FF9085
:1004C000EF90DF90CF9008954F925F926F927F925E
:1004D000AF92BF92CF92DF92EF92FF920F931F9352
:1004E000CF93DF93EC017B018A81FB0180838B81B9
:1004F00081838C8182838D818383DB01179640E029
:1005000050E0BA01E4E0F0E04A805B806C807D80DE
:100510008F010C5F1F4F4415550566057705C0F424
:100520008A859B85E80FF91F3497D08021819281BD
:100530008381FD013397D082319620833196908359
:100540008C93F8014F5F5F4F6F4F7F4F1496DCCF56
:10055000EE0DFF1D8C8580838D8581838E85828342
:100560008F85838380E090E040E050E0BA014C84C6
:100570005D846E847F84F701E00FF11F0C5F1F4FD5
:100580004415550566057705B8F4AC89BD89A80FF3
:10059000B91FCC901196DC90119712963C9112974E
:1005A00013962C91C082D182328323834F5F5F4F99
:1005B0006F4F7F4F0496DBCF8E8980838F89818335
:1005C000888D8283898D8383412C512C32018E89C1
:1005D0009F89A88DB98D481659066A067B0680F555
:1005E0005201AA0CBB1CEC8DFD8DEA0DFB1DA081F8
:1005F000B181FD0101900020E9F731976F01CA1A1E
:10060000DB0AA60160E070E0C701800F911F0E9425
:1006100047020C5F1F4F8C8D9D8DFC01EA0DFB1D69
:1006200060817181A601C701800F911F0E94EF13A5
:100630000C0D1D1DFFEF4F1A5F0A6F0A7F0AC7CF0F
:10064000C801DF91CF911F910F91FF90EF90DF9044
:10065000CF90BF90AF907F906F905F904F90089534
:10066000EF92FF920F931F93CF93DF938C017B0147
:10067000EC018A81FB018193AB81BC81ED01099082
:100680000020E9F72197CA1BDB0BAE0160E070E0A8
:10069000CF010E944702F80163817481AE01C70156
:1006A00005960E94EF13CE010596DF91CF911F9121
:1006B0000F91FF90EF900895CF92DF92EF92FF920B
:1006C0000F931F93CF93DF936C01EB01FC018281A9
:1006D000888383818983A481B581FD0101900020F5
:1006E000E9F731978F010A1B1B0BA80160E070E04E
:1006F000CE0102960E944702F60164817581A8012D
:10070000CE0106960E94EF13C8010696F601A68157
:10071000B781FD0101900020E9F731977F01EA1AC6
:10072000FB0AA70160E070E08C0F9D1F0E9447024A
:10073000065F1F4FF60166817781A701CE01800F0A
:10074000911F0E94EF130E0D1F1DF601A085B185AC
:10075000FD0101900020E9F731977F01EA1AFB0AB9
:10076000A70160E070E0CE01800F911F0E94470258
:100770000C5F1F4FF60160857185A701CE01800FC8
:10078000911F0E94EF13C8018E0D9F1DF601628517
:10079000438534852585C80FD91F688349833A83EB
:1007A0002B830496DF91CF911F910F91FF90EF90D3
:1007B000DF90CF900895CF92DF92EF92FF92FC01ED
:1007C0001082118212821382DB0120E030E04D9111
:1007D00050E0022E02C0440F551F0A94E2F7052E86
:1007E000000C660B770BC080D180E280F3804C292F
:1007F0005D296E297F294083518362837383285F3B
:100800003F4F2032310519F7FF90EF90DF90CF90E6
:1008100008958F929F92AF92BF92CF92DF92EF9204
:10082000FF920F931F93CF93DF9300D000D0CDB7EB
:10083000DEB77C018B01FB018191BF01F70182834F
:10084000CE0101960E94DB0389819A81AB81BC8134
:100850004C015D01F5E08F0E911CA11CB11C6801DB
:1008600025E0C20ED11CA601401B510B60E070E0D8
:10087000481559056A057B0548F4F60141916F0159
:100880009F0122503109F9014083EDCFF801E80FB3
:10089000F91F14820C5F1F4FF70114830383059621
:1008A0000F900F900F900F90DF91CF911F910F91AC
:1008B000FF90EF90DF90CF90BF90AF909F908F9080
:1008C00008954F925F926F927F928F929F92AF9214
:1008D000BF92CF92DF92EF92FF920F931F93CF932D
:1008E000DF93CDB7DEB72C970FB6F894DEBF0FBEFF
:1008F000CDBF7C018B01DB018C9190E0F7019383EC
:10090000828311962C91922B938382836E5F7F4F0B
:10091000CE0109960E94DB0389849A84AB84BC844F
:10092000B501A4014A5F5F4F6F4F7F4FF8013696C4
:10093000CF01801B910BA0E0B0E084179507A607BC
:10094000B70728F48191DF0112978C93F1CFF8015A
:10095000E80DF91D1582C8010596D70115969C93DF
:100960008E931497B4016A5F7F4F600F711FCE01A1
:1009700005960E94DB03BAE08B0E911C4D815E81CF
:100980006F8178852401092C000C66087708440ED5
:10099000551E661E771EF801E80DF91DCF01801B5C
:1009A000910BA0E0B0E084159505A605B70528F4E5
:1009B0008191DF0112978C93F1CF6401C40ED51E93
:1009C000B8016C0D7D1DFB0131971082C4010197A8
:1009D000800F911FF70197838683CE0101960E94B5
:1009E000DB03A6014C5F5F4F49805A806B807C809F
:1009F0004A01052E000CAA08BB08840C951CA61CF5
:100A0000B71CF801E40FF51F9F01201B310BC90132
:100A1000A0E0B0E088159905AA05BB0528F48191EE
:100A2000DF0112978C93F0CFCA01840D951DF80158
:100A3000E80FF91FDF0111971C929A01215031092B
:100A4000020F131FD70119961C930E93189721813B
:100A5000428150E060E070E0BA0155274427522BF4
:100A60002081422B2381722BF701428753876487B1
:100A7000758704962C960FB6F894DEBF0FBECDBFD7
:100A8000DF91CF911F910F91FF90EF90DF90CF906A
:100A9000BF90AF909F908F907F906F905F904F909E
:100AA00008952F923F924F925F926F927F928F9212
:100AB0009F92AF92BF92CF92DF92EF92FF920F93ED
:100AC0001F93CF93DF93CDB7DEB728970FB6F89477
:100AD000DEBF0FBECDBF8C015B01DB018C91119697
:100AE0009C9111971296CC901297D12CE12CF12C5D
:100AF0007601DD24CC24D92AC82A13968C91F82AB1
:100B0000F80182819381A481B5818C159D05AE0584
:100B1000BF0570F4B601660F771F660F771F8285D9
:100B200093850E94780CD8011B969C938E931A97FC
:100B3000F801C282D382E482F582D5011796C12CD6
:100B4000D12C7601F4E08F2E912C98012A5F3F4F33
:100B5000F8014281538164817581C4010496C416F1
:100B6000D506E606F70680F54C9150E060E070E0AF
:100B7000742F662755274427FD013397E0814E2BBC
:100B8000FD013297E0815E2BFD013197E0816E2BF4
:100B9000F80146835783608771874C010897428527
:100BA0005385840F951FF9014081518162817381C2
:100BB000FC014083518362837383FFEFCF1ADF0A06
:100BC000EF0AFF0A1496C4CFF401EA0DFB1D208141
:100BD0003181C280D12CE12CF12C7601DD24CC2492
:100BE000D32AC22A2381F22A4C01F80184859585F3
:100BF000A685B7858C159D05AE05BF0570F4B601B9
:100C0000660F771F660F771F848995890E94780C7D
:100C1000D80155969C938E935497F801C486D58637
:100C2000E686F78620E030E0C12CD12C7601D80191
:100C30005096F8014485558566857785F501E80D60
:100C4000F91DC4010496C416D506E606F70648F554
:100C50009180428150E060E070E0BA01552744275E
:100C6000592990804929E3817E2BF801408B518BD3
:100C7000628B738B4C0184899589FC01E20FF31F11
:100C80004D915D916D917C91139740835183628367
:100C90007383FFEFCF1ADF0AEF0AFF0A2C5F3F4F83
:100CA000C8CF20813181C280D12CE12CF12C76017A
:100CB000DD24CC24D32AC22A2381F22A4C01F80154
:100CC00086899789A08DB18D8C159D05AE05BF05D0
:100CD00060F4B601660F771F848D958D0E94780CA5
:100CE000D8015D969C938E935C97F801C68AD78A4B
:100CF000E08EF18E412C512C32011801FAE12F0EB9
:100D0000311CF80186899789A08DB18D4816590646
:100D10006A067B0608F05AC0B501680D791DCE0140
:100D200001960E94DB0394012C5F3F4FC980DA805B
:100D3000EB80FC80C901032E000CAA0BBB0BAC019D
:100D4000BD014C0D5D1D6E1D7F1D4D835E836F8348
:100D50007887F501E20FF31FAF014A195B09CA0159
:100D6000A0E0B0E04D815E816F81788584179507A2
:100D7000A607B70728F44191DF0112974C93ECCFF7
:100D8000C9018C0D9D1DF501E80FF91F31971082E7
:100D9000215031092A0D3B1DD8015B963C932E93BF
:100DA0005A974C01C201880F991F5C96ED91FC91F6
:100DB0005D97E80FF91FD1018D919C9191838083FC
:100DC000BFEF4B1A5B0A6B0A7B0A9BCFC4012896C4
:100DD0000FB6F894DEBF0FBECDBFDF91CF911F914C
:100DE0000F91FF90EF90DF90CF90BF90AF909F90CA
:100DF0008F907F906F905F904F903F902F900895CD
:100E00000F931F93CF93DF93CDB7DEB72A970FB61B
:100E1000F894DEBF0FBECDBF8C0183E592E09A83CC
:100E200089831B821C821D821E821F82188619865E
:100E30001A86D801ED91FC910190F081E02DAE0170
:100E40004F5F5F4F6AE070E0C80109950E94E60BB2
:100E5000F80160877187828793872A960FB6F89486
:100E6000DEBF0FBECDBFDF91CF911F910F910895CF
:100E70004F925F926F927F92AF92BF92CF92DF922A
:100E8000EF92FF920F931F93CF93DF93CDB7DEB70F
:100E90002E970FB6F894DEBF0FBECDBF8C018FE545
:100EA00092E09A8389831C821B828CE292E09E836B
:100EB0008D8398878F839A8789871B861C861D86DA
:100EC0001E86680180EEC80ED11C7801AEEEEA1ACB
:100ED000AEEFFA0A94E6492E512C612C712CD60102
:100EE000ED91FC913097B9F1848195819C838B833E
:100EF000808191819E838D8382819381DC01ED913C
:100F0000FC910480F581E02D099598878F83D601A7
:100F1000ED91FC9182819381DC01ED91FC91068041
:100F2000F781E02D09959A8789874B865C866D86C7
:100F30007E86F80180819181F601A081B1811896A9
:100F40006D917C911997DC01ED91FC91AE014F5FA1
:100F50005F4FC8010995B2E0CB0ED11CCE14DF045F
:100F600009F0BDCF6801ECEBCE1AEEEFDE0A84E6A5
:100F7000482E512C612C712CF701A081B181109762
:100F8000E1F112968D919C9113979C838B8314961B
:100F90008D919C9115979E838D83ED91FC91119776
:100FA0000480F581E02DCD01099598878F83D701C5
:100FB0008D919C91DC01ED91FC910680F781E02DF3
:100FC00009959A8789874B865C866D867E86D801CF
:100FD000ED91FC91A080B180F70180819181DC01CD
:100FE000ED91FC910280F381E02D0995AE014F5FF8
:100FF0005F4FBC01C801F5010995F2E0EF0EF11C4D
:10100000EC14FD0409F0B8CFF801E25BFE4F81E07B
:1010100080832E960FB6F894DEBF0FBECDBFDF9152
:10102000CF911F910F91FF90EF90DF90CF90BF90E5
:10103000AF907F906F905F904F9008958F929F92A6
:10104000AF92BF92CF92DF92EF92FF920F931F93D6
:10105000CF93DF93CDB7DEB72A970FB6F894DEBFF4
:101060000FBECDBF8C015B0183E592E09A8389833B
:101070001B821C821D821E821F82188619861A8678
:101080000E94E60BF801C084D184E284F3849B01C2
:10109000AC012C193D094E095F0969017A01B501BE
:1010A000CE0101960E94AC0088EE882E83E0982E37
:1010B000A12CB12CC701B601A50194010E942814EE
:1010C000CB80DC80ED80FE80C20ED31EE41EF51EB8
:1010D000CB82DC82ED82FE829B01AC0160E472E493
:1010E0008FE090E00E94F813CF80D884E984FA84DE
:1010F000DC01CB018C0D9D1DAE1DBF1D8F8398871C
:10110000A987BA870E94E60BCB80DC80ED80FE8049
:1011100031E0C31AD108E108F108A50194010E9449
:101120002814C21AD30AE40AF50AF801C486D5863F
:10113000E686F786CF80D884E984FA84F6E3DF1A5E
:10114000F5E6EF0AF4ECFF0A9B01AC0160E472E4FF
:101150008FE090E00E94F813C61AD70AE80AF90A4D
:10116000F801C08AD18AE28AF38AB801605F7F4FB2
:10117000C8010C960E94CA100E94E60BF801ED5AB5
:10118000FE4F60837183828393832A960FB6F8940F
:10119000DEBF0FBECDBFDF91CF911F910F91FF90AA
:1011A000EF90DF90CF90BF90AF909F908F90089579
:1011B0002F923F924F925F926F927F928F929F9267
:1011C000AF92BF92CF92DF92EF92FF920F931F9355
:1011D000CF93DF93CDB7DEB760970FB6F894DEBF3D
:1011E0000FBECDBF988B8F870E94E60B4B015C0131
:1011F0002F8538892D5A3E4F3E832D83F9018081FA
:101200009181A281B381A5019401281B390B4A0B5E
:101210005B0BDA01C901893F9A42A105B10528F0AB
:10122000EF85F889E25BFE4F10820F8518890C5B11
:101230001E4FD8018D919C91892B81F0EF85F88903
:10124000E95AFE4F80819181A281B3818815990569
:10125000AA05BB0518F4F801118210826F84788802
:10126000F4EB6F1AFEEF7F0A2F853889285B3E4F1B
:101270003A832983CF84D88838E1C30ED11C4F85A7
:101280005889425B5E4F58874F832F853889245A8F
:101290003E4F3A8729874F855889455A5E4F5C876C
:1012A0004B87EF84F8885AEBE51A5EEFF50A2F8535
:1012B0003889265B3E4F3C832B834F855889495A9A
:1012C0005E4F5E874D871401250154E1250E311CC8
:1012D000411C511CEF85F88984899589A689B789B5
:1012E000892B8A2B8B2B89F4AF85B88912968D9127
:1012F0009C911397DC01ED91FC910680F781E02D24
:1013000009959C0197FF15C036C10E94E60BDC01D0
:10131000CB0188199909AA09BB09EF85F8892489A5
:10132000358946895789281739074A075B07E0F648
:101330004AC1D3018D919C911197820F931F8D9378
:101340009C93F8014081518147305105D9F4AB811C
:10135000BC818D919C911197AC014F5F5F4F4D9374
:101360005C93EF85F889E80FF91F208FF7018081E2
:101370009181019791838083892B09F0ABCF88E01D
:1013800090E02FC04115510521F52F3F310569F43B
:1013900081E090E0F80191838083AD85BE852D9238
:1013A0003D924D925C92139795CF0E94E60BDC0123
:1013B000CB0188199909AA09BB0989389341A1056C
:1013C000B10508F487CFEF85F889E25BFE4F108204
:1013D000FAC041305105B1F42E3F310531F482E0BD
:1013E00090E0D8018D939C9375CFF8011182108203
:1013F000AF81B8858C9181116DCF8F8598890E94BE
:10140000000768CF4230510569F4F701318320832A
:10141000AB81BC811D921C9283E090E0F801918326
:1014200080832EC04330510561F4322F2227F7010B
:1014300080819181280F391F3183208384E090E0DF
:10144000D0CF4430510581F460E071E00E94141463
:101450008F3F910531F485E090E0F801918380831E
:1014600039CF1182108236CF4530510569F4E981B8
:10147000FA8131832083E6E0F0E0D801ED93FC931C
:10148000D3012D933C9326CF4630510599F4322F4A
:101490002227E981FA8180819181280F391F3183C8
:1014A0002083E7E0F0E0D801ED93FC93D7018D9124
:1014B0009C9162CF4830510509F00CCFF8011182A0
:1014C000108260E071E00E9414148F3F910509F0D2
:1014D00001CFA981BA818D919C910097C9F48F8524
:1014E00098890E9400078F8598890E943807EF85A8
:1014F000F889E15BFE4F80829182A282B382ED8106
:10150000FE8180829182A282B3828FEF9FEF60C0C2
:101510008A30910531F4B6018F8598890E941E08A2
:10152000D9CE8630910551F4B60189859A850E94FD
:10153000510581E0AB85BC858C93CCCE8B30910579
:1015400021F4EF81F8851082C5CEFC01B596EE0F2F
:10155000FF1F2F853889E20FF31F8081918100974B
:1015600009F4B8CEDC01ED91FC910190F081E02D01
:10157000B6010995AFCEEF85F889E25BFE4F808119
:10158000882321F10F851889015B1E4FF8018081A6
:101590009181A281B381A5019401281B390B4A0BCB
:1015A0005B0BDA01C901853C9940A105B10570F0DA
:1015B0008F8598890E940007D8018D929D92AD92E7
:1015C000BC92139703C08EEF9FEF02C080E090E0C3
:1015D00060960FB6F894DEBF0FBECDBFDF91CF91FE
:1015E0001F910F91FF90EF90DF90CF90BF90AF9041
:1015F0009F908F907F906F905F904F903F902F9033
:10160000089580EC92E00E94D80861E070E080E0EC
:1016100090E00C94170C8AE394E00E9476108FE817
:1016200092E09093C1028093C00280E594E0909391
:10163000C3028093C20280E091EEA0E0B0E080930C
:10164000C4029093C502A093C602B093C702109241
:101650000E0487E792E090931D0480931C0410927F
:101660001E0410921F041092200410922104109264
:101670002704109226041092280410922904109234
:101680002A0410922B04109231041092300410920C
:1016900032041092330410923404109235041092E4
:1016A000390410923804E0EAF3E01192119283E0D9
:1016B000E23DF807D1F7E2EDF3E01192119284E0F8
:1016C000E430F807D1F7E8EDF2E0119283E0EC3373
:1016D000F807D9F7ECE3F3E0119283E0E03AF8077A
:1016E000D9F71092D4021092D5021092D60210921D
:1016F000D70289E992E09093B3028093B20283E823
:1017000092E09093B9028093B8021092BB021092BB
:10171000BA028AE491E09093BD028093BC0281E01A
:1017200090E09093BF028093BE028DE292E090938E
:10173000B7028093B60208951F920F920FB60F92D0
:1017400011242F933F938F939F93AF93BF938091D7
:10175000480490914904A0914A04B0914B043091FF
:10176000470423E0230F2D3720F40196A11DB11D5E
:1017700005C026E8230F0296A11DB11D2093470442
:101780008093480490934904A0934A04B0934B0477
:1017900080914C0490914D04A0914E04B0914F045F
:1017A0000196A11DB11D80934C0490934D04A0930C
:1017B0004E04B0934F04BF91AF919F918F913F9191
:1017C0002F910F900FBE0F901F9018952FB7F89480
:1017D000609148047091490480914A0490914B04AF
:1017E0002FBF08953FB7F89480914C0490914D0419
:1017F000A0914E04B0914F0426B5A89B05C02F3F81
:1018000019F00196A11DB11D3FBFBA2FA92F982F26
:101810008827820F911DA11DB11DBC01CD0142E0A1
:10182000660F771F881F991F4A95D1F70895CF92A9
:10183000DF92EF92FF92CF93DF936B017C010E94C6
:10184000F20BEB01C114D104E104F10479F00E9420
:10185000F20B6C1B7D0B683E7340A0F381E0C81A4D
:10186000D108E108F108C851DC4FECCFDF91CF91EE
:10187000FF90EF90DF90CF900895789484B58260C8
:1018800084BD84B5816084BD85B5826085BD85B524
:10189000816085BDEEE6F0E0808181608083E1E8D3
:1018A000F0E010828081826080838081816080830B
:1018B000E0E8F0E0808181608083E1EBF0E080810E
:1018C00084608083E0EBF0E0808181608083EAE7E0
:1018D000F0E0808184608083808182608083808169
:1018E000816080838081806880831092C100089528
:1018F0006F927F928F929F92AF92BF92CF92DF9220
:10190000EF92FF920F931F93CF93DF93EC01009719
:1019100089F4CB01DF91CF911F910F91FF90EF9050
:10192000DF90CF90BF90AF909F908F907F906F90FF
:101930000C94610DFC01E60FF71F9C012250310948
:10194000E217F30708F4ACC0D9010D911C9111976F
:1019500006171707B0F00530110508F49FC0C8013D
:1019600004978617970708F499C002501109061BBF
:10197000170B019311936D937C93CF010E94F60D89
:101980008DC05B01A01AB10A4C01800E911EA0917E
:101990002205B091230540E050E0E12CF12C109796
:1019A00009F44AC0A815B905D1F56D907C9011973E
:1019B000630182E0C80ED11CCA14DB0480F1A301CC
:1019C0004A195B096A0182E0C80ED11C1296BC90CC
:1019D00012971396AC91B5E0CB16D10440F0B282C9
:1019E000A38351834083D9016D937C930AC00E5F1A
:1019F0001F4FC301800F911FF90191838083EB2D4D
:101A0000FA2FE114F10431F0D7011396FC93EE9311
:101A1000129744C0F0932305E09322053FC08D91B7
:101A20009C9111974817590708F4AC017D01129653
:101A30000D90BC91A02DB3CF8091200590912105F0
:101A400088159905E1F446175707C8F480910001FD
:101A500090910101009741F48DB79EB74091040128
:101A600050910501841B950BE817F907C8F4F09312
:101A70002105E0932005F901718360830FC0CB013C
:101A80000E94610D7C01009759F0A801BE010E94DF
:101A9000EF13CE010E94F60DC70104C0CE0102C0B3
:101AA00080E090E0DF91CF911F910F91FF90EF9038
:101AB000DF90CF90BF90AF909F908F907F906F906E
:101AC0000895CF93DF938230910510F482E090E087
:101AD000E0912205F091230520E030E0C0E0D0E065
:101AE000309711F14081518148175907C0F04817CC
:101AF000590761F482819381209719F09B838A832F
:101B00002BC0909323058093220526C02115310513
:101B100019F04217530718F49A01BE01DF01EF01D3
:101B20000280F381E02DDCCF2115310509F1281B5E
:101B3000390B2430310590F412968D919C911397B6
:101B40006115710521F0FB019383828304C090939A
:101B5000230580932205FD01329644C0FD01E20F6A
:101B6000F31F81939193225031092D933C933AC0F6
:101B70002091200530912105232B41F42091020171
:101B8000309103013093210520932005209100011D
:101B9000309101012115310541F42DB73EB7409137
:101BA000040150910501241B350BE0912005F091B3
:101BB0002105E217F307A0F42E1B3F0B2817390766
:101BC00078F0AC014E5F5F4F2417350748F04E0F99
:101BD0005F1F50932105409320058193919302C08C
:101BE000E0E0F0E0CF01DF91CF9108950F931F93D4
:101BF000CF93DF93009709F48CC0FC0132971382D6
:101C0000128200912205109123050115110581F41E
:101C100020813181820F931F209120053091210571
:101C20002817390779F5F0932105E093200571C055
:101C3000D80140E050E0AE17BF0750F412962D9146
:101C40003C911397AD012115310509F1D901F3CF6D
:101C50009D01DA013383228360817181860F971F92
:101C60008217930769F4EC0128813981260F371F09
:101C70002E5F3F4F318320838A819B8193838283B0
:101C8000452B29F4F0932305E093220542C01396D7
:101C9000FC93EE931297ED01499159919E01240F07
:101CA000351FE217F30771F480819181840F951F2E
:101CB000029611969C938E938281938113969C93A6
:101CC0008E931297E0E0F0E0D80112968D919C91EE
:101CD0001397009719F0F8018C01F6CF8D919C9124
:101CE00098012E5F3F4F820F931F20912005309166
:101CF00021052817390769F4309729F41092230534
:101D00001092220502C013821282109321050093C3
:101D10002005DF91CF911F910F9108950E943D0CF6
:101D20000E94F401CFE6DFE00E94010B2097E1F36F
:101D30000E946F0FF9CFFC0124853585F901E05C25
:101D4000FF4F80819181329620813181821B930BDC
:101D50008F7399270895DC011C96ED91FC911D97D6
:101D6000DF01A05CBF4F2D913C91119712968D9190
:101D70009C9111972817390739F08D919C91E80FA4
:101D8000F91F808190E008958FEF9FEF0895FC0187
:101D9000A485B585FD01E05CFF4F2081318132963D
:101DA000808191812817390779F080819181A80F6E
:101DB000B91F8C91208131812F5F3F4F2F733327C3
:101DC0003183208390E008958FEF9FEF0895FC0109
:101DD00081A1882329F0A489B5898C9186FFFBCF46
:101DE00011A208950F931F93CF93DF93FC01A68553
:101DF000B7858D01005C1F4FE801888199810196AC
:101E00008F739927AD014E5B5F4FEA0128813981BD
:101E100082179307D1F3E80128813981A20FB31FFC
:101E20006C93A685B785A05CBF4F11969C938E934B
:101E3000A689B7892C9181E090E0078C02C0880FB9
:101E4000991F0A94E2F7822B8C9381E081A3048886
:101E5000F589E02D80818064808381E090E0DF91CE
:101E6000CF911F910F91089508951F920F920FB671
:101E70000F9211242F934F935F938F939F93EF9320
:101E8000FF938091C00082FD1CC02091C60080910C
:101E9000F6049091F70401968F7399274091F80406
:101EA0005091F9048417950771F0E091F604F091D0
:101EB000F704EA54FB4F20839093F7048093F604D1
:101EC00002C08091C600FF91EF919F918F915F9129
:101ED0004F912F910F900FBE0F901F90189580E596
:101EE00094E00E949B0E892B11F00C94340F0895FE
:101EF0001F920F920FB60F9211242F933F938F933F
:101F00009F93EF93FF932091B2043091B30480919B
:101F1000B4049091B5042817390731F48091C100B9
:101F20008F7D8093C10014C0E091B404F091B5049A
:101F3000EE58FB4F20818091B4049091B504019636
:101F40008F7399279093B5048093B4042093C600AF
:101F5000FF91EF919F918F913F912F910F900FBE25
:101F60000F901F901895CF92DF92EF92FF920F93F0
:101F70001F93CF93DF93EC016A017B014115514E12
:101F80006105710509F1EC89FD8981E090E008A007
:101F900002C0880F991F0A94E2F7808360E079E01D
:101FA0008DE390E0A70196010E94281489019A010F
:101FB0000150110921093109369527951795079583
:101FC000980101151041A8F0EC89FD89108260E8A4
:101FD00074E88EE190E0A70196010E942814DA01CE
:101FE000C9010197A109B109B695A795979587955C
:101FF0009C01E889F9893083EA89FB89208319A249
:10200000EE89FF89408181E090E09C010C8C02C048
:10201000220F331F0A94E2F7242B2083EE89FF89D5
:1020200040819C010D8C02C0220F331F0A94E2F7FD
:10203000242B2083EE89FF8940819C010E8C02C0F5
:10204000220F331F0A94E2F7242B2083EE89FF89A5
:1020500020810F8C02C0880F991F0A94E2F78095A7
:1020600082238083DF91CF911F910F91FF90EF909A
:10207000DF90CF900895E0E5F4E01382128288EEBD
:1020800093E0A0E0B0E084839583A683B78385EADC
:1020900092E09183808386EB94E09587848782E742
:1020A00094E09787868785EC90E0918B808B84EC19
:1020B00090E0938B828B80EC90E0958B848B81EC0D
:1020C00090E0978B868B82EC90E0918F808F86ECEE
:1020D00090E0938F828F84E0848F83E0858F87E008
:1020E000868F85E0878F81E080A30895CF93DF936B
:1020F000EC010A960E94E1111F821E828AE590E09F
:102100009B838A831982188284EB90E09D838C8361
:10211000DF91CF9108950F931F93CF93DF936115B4
:10212000710541F0EB018C010A960E947F12F801C3
:10213000D783C683DF91CF911F910F910895FC0142
:102140005383428371836083358324830895FC0124
:10215000628173810A960C94BA12FC012681378140
:10216000232BB1F06115710519F40E94A7100EC060
:10217000FC012281338144815581620F731F461710
:1021800057070CF4BA010A960E94BA1281E008952A
:1021900080E00895CF92DF92EF92FF920F931F930A
:1021A000CF93DF938C01EB01688179818A819B81D8
:1021B00020E03AEC4AE95BE30E942814F801C08071
:1021C000D180E280F380C20ED31EE41EF51EC082D1
:1021D000D182E282F382688379838A839B83DF9151
:1021E000CF911F910F91FF90EF90DF90CF900895C6
:1021F000CF92DF92EF92FF920F931F93CF93DF93D3
:102200006C01EB017B01E40EF51E00E010E0CE1541
:10221000DF0561F06991D601ED91FC910190F081AB
:10222000E02DC6010995080F191FF1CFC801DF91F4
:10223000CF911F910F91FF90EF90DF90CF90089575
:102240001F920F920FB60F9211242F933F934F932B
:102250005F936F937F938F939F93AF93BF93EF930E
:10226000FF938091FB0487FF05C0109285001092B8
:1022700084001BC02091FB04022E000C330B8091C4
:10228000FA0490E02817390784F48091FB04082EA3
:10229000000C990BFC01EE0FFF1F8E0F9F1FFC011E
:1022A000E450FB4F808186FD15C08091FB048F5F59
:1022B0008093FB042091FB04022E000C330B8091D1
:1022C000FA0490E028173907C4F48091FB048C309D
:1022D00064F113C08091FB04082E000C990BFC01E3
:1022E000EE0FFF1F8E0F9F1FFC01E450FB4F8081FC
:1022F00060E08F730E947B13D8CF8091840090910F
:102300008500049680349C4918F480E49CE905C05B
:102310008091840090918500049690938900809329
:1023200088008FEF8093FB043BC0209184003091A4
:1023300085008091FB04082E000C990BFC01EE0F28
:10234000FF1F8E0F9F1FFC01E450FB4F8181928184
:10235000820F931F90938900809388008091FB04E3
:10236000082E000C990BFC01EE0FFF1F8E0F9F1F14
:10237000FC01E450FB4F808186FF12C08091FB047A
:10238000082E000C990BFC01EE0FFF1F8E0F9F1FF4
:10239000FC01E450FB4F808161E08F730E947B134E
:1023A000FF91EF91BF91AF919F918F917F916F912D
:1023B0005F914F913F912F910F900FBE0F901F9003
:1023C0001895FC019091FA049C30A0F481E0890FEB
:1023D0008093FA049083892F90E0FC01EE0FFF1F99
:1023E0008E0F9F1FFC01E450FB4F88EB9BE0928314
:1023F000818308958FEF80830895DF92EF92FF929B
:102400000F931F93CF93DF93EC01D62E7A018901AE
:1024100088818C3008F06AC061E08D2D0E943F13E6
:102420008881E82FF0E09F01220F331FE20FF31F96
:10243000E450FB4F9D2D9F732081207CD22ED92A02
:10244000D08260E272E0AB014E195F0957FF02C013
:102450004D5F5F4F5595479555954795498340E6A4
:1024600059E09A01201B310B37FF02C02D5F3F4F0F
:1024700035952795359527952A836CE00E94081499
:102480009CE0899FB001112440E050E09A01260FA2
:10249000371FF901EE0FFF1F2E0F3F1FF901E45008
:1024A000FB4F908196FD16C04F5F5F4F4C3051053A
:1024B00069F781110FC01092800082E08093810043
:1024C0001092850010928400B19A80916F00826012
:1024D00080936F00E881F0E0CF01880F991FE80F2B
:1024E000F91FE450FB4F8081806480838881DF91F5
:1024F000CF911F910F91FF90EF90DF90089520E60C
:1025000039E040E252E00C94FD11FC0190819C30D6
:1025100080F5818128E830E0281B310987FD33955B
:10252000220F331F220F331F621773077CF0828143
:1025300028E532E0281B310987FD3395220F331F30
:10254000220F331F621773070CF49B014FB7F894E7
:10255000892F90E0FC01EE0FFF1F8E0F9F1FFC01E3
:10256000E450FB4F22503109220F331F3283218365
:102570004FBF0895AF92BF92CF92DF92EF92FF923A
:102580000F931F93CF93DF93EC01603282E07807C3
:102590000CF03FC077FD06C0653B71052CF064EB85
:1025A00070E002C060E070E0898128E830E0590105
:1025B000A81AB10887FDB394AA0CBB1CAA0CBB1CBB
:1025C0000B2C000CCC08DD08072E000C880B990B97
:1025D0002A8108E512E0021B110927FD1395000F5F
:1025E000111F000F111F012E000C220B330B3F9304
:1025F0002F931F930F9314EBE12EF12C00E010E0CA
:1026000020E030E0A9010E94AB130F900F900F90D3
:102610000F90CE01DF91CF911F910F91FF90EF901E
:10262000DF90CF90BF90AF900C948512833081F0F3
:1026300028F4813099F08230A1F008958630A9F015
:102640008730B9F08430D1F4809180008F7D03C051
:10265000809180008F7780938000089584B58F7774
:1026600002C084B58F7D84BD08958091B0008F77BE
:1026700003C08091B0008F7D8093B0000895CF9308
:10268000DF9390E0FC01E458FF4F2491FC01E057F8
:10269000FF4F8491882361F190E0880F991FFC011E
:1026A000E255FF4FC591D491FC01EC55FF4FA59128
:1026B000B491611109C09FB7F89488812095822355
:1026C0008883EC912E230BC0623061F49FB7F8949D
:1026D0003881822F809583238883EC912E2B2C9335
:1026E0009FBF06C08FB7F894E8812E2B28838FBF39
:1026F000DF91CF9108951F93CF93DF93282F30E080
:10270000F901E859FF4F8491F901E458FF4FD49142
:10271000F901E057FF4FC491CC23C9F0162F811166
:102720000E941613EC2FF0E0EE0FFF1FEC55FF4F49
:10273000A591B4918FB7F894111105C09C91ED2F1C
:10274000E095E92302C0EC91ED2BEC938FBFDF9174
:10275000CF911F9108954F925F926F927F92AF92A7
:10276000BF92CF92DF92EF92FF920F931F93CF937E
:10277000DF93CDB7DEB729013A019B01AC012419E3
:1027800035094609570989899A89AB89BC89BC01F1
:10279000CD016A197B098C099D090E94F813A801D3
:1027A000970124193509460957090E944A14CA019C
:1027B000B9016A0D7B1D8C1D9D1DDF91CF911F916D
:1027C0000F91FF90EF90DF90CF90BF90AF907F90F0
:1027D0006F905F904F900895F8940C949D14FB01B6
:1027E000DC0102C001900D9241505040D8F708958D
:1027F000DB018F939F930E946914BF91AF91A29FB9
:10280000800D911DA39F900DB29F900D11240895EE
:10281000991B79E004C0991F961708F0961B881F32
:102820007A95C9F78095089597FB072E16F40094C2
:1028300007D077FD09D00E94741407FC05D03EF440
:10284000909581959F4F0895709561957F4F08955C
:10285000A1E21A2EAA1BBB1BFD010DC0AA1FBB1FA4
:10286000EE1FFF1FA217B307E407F50720F0A21B16
:10287000B30BE40BF50B661F771F881F991F1A9483
:1028800069F760957095809590959B01AC01BD01AD
:10289000CF010895052E97FB1EF400940E94611449
:1028A00057FD07D00E94281407FC03D04EF40C9467
:1028B000611450954095309521953F4F4F4F5F4F94
:1028C000089590958095709561957F4F8F4F9F4F9C
:1028D00008950E948E14A59F900DB49F900DA49F03
:1028E000800D911D11240895AA1BBB1B51E107C047
:1028F000AA1FBB1FA617B70710F0A61BB70B881F90
:10290000991F5A95A9F780959095BC01CD0108951E
:10291000EE0FFF1F0590F491E02D0994A29FB001E6
:10292000B39FC001A39F700D811D1124911DB29F03
:0E293000700D811D1124911D0895F894FFCFA4
:10293E000000240580007374645F6D7367732F54F9
:10294E00696D650063643731363663373463353508
:10295E003263333131666263633266653561376285
:10296E006332383900726F7373657269616C5F6DB3
:10297E007367732F546F706963496E666F003061B1
:10298E0064353166383866633434383932663863C4
:10299E0031303638343037373634363030350072E1
:1029AE006F7373657269616C5F6D7367732F4C6FB4
:1029BE006700313161626437333163323539333315
:1029CE0032363163643631383362643132643632D2
:1029DE0039350039663065393862646136353938D3
:1029EE003139383664646635336166613761343047
:1029FE00653439007374645F6D7367732F496E7439
:102A0E0031360038353234353836653334666264E3
:102A1E0037636231633038633566356631636130F2
:102A2E00653537004D6573736167652066726F6D2E
:102A3E00206465766963652064726F707065643AB0
:102A4E00206D657373616765206C617267657220B6
:102A5E007468616E206275666665722E00736572AB
:102A6E00766F00726F7373657269616C5F6D7367F9
:102A7E00732F52657175657374506172616D0000CC
:102A8E000000008800AC00F200F500000000005CC1
:102A9E00036104F800FB000000000030030904FE8F
:102AAE00000101000000006402510504010701004D
:102ABE000000000A01130120012301000000005153
:102ACE0001D80845010000000026013B013F0142EC
:102ADE000100000000F20EF8109B0EC70EAB0EE7C1
:022AEE000E00D8
:00000001FF
