:100000000C949B000C94C3000C94C3000C94C3008C
:100010000C94C3000C94C3000C94C3000C94C30054
:100020000C94C3000C94C3000C94C3000C94C30044
:100030000C94C3000C94C3000C94C3000C94C30034
:100040000C94990C0C94C3000C9432100C94751001
:100050000C94C3000C94C3000C94C3000C94C30014
:100060000C94641D0C94C30007634236B79BD8A759
:100070001A39685618AEBAAB558C1D3CB7CC5763CD
:10008000BD6DEDFD753EF6177231BF000000803F7B
:1000900008000000BE922449123EABAAAA2ABECD97
:1000A000CCCC4C3E00000080BEABAAAAAA3E000009
:1000B0000000BF000000803F000000000008417801
:1000C000D3BB4387D1133D190E3CC3BD4282AD2B38
:1000D0003E68EC8276BED98FE1A93E4C80EFFFBE30
:1000E00001C4FF7F3F000000000000000007000285
:1000F00001000003040600000000000000000102EF
:1001000004081020408001020408102001020408A5
:100110001020040404040404040402020202020283
:1001200003030303030300000000250028002B0045
:10013000F50B3811831C11241FBECFEFD8E0DEBFB2
:10014000CDBF13E0A0E0B1E0EAE0FAE402C0059020
:100150000D92A238B107D9F726E0A2E8B3E001C0BA
:100160001D92A43BB207E1F710E0CBE9D0E004C058
:100170002197FE010E94EE24C839D107C9F70E94D9
:100180008B0F0C94EA1E0C940000DC01FB0112960C
:100190008C911297808313968C9113978183149678
:1001A0008C911497828315968C911597838316965C
:1001B0008C911697848317968C9117978583189640
:1001C0008C911897868319968C91878388E090E0AC
:1001D0000895FC01DB014C9150E060E070E0428347
:1001E00053836483758311968C911197582B4283A6
:1001F00053836483758312968C911297682B428384
:1002000053836483758313968C911397782B428361
:1002100053836483758314964C91149750E060E087
:1002200070E0468357836087718715968C91159788
:10023000582B468357836087718716968C91169743
:10024000682B468357836087718717968C91782B2C
:10025000468357836087718788E090E0089586E041
:1002600091E0089584E191E0089585E391E0089597
:100270008EE491E008958FE691E0089582E891E0A0
:1002800008958EE392E0089583EA91E00895DC01F9
:10029000FB0112963C91129713962C91139714968A
:1002A0009C91149715968C91159730832183928396
:1002B000838316963C91169717962C91179718964C
:1002C0009C91189719968C9119973483258396835E
:1002D00087831A963C911A971B962C911B971C9614
:1002E0009C911C971D968C911D9730872187928732
:1002F00083871E963C911E971F962C911F975096B0
:100300009C91509751968C91348725879687878743
:1003100080E190E00895DC01FB018181428150E0A1
:1003200060E070E0BA0155274427582B8081482BA4
:100330008381782B12964D935D936D937C931597E3
:100340008581468150E060E070E0BA01552744277E
:10035000582B8481482B8781782B16964D935D937B
:100360006D937C9319978185428550E060E070E041
:10037000BA0155274427582B8085482B8385782B35
:100380001A964D935D936D937C931D978585468555
:1003900050E060E070E0BA0155274427582B84856F
:1003A000482B8785782B1E964D935D936D937C9398
:1003B000519780E190E0089584EC91E008958AEDF2
:1003C00091E00895FC01E25BFE4F80810895AF92B9
:1003D000BF92CF92DF92EF92FF920F931F93CF9332
:1003E000DF9300D000D01F92CDB7DEB78C016B0138
:1003F000643671053CF0FC01E25BFE4F808188238E
:1004000009F476C0DA01ED91FC910190F081E02DC4
:10041000B8016D577F4FCA0109957801BCE7EB0E13
:10042000F11C2FEFF70120832EEF319620833196B8
:100430008083319690833196292F280F2095208331
:100440003196C082D801AE57BF4FDC9245E050E0F4
:1004500020E030E0BC016A5F7F4F6417750734F01D
:10046000A1912A0F311D4F5F5F4FF7CF6C01F8E06C
:10047000CF0ED11C800F911FFC01ED57FF4F20952F
:10048000208325E6C216D104CCF45701C5018E198C
:100490009F098C159D0584F4D80112968D919C912D
:1004A0001397F50161915F01DC01ED91FC910190E1
:1004B000F081E02D0995EACFC6011CC086E792E0E5
:1004C0009A83898383E08B838BEF91E09D838C8378
:1004D000D801ED91FC910190F081E02DAE014F5FCC
:1004E0005F4F67E070E0C80109958FEF9FEF02C092
:1004F00080E090E00F900F900F900F900F90DF91A1
:10050000CF911F910F91FF90EF90DF90CF90BF9010
:10051000AF90089540E052EC61E070E086E495E031
:100520000E94B01082E893E00E9401184091C70336
:100530005091C8036091C9037091CA038091C503AB
:100540009091C6030E94B010109208051092070502
:1005500010920A051092090510920E0510920D05D1
:1005600010920C0510920B05E3EAF4E080E090E0B5
:1005700021913191232BB1F4FC01EE0FFF1FED55BA
:10058000FB4F27EA33E03183208383589F4F9093BA
:10059000AC038093AB0383EC93E09093AE03809322
:1005A000AD03089501968931910511F70895CF9211
:1005B000DF92EF92FF9220E030E06A017B01022E91
:1005C00004C0F694E794D794C7940A94D2F7FC0138
:1005D000C192CF01285F3F4F2032310571F7FF9064
:1005E000EF90DF90CF9008954F925F926F927F923D
:1005F000AF92BF92CF92DF92EF92FF920F931F9331
:10060000CF93DF93EC017B018A81FB0180838B8197
:1006100081838C8182838D818383DB01179640E007
:1006200050E0BA01E4E0F0E04A805B806C807D80BD
:100630008F010C5F1F4F4415550566057705C0F403
:100640008A859B85E80FF91F3497D080218192819C
:100650008381FD013397D082319620833196908338
:100660008C93F8014F5F5F4F6F4F7F4F1496DCCF35
:10067000EE0DFF1D8C8580838D8581838E85828321
:100680008F85838380E090E040E050E0BA014C84A5
:100690005D846E847F84F701E00FF11F0C5F1F4FB4
:1006A0004415550566057705B8F4AC89BD89A80FD2
:1006B000B91FCC901196DC90119712963C9112972D
:1006C00013962C91C082D182328323834F5F5F4F78
:1006D0006F4F7F4F0496DBCF8E8980838F89818314
:1006E000888D8283898D8383412C512C32018E89A0
:1006F0009F89A88DB98D481659066A067B0680F534
:100700005201AA0CBB1CEC8DFD8DEA0DFB1DA081D6
:10071000B181FD0101900020E9F731976F01CA1AFC
:10072000DB0AA60160E070E0C701800F911F0E9404
:10073000D7020C5F1F4F8C8D9D8DFC01EA0DFB1DB8
:1007400060817181A601C701800F911F0E94ED1E7B
:100750000C0D1D1DFFEF4F1A5F0A6F0A7F0AC7CFEE
:10076000C801DF91CF911F910F91FF90EF90DF9023
:10077000CF90BF90AF907F906F905F904F90089513
:10078000EF92FF920F931F93CF93DF938C017B0126
:10079000EC018A81FB018193AB81BC81ED01099061
:1007A0000020E9F72197CA1BDB0BAE0160E070E087
:1007B000CF010E94D702F80163817481AE01C701A5
:1007C00005960E94ED1ECE010596DF91CF911F91F7
:1007D0000F91FF90EF900895CF92DF92EF92FF92EA
:1007E0000F931F93CF93DF936C01EB01FC01828188
:1007F000888383818983A481B581FD0101900020D4
:10080000E9F731978F010A1B1B0BA80160E070E02C
:10081000CE0102960E94D702F60164817581A8017B
:10082000CE0106960E94ED1EC8010696F601A6812D
:10083000B781FD0101900020E9F731977F01EA1AA5
:10084000FB0AA70160E070E08C0F9D1F0E94D70299
:10085000065F1F4FF60166817781A701CE01800FE9
:10086000911F0E94ED1E0E0D1F1DF601A085B18582
:10087000FD0101900020E9F731977F01EA1AFB0A98
:10088000A70160E070E0CE01800F911F0E94D702A7
:100890000C5F1F4FF60160857185A701CE01800FA7
:1008A000911F0E94ED1EC8018E0D9F1DF6016285ED
:1008B000438534852585C80FD91F688349833A83CA
:1008C0002B830496DF91CF911F910F91FF90EF90B2
:1008D000DF90CF900895CF92DF92EF92FF92FC01CC
:1008E0001082118212821382DB0120E030E04D91F0
:1008F00050E0022E02C0440F551F0A94E2F7052E65
:10090000000C660B770BC080D180E280F3804C290D
:100910005D296E297F294083518362837383285F19
:100920003F4F2032310519F7FF90EF90DF90CF90C5
:1009300008958F929F92AF92BF92CF92DF92EF92E3
:10094000FF920F931F93CF93DF9300D000D0CDB7CA
:10095000DEB77C018B01FB018191BF01F70182832E
:10096000CE0101960E946B0489819A81AB81BC8182
:100970004C015D01F5E08F0E911CA11CB11C6801BA
:1009800025E0C20ED11CA601401B510B60E070E0B7
:10099000481559056A057B0548F4F60141916F0138
:1009A0009F0122503109F9014083EDCFF801E80F92
:1009B000F91F14820C5F1F4FF70114830383059600
:1009C0000F900F900F900F90DF91CF911F910F918B
:1009D000FF90EF90DF90CF90BF90AF909F908F905F
:1009E00008954F925F926F927F928F929F92AF92F3
:1009F000BF92CF92DF92EF92FF920F931F93CF930C
:100A0000DF93CDB7DEB72C970FB6F894DEBF0FBEDD
:100A1000CDBF7C018B01DB018C9190E0F7019383CA
:100A2000828311962C91922B938382836E5F7F4FEA
:100A3000CE0109960E946B0489849A84AB84BC849D
:100A4000B501A4014A5F5F4F6F4F7F4FF8013696A3
:100A5000CF01801B910BA0E0B0E084179507A6079B
:100A6000B70728F48191DF0112978C93F1CFF80139
:100A7000E80DF91D1582C8010596D70115969C93BE
:100A80008E931497B4016A5F7F4F600F711FCE0180
:100A900005960E946B04BAE08B0E911C4D815E811D
:100AA0006F8178852401092C000C66087708440EB4
:100AB000551E661E771EF801E80DF91DCF01801B3B
:100AC000910BA0E0B0E084159505A605B70528F4C4
:100AD0008191DF0112978C93F1CF6401C40ED51E72
:100AE000B8016C0D7D1DFB0131971082C401019787
:100AF000800F911FF70197838683CE0101960E9494
:100B00006B04A6014C5F5F4F49805A806B807C80EC
:100B10004A01052E000CAA08BB08840C951CA61CD3
:100B2000B71CF801E40FF51F9F01201B310BC90111
:100B3000A0E0B0E088159905AA05BB0528F48191CD
:100B4000DF0112978C93F0CFCA01840D951DF80137
:100B5000E80FF91FDF0111971C929A01215031090A
:100B6000020F131FD70119961C930E93189721811A
:100B7000428150E060E070E0BA0155274427522BD3
:100B80002081422B2381722BF70142875387648790
:100B9000758704962C960FB6F894DEBF0FBECDBFB6
:100BA000DF91CF911F910F91FF90EF90DF90CF9049
:100BB000BF90AF909F908F907F906F905F904F907D
:100BC00008952F923F924F925F926F927F928F92F1
:100BD0009F92AF92BF92CF92DF92EF92FF920F93CC
:100BE0001F93CF93DF93CDB7DEB728970FB6F89456
:100BF000DEBF0FBECDBF8C015B01DB018C91119676
:100C00009C9111971296CC901297D12CE12CF12C3B
:100C10007601DD24CC24D92AC82A13968C91F82A8F
:100C2000F80182819381A481B5818C159D05AE0563
:100C3000BF0570F4B601660F771F660F771F8285B8
:100C400093850E94750DD8011B969C938E931A97DD
:100C5000F801C282D382E482F582D5011796C12CB5
:100C6000D12C7601F4E08F2E912C98012A5F3F4F12
:100C7000F8014281538164817581C4010496C416D0
:100C8000D506E606F70680F54C9150E060E070E08E
:100C9000742F662755274427FD013397E0814E2B9B
:100CA000FD013297E0815E2BFD013197E0816E2BD3
:100CB000F80146835783608771874C010897428506
:100CC0005385840F951FF9014081518162817381A1
:100CD000FC014083518362837383FFEFCF1ADF0AE5
:100CE000EF0AFF0A1496C4CFF401EA0DFB1D208120
:100CF0003181C280D12CE12CF12C7601DD24CC2471
:100D0000D32AC22A2381F22A4C01F80184859585D1
:100D1000A685B7858C159D05AE05BF0570F4B60197
:100D2000660F771F660F771F848995890E94750D5E
:100D3000D80155969C938E935497F801C486D58616
:100D4000E686F78620E030E0C12CD12C7601D80170
:100D50005096F8014485558566857785F501E80D3F
:100D6000F91DC4010496C416D506E606F70648F533
:100D70009180428150E060E070E0BA01552744273D
:100D8000592990804929E3817E2BF801408B518BB2
:100D9000628B738B4C0184899589FC01E20FF31FF0
:100DA0004D915D916D917C91139740835183628346
:100DB0007383FFEFCF1ADF0AEF0AFF0A2C5F3F4F62
:100DC000C8CF20813181C280D12CE12CF12C760159
:100DD000DD24CC24D32AC22A2381F22A4C01F80133
:100DE00086899789A08DB18D8C159D05AE05BF05AF
:100DF00060F4B601660F771F848D958D0E94750D86
:100E0000D8015D969C938E935C97F801C68AD78A29
:100E1000E08EF18E412C512C32011801FAE12F0E97
:100E2000311CF80186899789A08DB18D4816590625
:100E30006A067B0608F05AC0B501680D791DCE011F
:100E400001960E946B0494012C5F3F4FC980DA80A9
:100E5000EB80FC80C901032E000CAA0BBB0BAC017C
:100E6000BD014C0D5D1D6E1D7F1D4D835E836F8327
:100E70007887F501E20FF31FAF014A195B09CA0138
:100E8000A0E0B0E04D815E816F8178858417950781
:100E9000A607B70728F44191DF0112974C93ECCFD6
:100EA000C9018C0D9D1DF501E80FF91F31971082C6
:100EB000215031092A0D3B1DD8015B963C932E939E
:100EC0005A974C01C201880F991F5C96ED91FC91D5
:100ED0005D97E80FF91FD1018D919C9191838083DB
:100EE000BFEF4B1A5B0A6B0A7B0A9BCFC4012896A3
:100EF0000FB6F894DEBF0FBECDBFDF91CF911F912B
:100F00000F91FF90EF90DF90CF90BF90AF909F90A8
:100F10008F907F906F905F904F903F902F900895AB
:100F20000F931F93CF93DF93CDB7DEB72A970FB6FA
:100F3000F894DEBF0FBECDBF8C018EE592E09A83A0
:100F400089831B821C821D821E821F82188619863D
:100F50001A86D801ED91FC910190F081E02DAE014F
:100F60004F5F5F4F6AE070E0C80109950E94E30C93
:100F7000F80160877187828793872A960FB6F89465
:100F8000DEBF0FBECDBFDF91CF911F910F910895AE
:100F90004F925F926F927F92AF92BF92CF92DF9209
:100FA000EF92FF920F931F93CF93DF93CDB7DEB7EE
:100FB0002E970FB6F894DEBF0FBECDBF8C018AE628
:100FC00092E09A8389831C821B8280E193E09E8356
:100FD0008D8398878F839A8789871B861C861D86B9
:100FE0001E86680180EEC80ED11C7801AEEEEA1AAA
:100FF000AEEFFA0A94E6492E512C612C712CD601E1
:10100000ED91FC913097B9F1848195819C838B831C
:10101000808191819E838D8382819381DC01ED911A
:10102000FC910480F581E02D099598878F83D60186
:10103000ED91FC9182819381DC01ED91FC91068020
:10104000F781E02D09959A8789874B865C866D86A6
:101050007E86F80180819181F601A081B181189688
:101060006D917C911997DC01ED91FC91AE014F5F80
:101070005F4FC8010995B2E0CB0ED11CCE14DF043E
:1010800009F0BDCF6801ECEBCE1AEEEFDE0A84E684
:10109000482E512C612C712CF701A081B181109741
:1010A000E1F112968D919C9113979C838B831496FA
:1010B0008D919C9115979E838D83ED91FC91119755
:1010C0000480F581E02DCD01099598878F83D701A4
:1010D0008D919C91DC01ED91FC910680F781E02DD2
:1010E00009959A8789874B865C866D867E86D801AE
:1010F000ED91FC91A080B180F70180819181DC01AC
:10110000ED91FC910280F381E02D0995AE014F5FD6
:101110005F4FBC01C801F5010995F2E0EF0EF11C2B
:10112000EC14FD0409F0B8CFF801E25BFE4F81E05A
:1011300080832E960FB6F894DEBF0FBECDBFDF9131
:10114000CF911F910F91FF90EF90DF90CF90BF90C4
:10115000AF907F906F905F904F9008958F929F9285
:10116000AF92BF92CF92DF92EF92FF920F931F93B5
:10117000CF93DF93CDB7DEB72A970FB6F894DEBFD3
:101180000FBECDBF8C015B018EE592E09A8389830F
:101190001B821C821D821E821F82188619861A8657
:1011A0000E94E30CF801C084D184E284F3849B01A3
:1011B000AC012C193D094E095F0969017A01B5019D
:1011C000CE0101960E94E90088EE882E83E0982ED9
:1011D000A12CB12CC701B601A50194010E94E22205
:1011E000CB80DC80ED80FE80C20ED31EE41EF51E97
:1011F000CB82DC82ED82FE829B01AC0160E472E472
:101200008FE090E00E94BE22CF80D884E984FA84E7
:10121000DC01CB018C0D9D1DAE1DBF1D8F839887FA
:10122000A987BA870E94E30CCB80DC80ED80FE802A
:1012300031E0C31AD108E108F108A50194010E9428
:10124000E222C21AD30AE40AF50AF801C486D58656
:10125000E686F786CF80D884E984FA84F6E3DF1A3D
:10126000F5E6EF0AF4ECFF0A9B01AC0160E472E4DE
:101270008FE090E00E94BE22C61AD70AE80AF90A57
:10128000F801C08AD18AE28AF38AB801605F7F4F91
:10129000C8010C960E948B190E94E30CF801ED5ACC
:1012A000FE4F60837183828393832A960FB6F894EE
:1012B000DEBF0FBECDBFDF91CF911F910F91FF9089
:1012C000EF90DF90CF90BF90AF909F908F90089558
:1012D0002F923F924F925F926F927F928F929F9246
:1012E000AF92BF92CF92DF92EF92FF920F931F9334
:1012F000CF93DF93CDB7DEB760970FB6F894DEBF1C
:101300000FBECDBF988B8F870E94E30C4B015C0111
:101310002F8538892D5A3E4F3E832D83F9018081D8
:101320009181A281B381A5019401281B390B4A0B3D
:101330005B0BDA01C901893F9A42A105B10528F08A
:10134000EF85F889E25BFE4F10820F8518890C5BF0
:101350001E4FD8018D919C91892B81F0EF85F889E2
:10136000E95AFE4F80819181A281B3818815990548
:10137000AA05BB0518F4F801118210826F847888E1
:10138000F4EB6F1AFEEF7F0A2F853889285B3E4FFA
:101390003A832983CF84D88838E1C30ED11C4F8586
:1013A0005889425B5E4F58874F832F853889245A6E
:1013B0003E4F3A8729874F855889455A5E4F5C874B
:1013C0004B87EF84F8885AEBE51A5EEFF50A2F8514
:1013D0003889265B3E4F3C832B834F855889495A79
:1013E0005E4F5E874D871401250154E1250E311CA7
:1013F000411C511CEF85F88984899589A689B78994
:10140000892B8A2B8B2B89F4AF85B88912968D9105
:101410009C911397DC01ED91FC910680F781E02D02
:1014200009959C0197FF15C036C10E94E30CDC01B1
:10143000CB0188199909AA09BB09EF85F889248984
:10144000358946895789281739074A075B07E0F627
:101450004AC1D3018D919C911197820F931F8D9357
:101460009C93F8014081518147305105D9F4AB81FB
:10147000BC818D919C911197AC014F5F5F4F4D9353
:101480005C93EF85F889E80FF91F208FF7018081C1
:101490009181019791838083892B09F0ABCF88E0FC
:1014A00090E02FC04115510521F52F3F310569F41A
:1014B00081E090E0F80191838083AD85BE852D9217
:1014C0003D924D925C92139795CF0E94E30CDC0104
:1014D000CB0188199909AA09BB0989389341A1054B
:1014E000B10508F487CFEF85F889E25BFE4F1082E3
:1014F000FAC041305105B1F42E3F310531F482E09C
:1015000090E0D8018D939C9375CFF80111821082E1
:10151000AF81B8858C9181116DCF8F8598890E949C
:10152000900768CF4230510569F4F7013183208379
:10153000AB81BC811D921C9283E090E0F801918305
:1015400080832EC04330510561F4322F2227F701EA
:1015500080819181280F391F3183208384E090E0BE
:10156000D0CF4430510581F460E071E00E94CE227A
:101570008F3F910531F485E090E0F80191838083FD
:1015800039CF1182108236CF4530510569F4E98197
:10159000FA8131832083E6E0F0E0D801ED93FC93FB
:1015A000D3012D933C9326CF4630510599F4322F29
:1015B0002227E981FA8180819181280F391F3183A7
:1015C0002083E7E0F0E0D801ED93FC93D7018D9103
:1015D0009C9162CF4830510509F00CCFF80111827F
:1015E000108260E071E00E94CE228F3F910509F0E9
:1015F00001CFA981BA818D919C910097C9F48F8503
:1016000098890E9490078F8598890E94C807EF8566
:10161000F889E15BFE4F80829182A282B382ED81E4
:10162000FE8180829182A282B3828FEF9FEF60C0A1
:101630008A30910531F4B6018F8598890E94AE08F1
:10164000D9CE8630910551F4B60189859A850E94DC
:10165000E10581E0AB85BC858C93CCCE8B309105C8
:1016600021F4EF81F8851082C5CEFC01B596EE0F0E
:10167000FF1F2F853889E20FF31F8081918100972A
:1016800009F4B8CEDC01ED91FC910190F081E02DE0
:10169000B6010995AFCEEF85F889E25BFE4F8081F8
:1016A000882321F10F851889015B1E4FF801808185
:1016B0009181A281B381A5019401281B390B4A0BAA
:1016C0005B0BDA01C901853C9940A105B10570F0B9
:1016D0008F8598890E949007D8018D929D92AD9236
:1016E000BC92139703C08EEF9FEF02C080E090E0A2
:1016F00060960FB6F894DEBF0FBECDBFDF91CF91DD
:101700001F910F91FF90EF90DF90CF90BF90AF901F
:101710009F908F907F906F905F904F903F902F9011
:1017200008954F925F926F927F928F929F92AF92A5
:10173000BF92CF92DF92EF92FF92CF93DF9382E836
:1017400093E00E941C1982E893E00E9403172B018A
:101750003C0182E893E00E94F5164B015C0140E0F9
:1017600050E060E87FE382E893E00E94D5166B01C9
:101770007C0182E893E00E943517E1EBF3E04282BE
:1017800053826482758286829782A086B186C286E1
:10179000D386E486F58666877787808B918BE7EA28
:1017A000F3E086819781EC01A881B981648175811C
:1017B000ED91FC9141EB53E0099583EC93E00E949D
:1017C000680964E670E080E090E0DF91CF91FF90DF
:1017D000EF90DF90CF90BF90AF909F908F907F90D1
:1017E0006F905F904F900C94140D8AE992E0909363
:1017F000C4038093C30386E495E09093C60380936B
:10180000C50380E091EEA0E0B0E08093C703909321
:10181000C803A093C903B093CA031092110582E8CC
:1018200092E09093200580931F051092210510925D
:101830002205109223051092240510922A05109279
:10184000290510922B0510922C0510922D0510924F
:101850002E05109234051092330510923505109222
:101860003605109237051092380510923C051092FB
:101870003B05E3EAF4E01192119284E0E53DF807BC
:10188000D1F7E5EDF4E01192119285E0E730F80729
:10189000D1F7EBEDF3E0119284E0EF33F807D9F7DD
:1018A000EFE3F4E0119284E0E33AF807D9F71092FD
:1018B000D7031092D8031092D9031092DA038EE85E
:1018C00092E09093B2038093B1031092B30310920D
:1018D000B4031092B5031092B6031092B70310929E
:1018E000B8031092B9031092BA031092BB0310927E
:1018F000BC031092BD031092BE031092BF0310925E
:10190000C0031092C1031092C20384E392E090934B
:10191000A8038093A70381EB93E09093AA0380939D
:10192000A9031092B0031092AF0382E893E00C94E5
:101930007A111F920F920FB60F9211242F933F939B
:101940008F939F93AF93BF9380913E0590913F05F6
:10195000A0914005B091410530913D0523E0230F52
:101960002D3720F40196A11DB11D05C026E8230FD7
:101970000296A11DB11D20933D0580933E059093D5
:101980003F05A0934005B093410580914205909199
:101990004305A0914405B09145050196A11DB11DD7
:1019A0008093420590934305A0934405B093450569
:1019B000BF91AF919F918F913F912F910F900FBE4B
:1019C0000F901F9018952FB7F89460913E05709175
:1019D0003F0580914005909141052FBF08953FB785
:1019E000F8948091420590914305A0914405B091EF
:1019F000450526B5A89B05C02F3F19F00196A11DEE
:101A0000B11D3FBFBA2FA92F982F8827820F911D94
:101A1000A11DB11DBC01CD0142E0660F771F881FDB
:101A2000991F4A95D1F70895CF92DF92EF92FF92D6
:101A3000CF93DF936B017C010E94EF0CEB01C1148B
:101A4000D104E104F10479F00E94EF0C6C1B7D0BD2
:101A5000683E7340A0F381E0C81AD108E108F1089C
:101A6000C851DC4FECCFDF91CF91FF90EF90DF902A
:101A7000CF900895789484B5826084BD84B58160E8
:101A800084BD85B5826085BD85B5816085BDEEE686
:101A9000F0E0808181608083E1E8F0E01082808165
:101AA00082608083808181608083E0E8F0E08081D3
:101AB00081608083E1EBF0E0808184608083E0EBF3
:101AC000F0E0808181608083EAE7F0E080818460DB
:101AD0008083808182608083808181608083808137
:101AE000806880831092C10008956F927F928F92D8
:101AF0009F92AF92BF92CF92DF92EF92FF920F939D
:101B00001F93CF93DF93EC01009789F4CB01DF9112
:101B1000CF911F910F91FF90EF90DF90CF90BF90EA
:101B2000AF909F908F907F906F900C945E0EFC0111
:101B3000E60FF71F9C0122503109E217F30708F462
:101B4000ACC0D9010D911C91119706171707B0F081
:101B50000530110508F49FC0C80104978617970740
:101B600008F499C002501109061B170B0193119339
:101B70006D937C93CF010E94F30E8DC05B01A01A80
:101B8000B10A4C01800E911EA091B206B091B3062D
:101B900040E050E0E12CF12C109709F44AC0A81560
:101BA000B905D1F56D907C901197630182E0C80E64
:101BB000D11CCA14DB0480F1A3014A195B096A0134
:101BC00082E0C80ED11C1296BC9012971396AC916D
:101BD000B5E0CB16D10440F0B282A3835183408399
:101BE000D9016D937C930AC00E5F1F4FC301800F14
:101BF000911FF90191838083EB2DFA2FE114F104F9
:101C000031F0D7011396FC93EE93129744C0F093F2
:101C1000B306E093B2063FC08D919C91119748178F
:101C2000590708F4AC017D0112960D90BC91A02DCE
:101C3000B3CF8091B0069091B10688159905E1F473
:101C400046175707C8F48091000190910101009751
:101C500041F48DB79EB74091040150910501841B5A
:101C6000950BE817F907C8F4F093B106E093B006B6
:101C7000F901718360830FC0CB010E945E0E7C016D
:101C8000009759F0A801BE010E94ED1ECE010E94EE
:101C9000F30EC70104C0CE0102C080E090E0DF91E6
:101CA000CF911F910F91FF90EF90DF90CF90BF9059
:101CB000AF909F908F907F906F900895CF93DF9318
:101CC0008230910510F482E090E0E091B206F0914C
:101CD000B30620E030E0C0E0D0E0309711F1408161
:101CE000518148175907C0F04817590761F482819C
:101CF0009381209719F09B838A832BC09093B3061E
:101D00008093B20626C02115310519F042175307FA
:101D100018F49A01BE01DF01EF010280F381E02D8A
:101D2000DCCF2115310509F1281B390B2430310591
:101D300090F412968D919C9113976115710521F085
:101D4000FB019383828304C09093B3068093B20611
:101D5000FD01329644C0FD01E20FF31F8193919380
:101D6000225031092D933C933AC02091B006309116
:101D7000B106232B41F420910201309103013093ED
:101D8000B1062093B0062091000130910101211588
:101D9000310541F42DB73EB7409104015091050142
:101DA000241B350BE091B006F091B106E217F30762
:101DB000A0F42E1B3F0B2817390778F0AC014E5FBB
:101DC0005F4F2417350748F04E0F5F1F5093B10641
:101DD0004093B0068193919302C0E0E0F0E0CF0120
:101DE000DF91CF9108950F931F93CF93DF930097C7
:101DF00009F48CC0FC013297138212820091B20662
:101E00001091B3060115110581F420813181820FF3
:101E1000931F2091B0063091B1062817390779F544
:101E2000F093B106E093B00671C0D80140E050E0F5
:101E3000AE17BF0750F412962D913C911397AD0148
:101E40002115310509F1D901F3CF9D01DA01338361
:101E5000228360817181860F971F8217930769F42F
:101E6000EC0128813981260F371F2E5F3F4F3183C8
:101E700020838A819B8193838283452B29F4F0936D
:101E8000B306E093B20642C01396FC93EE9312970A
:101E9000ED01499159919E01240F351FE217F30777
:101EA00071F480819181840F951F029611969C9305
:101EB0008E938281938113969C938E931297E0E088
:101EC000F0E0D80112968D919C911397009719F02C
:101ED000F8018C01F6CF8D919C9198012E5F3F4FB8
:101EE000820F931F2091B0063091B1062817390751
:101EF00069F4309729F41092B3061092B20602C02A
:101F0000138212821093B1060093B006DF91CF9135
:101F10001F910F9108950E943A0D0E948A02CCE60B
:101F2000D0E10E94910B2097E1F30E946C10F9CF51
:101F3000FC0124853585F901E05CFF4F80819181AA
:101F4000329620813181821B930B8F7399270895DC
:101F5000DC011C96ED91FC911D97DF01A05CBF4F49
:101F60002D913C91119712968D919C911197281764
:101F7000390739F08D919C91E80FF91F808190E02D
:101F800008958FEF9FEF0895FC01A485B585FD01AD
:101F9000E05CFF4F2081318132968081918128174A
:101FA000390779F080819181A80FB91F8C91208128
:101FB00031812F5F3F4F2F7333273183208390E090
:101FC00008958FEF9FEF0895FC0181A1882329F0E8
:101FD000A489B5898C9186FFFBCF11A208950F9338
:101FE0001F93CF93DF93FC01A685B7858D01005C1D
:101FF0001F4FE8018881998101968F739927AD0160
:102000004E5B5F4FEA012881398182179307D1F334
:10201000E80128813981A20FB31F6C93A685B7858B
:10202000A05CBF4F11969C938E93A689B7892C9183
:1020300081E090E0078C02C0880F991F0A94E2F7B4
:10204000822B8C9381E081A30488F589E02D808127
:102050008064808381E090E0DF91CF911F910F91A8
:10206000089508951F920F920FB60F9211242F9387
:102070004F935F938F939F93EF93FF938091C00053
:1020800082FD1CC02091C6008091EC059091ED0569
:1020900001968F7399274091EE055091EF058417B3
:1020A000950771F0E091EC05F091ED05E455FA4FDC
:1020B00020839093ED058093EC0502C08091C600CB
:1020C000FF91EF919F918F915F914F912F910F9081
:1020D0000FBE0F901F90189586E495E00E94980F10
:1020E000892B11F00C94311008951F920F920FB6A6
:1020F0000F9211242F933F938F939F93EF93FF930E
:102100002091A8053091A9058091AA059091AB0571
:102110002817390731F48091C1008F7D8093C10069
:1021200014C0E091AA05F091AB05E859FA4F20815F
:102130008091AA059091AB0501968F739927909392
:10214000AB058093AA052093C600FF91EF919F9164
:102150008F913F912F910F900FBE0F901F90189568
:10216000CF92DF92EF92FF920F931F93CF93DF9363
:10217000EC016A017B014115514E6105710509F1C0
:10218000EC89FD8981E090E008A002C0880F991FCA
:102190000A94E2F7808360E079E08DE390E0A701A4
:1021A00096010E94E22289019A0101501109210938
:1021B0003109369527951795079598010115104116
:1021C000A8F0EC89FD89108260E874E88EE190E067
:1021D000A70196010E94E222DA01C9010197A10933
:1021E000B109B695A795979587959C01E889F989D6
:1021F0003083EA89FB89208319A2EE89FF89408117
:1022000081E090E09C010C8C02C0220F331F0A94E5
:10221000E2F7242B2083EE89FF8940819C010D8CFD
:1022200002C0220F331F0A94E2F7242B2083EE8989
:10223000FF8940819C010E8C02C0220F331F0A943B
:10224000E2F7242B2083EE89FF8920810F8C02C0C6
:10225000880F991F0A94E2F7809582238083DF918B
:10226000CF911F910F91FF90EF90DF90CF90089545
:10227000E6E4F5E01382128288EE93E0A0E0B0E09D
:1022800084839583A683B78384EA92E091838083D5
:102290008CEA95E09587848788E695E0978786871E
:1022A00085EC90E0918B808B84EC90E0938B828B1B
:1022B00080EC90E0958B848B81EC90E0978B868B03
:1022C00082EC90E0918F808F86EC90E0938F828FEC
:1022D00084E0848F83E0858F87E0868F85E0878F19
:1022E00081E080A30895DC01ED91FC910190F081E3
:1022F000E02D099440E050EA60E874E4FC0141A359
:1023000052A363A374A308952F923F924F925F92BA
:102310006F927F928F929F92AF92BF92CF92DF92F5
:10232000EF92FF920F931F93CF93DF93CDB7DEB75A
:10233000A4970FB6F894DEBF0FBECDBF9CA38BA3AE
:10234000DC011A968D919C911B97A0E0B0E0BA2F0A
:10235000A92F982F8827EBA1FCA14489558966896C
:1023600077898A019B01081B190B2A0B3B0B0983F8
:102370001A832B833C8310A11AA3A681B781BA8B41
:10238000A98B8280938000891189228933890987EA
:102390001A872B873C87BAA1A12CB12C9401B130AC
:1023A00009F01BC140E050E060E070E080E090E0A8
:1023B00000E10E94792429013A014B011C01E989BD
:1023C000FA899F0140E050E069817A818B819C818C
:1023D0000E946823F22E032F142FB52FF62FE72F1C
:1023E000D82EE92EA0E00E94CE245CF4AFE70E9434
:1023F000B924F22E032F142FB52FF62FE72FD82E46
:10240000E92E2F2D302F412F5B2F6F2F7E2F8D2DFB
:102410009E2D07E00E94922459016A017B018C01E4
:102420009201A301B401C1010E94B0242F8B388F07
:10243000498F5A8F6B8F7C8F1C01ABA1BCA1189662
:10244000ED91FC91199714968D909C90159794019D
:1024500040E050E060E070E080E090E001E10E9448
:10246000792429013A014B01898B9D8B9F0140E022
:1024700050E069817A818B819C810E946823F22ED1
:10248000032F142FB52FF62FE72FD82EE92EA0E01B
:102490000E94CE245CF4AFE30E94B924F22E032FF5
:1024A000142FB52FF62FE72FD82EE92E2F2D302FF2
:1024B000412F5B2F6F2F7E2F8D2D9E2D06E00E94CA
:1024C000922459016A017B018C019201A301B4019C
:1024D00089899D890E94B024298B3D8B4E8B5D8F0D
:1024E0006E8F7F8F88A399A329853A854B855C855C
:1024F00089019A0140E050E0BA0109871A872B87C9
:102500003C874D875E876F87788BAF88B88CC98C86
:10251000DA8CEB8CFC8C810129853A854B855C85B6
:1025200060E070E080E090E00E940F23F22E032F25
:10253000142FB52FF62FE72FD82EE92EA0E00E94FA
:10254000CE2484F421503109404E5F4F6F4F7F4FAE
:102550008F4F9F4FF22E032F142FB52FF62FE72FFB
:10256000D82EE92E2F2D302F412F5B2F6F2F7E2F4E
:102570008D2D9E2D05E10E949224A988BD88CE88CC
:10258000DD8CEE8CFF8C08A119A10E94C524F22ECF
:10259000032F142FB52FF62FE72FD82EE92EA0E00A
:1025A0000E94CE2484F4215030484F4F5F4F6F4F2C
:1025B0007F4F8F4F9F4FF22E032F142FB52FF62FE3
:1025C000E72FD82EE92E2F2D302F412F5B2F6F2F85
:1025D0007E2F8D2D9E2D0FE01EC1A50160E070E0C5
:1025E00080E090E00FE00E94792429013A014B013C
:1025F0001C01E989FA899F0140E050E069817A81F4
:102600008B819C810E946823F22E032F142FB52FFB
:10261000F62FE72FD82EE92EA0E00E94CE2484F4D6
:1026200021503F4F4F4F5F4F6F4F7F4F8F4F9F4F07
:10263000F22E032F142FB52FF62FE72FD82EE92EC9
:102640002F2D302F412F5B2F6F2F7E2F8D2D9E2D05
:1026500008E00E94922459016A017B018C019201D9
:10266000A301B401C1010E94B0242F8B388F498F80
:102670005A8F6B8F7C8F1C01ABA1BCA11896ED917A
:10268000FC91199714968D909C901597940140E0B9
:1026900050E060E070E080E090E000E10E9479248A
:1026A00029013A014B01898B9D8B9F0140E050E04D
:1026B00069817A818B819C810E946823F22E032F8D
:1026C000142FB52FF62FE72FD82EE92EA0E00E9469
:1026D000CE245CF4AFE70E94B924F22E032F142F0E
:1026E000B52FF62FE72FD82EE92E2F2D302F412F83
:1026F0005B2F6F2F7E2F8D2D9E2D07E00E94922441
:1027000059016A017B018C019201A301B4018989FD
:102710009D890E94B024298B3D8B4E8B5D8F6E8FDF
:102720007F8F88A399A329853A854B855C8589018C
:102730009A0140E050E0BA0109871A872B873C874D
:102740004D875E876F87788BAF88B88CC98CDA8CA1
:10275000EB8CFC8C810129853A854B855C8560E09A
:1027600070E080E090E00E940F23F22E032F142FE0
:10277000B52FF62FE72FD82EE92EA0E00E94CE2409
:1027800084F421503109404E5F4F6F4F7F4F8F4F80
:102790009F4FF22E032F142FB52FF62FE72FD82E91
:1027A000E92E2F2D302F412F5B2F6F2F7E2F8D2D58
:1027B0009E2D05E10E949224A988BD88CE88DD8CDB
:1027C000EE8CFF8C08A119A10E94C524F22E032FC4
:1027D000142FB52FF62FE72FD82EE92EA0E00E9458
:1027E000CE2484F42150304E4F4F5F4F6F4F7F4FB8
:1027F0008F4F9F4FF22E032F142FB52FF62FE72F59
:10280000D82EE92E2F2D302F412F5B2F6F2F7E2FAB
:102810008D2D9E2D0DE00E949224ABA1BCA15C9653
:102820002C935C975D963C935D975E964C935E9778
:102830005F965C93EBA1FCA12485358540E050E0D8
:1028400069817A818B819C810E946823F22E032FFB
:10285000142FB52FF62FE72FD82EE92EA0E00E94D7
:10286000CE2484F42150310940485F4F6F4F7F4F91
:102870008F4F9F4FF22E032F142FB52FF62FE72FD8
:10288000D82EE92E2F2D302F412F5B2F6F2F7E2F2B
:102890008D2D9E2D07E10E94922449015A012401A9
:1028A0003501F0ED4F0EF7E05F1E611C711CABA10E
:1028B000BCA158964D925D926D927C925B97BAA1A5
:1028C000B13009F089C0E0ED4E16E7E05E06610424
:1028D00071040CF035C160EB72E086E495E00E9473
:1028E000131A69817A818B819C819B01AC010E94C2
:1028F000682339014A01B62FA72FF82FE92F02E0EC
:102900000E94792453016401EB2EFA2E0F2F1E2F03
:102910000E94C52402E00E9479240F2F0E94C52442
:10292000F22E032F142FB52FF62FE72FD82EE92ED6
:10293000A0E00E94CE2484F42150310941095109BC
:10294000684F7F4F8F4F9F4FF22E032F142FB52FBD
:10295000F62FE72FD82EE92E2F2D302F412F5B2F6A
:102960006F2F7E2F8D2D9E2D03E20E9492242983AE
:102970003A834B835C83EBA1FCA1808D918DA28D6A
:10298000B38DBC01CD01605D7740810991099B0148
:10299000AC010E94BE22AFE1B0E09B01AC010E94FD
:1029A00004237B018C01E3E015950795F794E794E8
:1029B000EA95D1F7AFE3B0E00E9404239B01AC019C
:1029C000F5E05595479537952795FA95D1F72987DD
:1029D0003A874B875C87BFC030ED431637E053061C
:1029E000610471040CF098C069817A818B819C81AB
:1029F0009B01AC010E94682359016A017B01E82F09
:102A0000192F02E00E9479240E2F0E94C524F22E75
:102A1000032F142FB52FF62FE72FD82EE92EA0E085
:102A20000E94CE2484F421503109410951096E4F8E
:102A30007F4F8F4F9F4FF22E032F142FB52FF62F5E
:102A4000E72FD82EE92E2F2D302F412F5B2F6F2F00
:102A50007E2F8D2D9E2D01E20E94922429833A83A0
:102A60004B835C83C301B201605D774081099109AA
:102A70009B01AC010E94BE22A3E0B0E09B01AC012F
:102A80000E9404237B018C0115950795F794E79428
:102A9000A5E0B0E00E9404239B01AC0173E05595D2
:102AA0004795379527957A95D1F729873A874B87A8
:102AB0005C8731EC431639EF53063FEF630673062C
:102AC0000CF049C0C301B20164527A4F8F4F9F4F3F
:102AD0009B01AC010E94BE224B015C01A7E0B0E06B
:102AE0009B01AC010E940423E60EF71E081F191F6C
:102AF00092E0880C991CAA1CBB1C9A95D1F74985B9
:102B00005A856B857C85480D591D6A1D7B1D49873B
:102B10005A876B877C871FC0A5019401C501B4014A
:102B20000E94BE227B018C0184E015950795F794E5
:102B3000E7948A95D1F719821A821B821C8207C0FA
:102B400019821A821B821C82E12CF12C87011986C2
:102B50001A861B861C8627013801770C4408542CE2
:102B6000320129893D894E895D8D6E8D7F8D88A1C9
:102B700099A157016801E42CF42C042D142D0E9416
:102B8000C524922E3D8B4E8B852E762E672E582E89
:102B9000492E69857A858B859C85990F660B762FE2
:102BA000CB01698B7A8B8B8B9C8B2F89388D498DD0
:102BB0005A8D6B8D7C8DC101A984BA84CB84DC8451
:102BC000E988FE2C0E2D1E2D0E94C52459016A0194
:102BD0007B018C01ABA1BCA190962C919097509653
:102BE0004D915D916D917C91539749875A876B8781
:102BF0007C8758964D915D916D917C915B97898111
:102C00009A81AB81BC81481B590B6A0B7B0BABA132
:102C1000BCA158964D935D936D937C935B974985CA
:102C20005A856B857C85213009F049C09A01AB013A
:102C300060E070E0CB0129833A834B835C836D8332
:102C40007E838F83988760E070E080E090E00E9450
:102C50000F23F22E032F142FB52FF62FE72FD82E88
:102C6000E92EA0E00E94CE2484F421503109404E88
:102C70005F4F6F4F7F4F8F4F9F4FF22E032F142FB9
:102C8000B52FF62FE72FD82EE92E2F2D302F412FDD
:102C90005B2F6F2F7E2F8D2D9E2D05E10E9492249C
:102CA000A92CBD88CE88D82CE72CF62C052D142D08
:102CB0000E94C524A12CB12CF2E3CF2E49C09A0169
:102CC000AB0160E070E0CB0129833A834B835C83E6
:102CD0006D837E838F83988760E070E080E090E072
:102CE0000E940F23F22E032F142FB52FF62FE72F5C
:102CF000D82EE92EA0E00E94CE2484F42150310980
:102D0000404E5F4F6F4F7F4F8F4F9F4FF22E032FDD
:102D1000142FB52FF62FE72FD82EE92E2F2D302F79
:102D2000412F5B2F6F2F7E2F8D2D9E2D05E10E9451
:102D30009224A92CBD88CE88D82CE72CF62C052D02
:102D4000142D0E94C524A12CE0E4BE2ECC24C394F3
:102D5000D12CE12CF12C00E010E00E94A423ABA1C7
:102D6000BCA15C962C935C975D963C935D975E96B8
:102D70004C935E975F965C93A4960FB6F894DEBF73
:102D80000FBECDBFDF91CF911F910F91FF90EF90BC
:102D9000DF90CF90BF90AF909F908F907F906F907B
:102DA0005F904F903F902F900895CF93DF9300D086
:102DB00000D0CDB7DEB79A01AB01FC01648D758DF3
:102DC000868D978D29833A834B835C830E941220E2
:102DD00029813A814B815C810E94C7200F900F901E
:102DE0000F900F90DF91CF910895FC01608D718D50
:102DF000828D938D0E94122020E030E048EC52E456
:102E00000E94681F0895CF92DF92EF92FF92CF93B6
:102E1000DF93EC016C8D7D8D8E8D9F8D0E94122035
:102E200020E030E048EC52E40E94C72020E03AED78
:102E300045EC57E40E94F61E6B017C012AE038EE57
:102E40004CE151E469A17AA18BA19CA10E94C72009
:102E50009B01AC01C701B6010E94681FDF91CF91B1
:102E6000FF90EF90DF90CF900895FC01648D758DF9
:102E7000868D978D0E94122020E030E54DE754E4C6
:102E80000E94681F2FEC39ED42E45EE30E9434217A
:102E90009B01AC0160E070E080E89FE30E94F61EB9
:102EA0002DE935EF4DE058E40E94C7202FEB3EE0BE
:102EB0004CE95EE30E94C7200895CF93DF93DB01C6
:102EC0008D919C9111979F7011969C938E931F9654
:102ED0001C921E921E9740E050E020E030E0CA01B4
:102EE00095958795880F991FFD01E80FF91F40FF01
:102EF00003C08081282706C08181C82F90E0D92F88
:102F00002C273D2788E0B901660F771F37FF04C0E3
:102F10009B0190E3392701C09B018150A1F74F5FCE
:102F20005F4F40315105D9F6832F82958F70DF9125
:102F3000CF910895BF92CF92DF92EF92FF920F93BD
:102F40001F93CF93DF93EC0166E770E080EF95E08D
:102F50000E946B1C6EE170E080EF95E00E9473119F
:102F600080EF95E00E94801C6AE070E080E090E0D5
:102F70000E94140D7E0100E010E066E770E080EF33
:102F800095E00E946B1CB80160567F4F80EF95E082
:102F90000E94731180EF95E00E94801C42E050E097
:102FA00066E770E080EF95E00E945E1C80EF95E0A0
:102FB0000E94B41BB82E80EF95E00E94B41BDB2C5E
:102FC000C12C8C299D29F701819391937F010E5F7C
:102FD0001F4F0E30110589F6198112951F70BE0121
:102FE000CE010E945D1791E0811390E0892FDF915F
:102FF000CF911F910F91FF90EF90DF90CF90BF90F6
:103000000895CF93DF93EC0180EF95E00E94471C79
:10301000CE010E949A1781111FC065EB72E086E411
:1030200095E00E94131A62EC72E086E495E00E943B
:10303000131A63EE72E086E495E00E94131A6DE0C5
:1030400073E086E495E00E94131A68E873E180E07B
:1030500090E00E94140DDCCF18A280E090E4A9E774
:10306000B4E489A39AA3ABA3BCA3DF91CF91089545
:103070008F929F92AF92BF92CF92DF92EF92FF9288
:10308000CF93DF93EC0166E770E080EF95E00E945C
:103090006B1C6AE470E080EF95E00E94731180EF92
:1030A00095E00E94801C64E170E080E090E00E9466
:1030B000140D66E770E080EF95E00E946B1C60E005
:1030C00070E080EF95E00E94731180EF95E00E9420
:1030D000801C43E050E066E770E080EF95E00E94DE
:1030E0005E1C188A198A1A8A1B8A80EF95E00E9452
:1030F000B41B4C01990FAA08BB08888A998AAA8A2E
:10310000BB8A80EF95E00E94B41BBA2CA92C982CA6
:1031100088246C01990FEE08FF08C828D928EA28EE
:10312000FB28C88AD98AEA8AFB8A80EF95E00E9448
:10313000B41BFE2CED2CDC2CCC24092E000CAA0B8D
:10314000BB0BC82AD92AEA2AFB2AC88AD98AEA8A62
:10315000FB8A66E770E080EF95E00E946B1C6AE5F1
:1031600070E080EF95E00E94731180EF95E00E947F
:10317000801C64E170E080E090E00E94140D66E73E
:1031800070E080EF95E00E946B1C60E070E080EFE3
:1031900095E00E94731180EF95E00E94801C43E04F
:1031A00050E066E770E080EF95E00E945E1C1C8AAC
:1031B0001D8A1E8A1F8A80EF95E00E94B41B4C0175
:1031C000990FAA08BB088C8A9D8AAE8ABF8A80EFB5
:1031D00095E00E94B41BBA2CA92C982C88246C0171
:1031E000990FEE08FF08C828D928EA28FB28CC8ABE
:1031F000DD8AEE8AFF8A80EF95E00E94B41BFE2CE8
:10320000ED2CDC2CCC24092E000CAA0BBB0BC82AFD
:10321000D92AEA2AFB2ACC8ADD8AEE8AFF8ACE01E5
:10322000DF91CF91FF90EF90DF90CF90BF90AF9064
:103230009F908F900C948411CF93DF93EC010E94A8
:10324000381861E173E086E495E00E94F6196C8D10
:103250007D8D8E8D9F8D0E941220AB01BC0122E0DE
:1032600030E086E495E00E94AA1B6CE173E086E4FE
:1032700095E00E94131A62E273E086E495E00E94F2
:10328000F619688D798D8A8D9B8D0E94122020E021
:1032900030E048EC52E40E94681FAB01BC0122E020
:1032A00030E086E495E00E94AA1B60E373E086E4C8
:1032B00095E00E94131A67E373E086E495E00E94AC
:1032C000F619CE010E940317AB01BC0122E030E0E9
:1032D00086E495E00E94AA1B6FE373E086E495E024
:1032E0000E94131A62E473E086E495E00E94F619E6
:1032F000CE010E943517AB01BC0122E030E086E42C
:1033000095E00E94AA1B6DE473E086E495E0DF91EE
:10331000CF910C94131ACF92DF92EF92FF920F93FA
:103320001F93CF93DF938C01EB01688179818A81B0
:103330009B8120E03AEC4AE95BE30E94E222F8013B
:10334000C080D180E280F380C20ED31EE41EF51E41
:10335000C082D182E282F382688379838A839B83ED
:10336000DF91CF911F910F91FF90EF90DF90CF9061
:103370000895CF92DF92EF92FF920F931F93CF9316
:10338000DF936C01EB017B01E40EF51E00E010E021
:10339000CE15DF0561F06991D601ED91FC910190A8
:1033A000F081E02DC6010995080F191FF1CFC80162
:1033B000DF91CF911F910F91FF90EF90DF90CF9011
:1033C00008956115710579F0FB0101900020E9F77E
:1033D0003197AF01461B570BDC01ED91FC91028048
:1033E000F381E02D099480E090E008950C94E119B8
:1033F000DC01ED91FC910190F081E02D09940F9397
:103400001F93CF93DF93EC016DE00E94F8198C01BC
:103410006AE0CE010E94F819800F911FDF91CF91D1
:103420001F910F9108950F931F93CF93DF93EC019A
:103430000E94E1198C01CE010E94FF19800F911F9B
:10344000DF91CF911F910F9108958F929F92AF922C
:10345000BF92CF92DF92EF92FF920F931F93CF9381
:10346000DF93CDB7DEB7A1970FB6F894DEBF0FBEDE
:10347000CDBF6C01142FE52FCB01022F19A22230F2
:1034800008F40AE07E0121E2E20EF11C802E912C6C
:10349000A12CB12C612F7E2FA50194010E94E22264
:1034A000029F1019112481E0E81AF1081A3014F46F
:1034B000105D01C0195CF7011083122FE32FCA01C0
:1034C000232B242B252B31F7B701C6010E94E119CC
:1034D000A1960FB6F894DEBF0FBECDBFDF91CF919E
:1034E0001F910F91FF90EF90DF90CF90BF90AF9022
:1034F0009F908F900895CF92DF92EF92FF920F935B
:103500001F93CF93DF93EC016A017B0121153105F5
:1035100079F4E881F9810190F081E02D642FDF9149
:10352000CF911F910F91FF90EF90DF90CF90099472
:103530002A303105E9F477FF1AC06DE20E94F819CC
:103540008C0144275527BA014C195D096E097F0982
:103550002AE0CE010E94251A800F911FDF91CF91A2
:103560001F910F91FF90EF90DF90CF9008952AE088
:10357000B701A601CE01DF91CF911F910F91FF906E
:10358000EF90DF90CF900C94251A4F925F926F923C
:103590007F928F929F92AF92BF92CF92DF92EF92E3
:1035A000FF92CF93DF93EC016A017B01B22E9A0167
:1035B000AB01C701B6010E948421882319F065E69A
:1035C00073E027C026013701E89477F82FEF3FEF2B
:1035D0004FE75FE7C301B2010E94842181110DC052
:1035E0002FEF3FEF4FE75FE7C301B2010E94631F78
:1035F00018161CF469E673E00CC02FEF3FEF4FE79D
:103600005FE4C701B6010E94C22018169CF46DE663
:1036100073E0CE01DF91CF91FF90EF90DF90CF90DC
:10362000BF90AF909F908F907F906F905F904F90E2
:103630000C94E1192FEF3FEF4FE75FECC701B601A4
:103640000E94631F87FDE3CF20E030E0A901C7019E
:10365000B6010E94631F87FF0AC06DE2CE010E947F
:10366000F8194C01F7FAF094F7F8F09402C0812CA5
:10367000912CA12C60E070E080E09FE3AB1441F05E
:1036800020E030E040E251E40E94681FA394F6CFAE
:103690009B01AC01C701B6010E94F71E2B013C0142
:1036A0000E94E11F6B017C010E9410209B01AC0174
:1036B000C301B2010E94F61E2B013C012AE0B701B2
:1036C000A601CE010E94251A7C01E80CF91CBB2042
:1036D00039F062E372E0CE010E94E119E80EF91EB2
:1036E000DB2CDD2039F120E030E040E251E4C30181
:1036F000B2010E94C7202B013C010E94DA1F4B013E
:10370000770FAA08BB082AE030E0B501A401CE017A
:103710000E947B1AE80EF91EC501B4010E94122016
:103720009B01AC01C301B2010E94F61E2B013C01BA
:10373000DA94D7CFC701DF91CF91FF90EF90DF9060
:10374000CF90BF90AF909F908F907F906F905F9041
:103750004F9008950C94C51A8091200690E0209116
:103760002106821B910908959091210680912006DF
:10377000981750F4E92FF0E0EE5DF94F208130E02A
:103780009F5F9093210602C02FEF3FEFC90108957C
:10379000E091210680912006E81730F4F0E0EE5D1C
:1037A000F94F808190E008958FEF9FEF089508957D
:1037B000CF92DF92EF92FF920F931F93CF93DF93FD
:1037C0007C01262F972F8A018091FC05882391F098
:1037D000C62FD72F6E01C40ED51ECC15DD0571F096
:1037E0006991D701ED91FC910190F081E02DC70125
:1037F0000995F3CF642F822F0E943B1DC801DF91F2
:10380000CF911F910F91FF90EF90DF90CF9008958F
:10381000CF93DF931F92CDB7DEB769832091FC056C
:103820002223D1F02091FD05203240F021E030E04C
:10383000FC013383228380E090E015C08091FE0577
:10384000E82FF0E0E150FA4F998190838F5F8093E9
:10385000FE058093FD0505C061E0CE0101960E9442
:103860003B1D81E090E00F90DF91CF910895FC0126
:103870001382128288EE93E0A0E0B0E08483958307
:10388000A683B78385E793E09183808308951092A0
:103890002106109220061092FE051092FD050C9450
:1038A000871C862F413208F040E262E276E00E94F7
:1038B000A51C1092210680932006089521E00C9407
:1038C000511C81E08093FC0560931F061092FE0559
:1038D0001092FD0508950C94611C0F93062F21E0B2
:1038E0004091FD056FEF75E080911F060E94E91C75
:1038F0001092FE051092FD051092FC050F9108959F
:1039000061E00C946D1C80EF95E00C94371C1092D4
:10391000AF0681E08093AD061092AC0661E082E1D3
:103920000E94BA1E61E083E10E94BA1EE9EBF0E05A
:1039300080818E7F808380818D7F808388E48093E7
:10394000B80085E48093BC000895413208F03FC080
:103950009091AF069111FCCF91E09093AF06209328
:10396000AD062FEF2093420610928706240F209376
:1039700086069093AE069091AE06880F892B8093B1
:10398000AE068091AC06813041F41092AC06809175
:10399000AE068093BB0085EC01C085EE8093BC0031
:1039A0008091AF068130E1F380918706841710F48F
:1039B0004091870628E836E0FB01D9018A2F821B57
:1039C000841718F48D918193F9CF842F089580E0A6
:1039D00008950F93413208F046C09091AF069111BF
:1039E000FCCF32E03093AF060093AD063FEF30934B
:1039F00042061092870640938606FB0168E876E04F
:103A0000DB013A2F361B341718F431913D93F9CF6F
:103A10001092AE063091AE06880F832B8093AE06CF
:103A20008091AC06813041F41092AC068091AE06D4
:103A30008093BB0085EC01C085EE8093BC002223FF
:103A400021F08091AF068230D1F3809142068F3F02
:103A500079F080914206803241F0809142068033B5
:103A600031F094E005C091E003C092E001C093E022
:103A7000892F0F910895613298F42091AF06243078
:103A800089F460936406FC0126E636E0D9018A2FAA
:103A9000821B861718F481918D93F9CF80E00895E9
:103AA00081E0089582E0089585ED8093BC008091C7
:103AB000BC0084FDFCCF1092AF06089585EC809386
:103AC000BC001092AF0608951F920F920FB60F928E
:103AD00011242F933F934F935F936F937F938F9313
:103AE0009F93AF93BF93EF93FF938091B900887F2B
:103AF000803609F49CC068F5883209F45BC090F404
:103B0000803109F454C038F4882309F4F5C08830B2
:103B100009F44DC0F5C0883109F44CC0803209F475
:103B20005DC0EEC0803409F468C048F4803309F405
:103B300055C0883309F0E4C080934206A8C08035A0
:103B400009F44FC0883509F45DC0883409F0D8C045
:103B5000D5C0883909F4C6C0A8F4883709F467C00D
:103B600038F4883609F463C0803709F460C0C8C0EF
:103B7000883809F4B7C0803909F45FC0803809F08B
:103B8000BFC05BC0803B09F485C038F4803A09F4BB
:103B900066C0883A09F47EC0B3C0803C09F4A6C070
:103BA000883C09F4A3C0883B09F489C0A9C080916E
:103BB000AE0610C09091870680918606981770F522
:103BC000E091870681E08E0F80938706F0E0E8574A
:103BD000F94F80818093BB0085EC85C080934206BD
:103BE0008DC0E091870681E08E0F809387068091DB
:103BF000BB00F0E0E857F94F8083909187068091F1
:103C000086066DC0E091870681E08E0F809387065F
:103C10008091BB00F0E0E857F94F80838091AD06BA
:103C200081116CC081E08093AC0684EA60C083E0BF
:103C30008093AF0610924306CFCF80914306803227
:103C400008F050C0E091430681E08E0F8093430658
:103C50008091BB00F0E0EC5BF94F8083BDCF809199
:103C60004306803230F4E0914306F0E0EC5BF94F1C
:103C700010820E94541D6091430670E0E091A806F6
:103C8000F091A90684E496E00995109243060E94FB
:103C90005E1D36C084E08093AF06109265061092D8
:103CA0006406E091AA06F091AB060995809164063E
:103CB000811105C081E08093640610926606E09150
:103CC000650681E08E0F80936506F0E0EA59F94FB2
:103CD00080818093BB00909165068091640698175F
:103CE00008F47ACF85E88093BC000AC085EC809305
:103CF000BC001092AF0604C0109242060E94541DF0
:103D0000FF91EF91BF91AF919F918F917F916F91B3
:103D10005F914F913F912F910F900FBE0F901F9089
:103D20001895833081F028F4813099F08230A1F029
:103D300008958630A9F08730B9F08430D1F48091AD
:103D400080008F7D03C0809180008F7780938000FA
:103D5000089584B58F7702C084B58F7D84BD0895A2
:103D60008091B0008F7703C08091B0008F7D8093E9
:103D7000B00008951F93CF93DF93282F30E0F9010F
:103D8000E651FF4F8491F901E250FF4FD491F901C0
:103D9000EE5EFE4FC491CC23C9F0162F81110E9414
:103DA000911EEC2FF0E0EE0FFF1FEA5DFE4FA59194
:103DB000B4918FB7F894111105C09C91ED2FE09547
:103DC000E92302C0EC91ED2BEC938FBFDF91CF91F3
:103DD0001F910895F8940C940325FB01DC0102C0A7
:103DE00001900D9241505040D8F708955058BB278C
:103DF000AA270E940E1F0C9488200E947A2038F077
:103E00000E94812020F039F49F3F19F426F40C948D
:103E100077200EF4E095E7FB0C947120E92F0E94C7
:103E2000992058F3BA17620773078407950720F0A3
:103E300079F4A6F50C94BB200EF4E0950B2EBA2F66
:103E4000A02D0B01B90190010C01CA01A0011124A0
:103E5000FF27591B99F0593F50F4503E68F11A164C
:103E6000F040A22F232F342F4427585FF3CF4695DD
:103E700037952795A795F0405395C9F77EF41F16FF
:103E8000BA0B620B730B840BBAF09150A1F0FF0FC9
:103E9000BB1F661F771F881FC2F70EC0BA0F621FB5
:103EA000731F841F48F4879577956795B795F795A5
:103EB0009E3F08F0B0CF9395880F08F09927EE0F3A
:103EC0009795879508950E944D2008F481E0089504
:103ED0000E947C1F0C9488200E94812058F00E9430
:103EE0007A2040F029F45F3F29F00C9471205111A1
:103EF0000C94BC200C9477200E94992068F399239D
:103F0000B1F3552391F3951B550BBB27AA276217D5
:103F10007307840738F09F5F5F4F220F331F441FE2
:103F2000AA1FA9F335D00E2E3AF0E0E832D0915016
:103F30005040E695001CCAF72BD0FE2F29D0660F03
:103F4000771F881FBB1F261737074807AB07B0E846
:103F500009F0BB0B802DBF01FF2793585F4F3AF04C
:103F60009E3F510578F00C9471200C94BC205F3F6B
:103F7000E4F3983ED4F3869577956795B795F795D2
:103F80009F5FC9F7880F911D9695879597F90895BA
:103F9000E1E0660F771F881FBB1F62177307840756
:103FA000BA0720F0621B730B840BBA0BEE1F88F765
:103FB000E09508950E94E11F6894B1110C94BC2013
:103FC00008950E94A12088F09F5798F0B92F992753
:103FD000B751B0F0E1F0660F771F881F991F1AF0F4
:103FE000BA95C9F714C0B13091F00E94BB20B1E07E
:103FF00008950C94BB20672F782F8827B85F39F07D
:10400000B93FCCF3869577956795B395D9F73EF48C
:1040100090958095709561957F4F8F4F9F4F089534
:10402000E89409C097FB3EF4909580957095619552
:104030007F4F8F4F9F4F9923A9F0F92F96E9BB2708
:104040009395F695879577956795B795F111F8CF84
:10405000FAF4BB0F11F460FF1BC06F5F7F4F8F4FEF
:104060009F4F16C0882311F096E911C0772321F0E5
:104070009EE8872F762F05C0662371F096E8862F7D
:1040800070E060E02AF09A95660F771F881FDAF7D4
:10409000880F9695879597F90895990F0008550F01
:1040A000AA0BE0E8FEEF16161706E807F907C0F0BE
:1040B00012161306E407F50798F0621B730B840BC6
:1040C000950B39F40A2661F0232B242B252B21F4A0
:1040D00008950A2609F4A140A6958FEF811D811D40
:1040E000089597F99F6780E870E060E008959FEF7A
:1040F00080EC089500240A9416161706180609067F
:10410000089500240A94121613061406050608954D
:10411000092E0394000C11F4882352F0BB0F40F4D5
:10412000BF2B11F460FF04C06F5F7F4F8F4F9F4F15
:10413000089557FD9058440F551F59F05F3F71F097
:104140004795880F97FB991F61F09F3F79F08795FE
:104150000895121613061406551FF2CF4695F1DF87
:1041600008C0161617061806991FF1CF8695710517
:10417000610508940895E894BB2766277727CB014B
:1041800097F908950E944D2008F48FEF08950E943A
:10419000DA200C9488200E947A2038F00E94812036
:1041A00020F0952311F00C9471200C9477201124A9
:1041B0000C94BC200E94992070F3959FC1F3950F39
:1041C00050E0551F629FF001729FBB27F00DB11D9B
:1041D000639FAA27F00DB11DAA1F649F6627B00D2B
:1041E000A11D661F829F2227B00DA11D621F739F14
:1041F000B00DA11D621F839FA00D611D221F749F22
:104200003327A00D611D231F849F600D211D822F68
:10421000762F6A2F11249F5750409AF0F1F088238F
:104220004AF0EE0FFF1FBB1F661F771F881F9150BC
:104230005040A9F79E3F510580F00C9471200C94DA
:10424000BC205F3FE4F3983ED4F38695779567955D
:10425000B795F795E7959F5FC1F7FE2B880F911DE6
:104260009695879597F90895FA01EE0FFF1F3096FE
:1042700021053105A1F16115710561F48038BFE3B5
:104280009B0749F168949038810561F08038BFEF51
:104290009B0741F099234AF5FF3FE10531052105D0
:1042A00019F1E8940894E795D901AA2329F4AB2FD2
:1042B000BE2FF85FD0F310C0FF5F70F4A695E0F753
:1042C000F73950F019F0FF3A38F49F779F930DD0EB
:1042D0000F9007FC9058089546F00C94772060E00A
:1042E00070E080E89FE308954FE79F775F934F93D7
:1042F0003F932F930E9434222F913F914F915F91D2
:104300000E94C7200C9491210E944D20880B990B8C
:10431000089529F416F00C9471200C94BB200C9491
:1043200077200E94A120A8F39638A0F707F80F92F3
:10433000E8942BE33AEA48EB5FE70E94DD200F9216
:104340000F920F924DB75EB70F920E947C22E8E663
:10435000F0E00E94C3214F915F91EF91FF91E595AD
:10436000EE1FFF1F49F0FE57E0684427EE0F441F81
:10437000FA95E1F74195550B0E94F6210F9007FE43
:104380000C94EA210895DF93CF931F930F93FF922C
:10439000EF92DF927B018C01689406C0DA2EEF0168
:1043A0000E94DA20FE01E894A5912591359145916E
:1043B0005591A6F3EF010E940E1FFE019701A8017F
:1043C000DA9469F7DF90EF90FF900F911F91CF91F2
:1043D000DF9108959B01AC0160E070E080E89FE30D
:1043E0000C94681F0C9471200C94B0220E94A120A0
:1043F000D8F39923C9F3940F511DA3F39150504062
:1044000094F059F0882332F0660F771F881F91507F
:104410005040C1F79E3F51052CF7880F911D96958E
:10442000879597F908955F3FACF0983E9CF0BB27C5
:10443000869577956795B79508F4B1609395C1F720
:10444000BB0F58F711F460FFE8CF6F5F7F4F8F4FBE
:104450009F4FE3CF0C94BC2016F00C94B0220C9428
:10446000772068940C9471200E94A120A8F39923CE
:10447000C1F3AEF3DF93CF931F930F93FF92C92F36
:10448000DD2788232AF02197660F771F881FDAF728
:1044900020E030E040E85FEB9FE3883920F0803E89
:1044A00038F021968F770E94F71EE0E9F0E004C013
:1044B0000E94F71EEDEBF0E00E94C3218B01BE01CC
:1044C000EC01FB2E6F5771097595771F880B990BBF
:1044D0000E94122028E132E741E35FE30E94DA20E4
:1044E000AF2D9801AE01FF900F911F91CF91DF91F9
:1044F0000E940E1F0C948820FA01DC01AA0FBB1F3A
:104500009B01AC01BF5728F422273327442750785A
:1045100020C0B75190F4AB2F0024469537952795CE
:10452000011CA395D2F3002071F0220F331F441F0A
:10453000B395DAF30ED00C94F61E61307105A0E845
:104540008A07B94630F49B01AC0166277727882794
:104550009078309621F020833183428353830895ED
:104560009F3F31F0915020F4879577956795B795E7
:10457000880F911D9695879597F90895DB018F9384
:104580009F930E940423BF91AF91A29F800D911D24
:10459000A39F900DB29F900D1124089597FB072EB5
:1045A00016F4009407D077FD09D00E94DA2407FCA6
:1045B00005D03EF4909581959F4F08957095619533
:1045C0007F4F0895A1E21A2EAA1BBB1BFD010DC04F
:1045D000AA1FBB1FEE1FFF1FA217B307E407F507B3
:1045E00020F0A21BB30BE40BF50B661F771F881F8F
:1045F000991F1A9469F760957095809590959B0125
:10460000AC01BD01CF0108950E94F424A59F900D37
:10461000B49F900DA49F800D911D11240895DF93E8
:10462000CF931F930F939A9DF02D219FF00D8B9D9B
:10463000F00D8A9DE02DF10D039FF00D029FE00D1E
:10464000F11D4E9DE00DF11D5E9DF00D4F9DF00D95
:104650007F936F93BF92AF925F934F93D5010E9468
:10466000F4248B01AC01D7010E94F424EB01E80F84
:10467000F91FD6010E945F232F913F91D6010E941E
:10468000F424C60FD71FE81FF91FAF91BF910E94F6
:104690005F232F913F910E94F424C60FD71FE81F7C
:1046A000F91FD6010E94F424E60FF71F9801BE01FE
:1046B000CF0111240F911F91CF91DF9108950E9496
:1046C000F424460F571FC81FD91F08F431960895C8
:1046D00097FB57FF0C9478239F938F930E94782326
:1046E0006E1B7F0BAF91BF918A0B9B0B0895E894D3
:1046F000DF93CF93FC01DB010E94F4247F936F933F
:10470000E9019A01AC01BF93AF933F932F93DF016F
:104710000E94F42426F46C1B7D0B820B930B9E01EC
:10472000EB01FC010E945F23AF91BF912F913F915C
:104730000E945F23BE01CF01F9012F913F91CF91DC
:10474000DF910895689401C0E894F92FF12B12F0DD
:104750000C94D623A0E0B0E0E0EBF3E20C94482404
:10476000092E059422F40E943224112392F4F0E8D9
:104770000F26FFEFE094F09400951095B094C0944C
:10478000D094A194BF0ACF0ADF0AEF0AFF0A0F0BE9
:104790001F0B0E94E12307FC0E943224CDB7DEB735
:1047A000ECE00C946424689401C0E8948F929F928A
:1047B000CF93DF930E94E123DF91CF919F908F9061
:1047C000089588249924F401E401B0E49F93AA2772
:1047D0009A158B049C04ED05FE05CF05D007A107B3
:1047E00098F4AD2FDC2FCF2FFE2FE92D982C892E9A
:1047F000982F872F762F652F542F432F322F222764
:10480000B85031F7BF9127C01B2EBF91BB27220F95
:10481000331F441F551F661F771F881F991F881C51
:10482000991CEE1FFF1FCC1FDD1FAA1FBB1F8A1480
:104830009B04EC05FD05CE05DF05A007B10748F098
:104840008A189B08EC09FD09CE09DF09A00BB10B02
:1048500021601A94E1F62EF49401AF01BE01CD015E
:10486000000C0895609570958095909530954095D1
:10487000509521953F4F4F4F5F4F6F4F7F4F8F4F59
:104880009F4F08952F923F924F925F926F927F9227
:104890008F929F92AF92BF92CF92DF92EF92FF9250
:1048A0000F931F93CF93DF93CDB7DEB7CA1BDB0BFC
:1048B0000FB6F894DEBF0FBECDBF09942A883988A1
:1048C00048885F846E847D848C849B84AA84B984A8
:1048D000C884DF80EE80FD800C811B81AA81B981B4
:1048E000CE0FD11D0FB6F894DEBF0FBECDBFED01C8
:1048F00008950F93083090F0982F872F762F652F0B
:10490000542F432F322F22270850F4CF220F331F6A
:10491000441F551F661F771F881F991F0A95B2F7FE
:104920000F91089597FB10F8169400080F93083024
:1049300098F00850232F342F452F562F672F782FAC
:10494000892F902DF4CF0594979587957795679546
:1049500057954795379527950A95AAF70F9108958A
:104960002A0D3B1D4C1D5D1D6E1D7F1D801F911F5F
:1049700008950024A7FD00942A0F301D401D501DEE
:10498000601D701D801D901D08952A193B094C095A
:104990005D096E097F09800B910B08950024A7FD26
:1049A00000942A1730054005500560057005800504
:1049B00090050895AA1BBB1B51E107C0AA1FBB1F8E
:1049C000A617B70710F0A61BB70B881F991F5A959B
:1049D000A9F780959095BC01CD010895EE0FFF1FBA
:1049E0000590F491E02D0994A29FB001B39FC001FE
:1049F000A39F700D811D1124911DB29F700D811D0B
:0A4A00001124911D0895F894FFCFD2
:104A0A000000B40680007374645F6D7367732F547B
:104A1A00696D65006364373136366337346335351B
:104A2A003263333131666263633266653561376298
:104A3A006332383900726F7373657269616C5F6DC6
:104A4A007367732F546F706963496E666F003061C4
:104A5A0064353166383866633434383932663863D7
:104A6A0031303638343037373634363030350072F4
:104A7A006F7373657269616C5F6D7367732F4C6FC7
:104A8A006700313161626437333163323539333328
:104A9A0032363163643631383362643132643632E5
:104AAA0039350039663065393862646136353938E6
:104ABA00313938366464663533616661376134305A
:104ACA0065343900756E64657277617465725F72F8
:104ADA006F626F742F4261726F00366135643034D1
:104AEA0065663862366264326237346335373965EF
:104AFA0039383764373539623430004D657373613C
:104B0A0067652066726F6D206465766963652064E7
:104B1A00726F707065643A206D65737361676520A2
:104B2A006C6172676572207468616E206275666670
:104B3A0065722E006261726F6D6574657200726FC4
:104B4A007373657269616C5F6D7367732F526571F8
:104B5A0075657374506172616D0000000000C500D4
:104B6A00E9002F01320100000000EC03F1043501D5
:104B7A00380100000000C00399043B013E01000017
:104B8A000000F402E1054101440100000000470170
:104B9A008B01DC01DF0100000000E7016809E20186
:104BAA0000000000EF0FB919980FC40FA80FE40F07
:104BBA006865726500496E6974206661696C65642E
:104BCA002100417265205344412F53434C20636FA7
:104BDA006E6E656374656420636F72726563746C6C
:104BEA00793F00426C756520526F626F7469637316
:104BFA002042617233303A2057686974653D5344E4
:104C0A00412C20477265656E3D53434C000A0A0ADF
:104C1A000050726573737572653A2000206D626187
:104C2A00720054656D70657261747572653A200020
:104C3A002064656720430044657074683A20002048
:104C4A006D00416C7469747564653A2000206D20AA
:104C5A0061626F7665206D65616E20736561206C97
:104C6A006576656C006E616E00696E66006F7666C9
:104C7A000000000000081CD81BAC1BB41BC81BD7C3
:024C8A001B000D
:00000001FF
