:100000000C945E000C9486000C9486000C94860080
:100010000C9486000C9486000C9486000C94860048
:100020000C9486000C9486000C9486000C94BB06FD
:100030000C9486000C9486000C9486000C94860028
:100040000C94D0000C9486000C9458030C949B03E1
:100050000C9486000C9486000C9486000C94860008
:100060000C9486000C94860000000007000201003A
:100070000003040600000000000000000102040864
:100080001020408001020408102001020408102002
:10009000040404040404040402020202020203032E
:1000A0000303030300000000250028002B000000CC
:1000B0000000240027002A00C8005E0411241FBE8F
:1000C000CFEFD8E0DEBFCDBF11E0A0E0B1E0EAE4C1
:1000D000F5E102C005900D92A831B107D9F722E0F1
:1000E000A8E1B1E001C01D92A230B207E1F710E033
:1000F000CEE5D0E004C02197FE010E948E0ACC35E7
:10010000D107C9F70E94B1020C94F2080C940000C8
:1001100040E855E260E070E082E391E00E94D6039F
:1001200063E070E08CE191E00E94780562E070E0AD
:1001300088E191E00E949F046BEA77E088E191E01A
:100140000C94CA04CF93DF9388E191E00E942F05BD
:10015000EC0160E071E082E391E00E94DD014AE0A1
:1001600050E0BE0182E391E00E949A0228E131E072
:100170004FE050E06CE97FEF8CE191E00E94AF0529
:1001800064E170E080E090E0DF91CF910C943F015A
:100190008CE191E00E94630588E191E00C94990460
:1001A0001F920F920FB60F9211242F933F938F93AC
:1001B0009F93AF93BF9380912A0190912B01A091BF
:1001C0002C01B0912D013091290123E0230F2D370F
:1001D00020F40196A11DB11D05C026E8230F02964B
:1001E000A11DB11D2093290180932A0190932B0119
:1001F000A0932C01B0932D0180912E0190912F019D
:10020000A0913001B09131010196A11DB11D8093E3
:100210002E0190932F01A0933001B0933101BF9133
:10022000AF919F918F913F912F910F900FBE0F90A3
:100230001F9018953FB7F89480912E0190912F014F
:10024000A0913001B091310126B5A89B05C02F3F88
:1002500019F00196A11DB11D3FBFBA2FA92F982FEC
:100260008827820F911DA11DB11DBC01CD0142E067
:10027000660F771F881F991F4A95D1F70895CF926F
:10028000DF92EF92FF92CF93DF936B017C010E948C
:100290001A01EB01C114D104E104F10479F00E94C8
:1002A0001A016C1B7D0B683E7340A0F381E0C81AF5
:1002B000D108E108F108C851DC4FECCFDF91CF91B4
:1002C000FF90EF90DF90CF900895789484B582608E
:1002D00084BD84B5816084BD85B5826085BD85B5EA
:1002E000816085BDEEE6F0E0808181608083E1E899
:1002F000F0E01082808182608083808181608083D1
:10030000E0E8F0E0808181608083E1EBF0E08081D3
:1003100084608083E0EBF0E0808181608083EAE7A5
:10032000F0E080818460808380818260808380812E
:10033000816080838081806880831092C1000895ED
:10034000CF92DF92EF92FF920F931F93CF93DF93A1
:100350006C01EB017B01E40EF51E00E010E0CE1510
:10036000DF0561F06991D601ED91FC910190F0817A
:10037000E02DC6010995080F191FF1CFC801DF91C3
:10038000CF911F910F91FF90EF90DF90CF90089544
:100390006115710579F0FB0101900020E9F73197B3
:1003A000AF01461B570BDC01ED91FC910280F381FC
:1003B000E02D099480E090E008950C94C801DC01E0
:1003C000ED91FC910190F081E02D09940F931F9322
:1003D000CF93DF93EC016DE00E94DF018C016AE0B6
:1003E000CE010E94DF01800F911FDF91CF911F91FD
:1003F0000F9108958F929F92AF92BF92CF92DF920A
:10040000EF92FF920F931F93CF93DF93CDB7DEB799
:10041000A1970FB6F894DEBF0FBECDBF6C01142FAD
:10042000E52FCB01022F19A2223008F40AE07E0149
:1004300021E2E20EF11C802E912CA12CB12C612F17
:100440007E2FA50194010E94420A029F10191124D7
:1004500081E0E81AF1081A3014F4105D01C0195C4B
:10046000F7011083122FE32FCA01232B242B252BF6
:1004700031F7B701C6010E94C801A1960FB6F894E2
:10048000DEBF0FBECDBFDF91CF911F910F91FF90C7
:10049000EF90DF90CF90BF90AF909F908F90089596
:1004A000CF92DF92EF92FF920F931F93CF93DF9340
:1004B000EC016A017B012115310579F4E881F981AC
:1004C0000190F081E02D642FDF91CF911F910F916A
:1004D000FF90EF90DF90CF9009942A303105E9F436
:1004E00077FF1AC06DE20E94DF018C014427552777
:1004F000BA014C195D096E097F092AE0CE010E94FC
:10050000FA01800F911FDF91CF911F910F91FF9002
:10051000EF90DF90CF9008952AE0B701A601CE01B9
:10052000DF91CF911F910F91FF90EF90DF90CF90CF
:100530000C94FA010F931F93CF93DF93EC019A0170
:10054000AB01770F660B770B0E9450028C01CE0136
:100550000E94E601800F911FDF91CF911F910F91B3
:1005600008950E9465010E948800C2E9D3E00E94BC
:10057000A2002097E1F30E949203F9CFFC012485A9
:100580003585F901E05CFF4F8081918132962081B1
:100590003181821B930B8F7399270895DC011C9680
:1005A000ED91FC911D97DF01A05CBF4F2D913C9117
:1005B000119712968D919C9111972817390739F050
:1005C0008D919C91E80FF91F808190E008958FEF45
:1005D0009FEF0895FC01A485B585FD01E05CFF4F08
:1005E000208131813296808191812817390779F0F5
:1005F00080819181A80FB91F8C91208131812F5F5B
:100600003F4F2F7333273183208390E008958FEF7E
:100610009FEF0895FC0181A1882329F0A489B58961
:100620008C9186FFFBCF11A208950F931F93CF9358
:10063000DF93FC01A685B7858D01005C1F4FE801A3
:100640008881998101968F739927AD014E5B5F4F29
:10065000EA012881398182179307D1F3E8012881C3
:100660003981A20FB31F6C93A685B785A05CBF4FDD
:1006700011969C938E93A689B7892C9181E090E086
:10068000078C02C0880F991F0A94E2F7822B8C9383
:1006900081E081A30488F589E02D808180648083D6
:1006A00081E090E0DF91CF911F910F91089508951F
:1006B0001F920F920FB60F9211242F934F935F93B7
:1006C0008F939F93EF93FF938091C00082FD1CC096
:1006D0002091C6008091D8019091D90101968F7325
:1006E00099274091DA015091DB018417950771F049
:1006F000E091D801F091D901E856FE4F2083909304
:10070000D9018093D80102C08091C600FF91EF917A
:100710009F918F915F914F912F910F900FBE0F90EE
:100720001F90189582E391E00E94BE02892B11F080
:100730000C94570308951F920F920FB60F92112435
:100740002F933F938F939F93EF93FF932091940167
:100750003091950180919601909197012817390762
:1007600031F48091C1008F7D8093C10014C0E0916D
:100770009601F0919701EC5AFE4F208180919601ED
:100780009091970101968F73992790939701809389
:1007900096012093C600FF91EF919F918F913F9119
:1007A0002F910F900FBE0F901F901895CF92DF9250
:1007B000EF92FF920F931F93CF93DF93EC016A01A7
:1007C0007B014115514E6105710509F1EC89FD89E7
:1007D00081E090E008A002C0880F991F0A94E2F718
:1007E000808360E079E08DE390E0A70196010E94AC
:1007F000420A89019A0101501109210931093695EE
:10080000279517950795980101151041A8F0EC89D7
:10081000FD89108260E874E88EE190E0A7019601FE
:100820000E94420ADA01C9010197A109B109B695EE
:10083000A795979587959C01E889F9893083EA897E
:10084000FB89208319A2EE89FF89408181E090E035
:100850009C010C8C02C0220F331F0A94E2F7242B58
:100860002083EE89FF8940819C010D8C02C0220FFC
:10087000331F0A94E2F7242B2083EE89FF894081FD
:100880009C010E8C02C0220F331F0A94E2F7242B26
:100890002083EE89FF8920810F8C02C0880F991F69
:1008A0000A94E2F7809582238083DF91CF911F9194
:1008B0000F91FF90EF90DF90CF900895E2E3F1E089
:1008C0001382128288EE93E0A0E0B0E084839583E7
:1008D000A683B7838CE091E09183808388E991E0DF
:1008E0009587848784E591E09787868785EC90E0FB
:1008F000918B808B84EC90E0938B828B80EC90E0EA
:10090000958B848B81EC90E0978B868B82EC90E0CA
:10091000918F808F86EC90E0938F828F84E0848F1C
:1009200083E0858F87E0868F85E0878F81E080A3D5
:100930000895FC0111821082138212820895CF93D0
:10094000FC0180819181892B11F5C62F6083718311
:100950001382128261E08C2F0E94180661E08C2FB6
:100960000E9454060E94840681E00E949E0680E058
:100970000E94A70686E00E94AC0660ED77E080E06A
:1009800090E00E943F010E949A0681E001C080E051
:10099000CF910895FC017383628308951F93CF93D1
:1009A000DF93EC01162F60E088810E9454061EBD83
:1009B0000DB407FEFDCF1EB561E088810E9454068C
:1009C000812FDF91CF911F910895FF920F931F9375
:1009D000CF93DF93FC0120813181232BC1F18C0166
:1009E0000E94840660E0F80180810E94540660E164
:1009F000C8010E94CE0460E0C8010E94CE04C82F46
:100A000062E070E080E090E00E943F01C03199F721
:100A100060E0C8010E94CE04C82F60E0C8010E94B7
:100A2000CE04F82E61E0F80180810E9454060E94F5
:100A30009A06CF70D0E0DC2FCC27CF0DD11D65E01A
:100A400070E080E090E00E943F01CE0102C08FEF95
:100A50009FEFDF91CF911F910F91FF900895CF935A
:100A6000DF93FC0120813181232B41F1EC010E94B5
:100A7000E5042A813B81821B930B97FD905F60E028
:100A800070E1681B790B072E000C880B990B0E94F4
:100A90002D0920E030E044EB53E40E94B90920E046
:100AA00030E040E859E30E94B9090E94F508CB0103
:100AB000653B71052CF08856914002C088E19CEF9F
:100AC000DF91CF910895CF93DF93EC010A960E94B6
:100AD0007C071F821E828AE590E09B838A831982AD
:100AE000188284EB90E09D838C83DF91CF910895F1
:100AF0000F931F93CF93DF936115710541F0EB01C5
:100B00008C010A960E941A08F801D783C683DF91E8
:100B1000CF911F910F910895FC01628173810A9614
:100B20000C945508FC0126813781232BB1F0611507
:100B3000710519F40E948C050EC0FC0122813381DD
:100B400044815581620F731F461757070CF4BA0191
:100B50000A960E94550881E0089580E00895CF929A
:100B6000DF92EF92FF920F931F93CF93DF936C016D
:100B7000EB018A01C9010E942F057C018C1B9D0B92
:100B8000EC0160E071E082E391E00E94DD014AE067
:100B900050E0B70182E391E00E949A029E01D7FFE4
:100BA00004C0222733272C1B3D0B253B31051CF0AD
:100BB000D195C195D1091C161D062CF466277727FF
:100BC000601B710B01C0B801C601DF91CF911F916D
:100BD0000F91FF90EF90DF90CF900C9492058330AF
:100BE00081F028F4813099F08230A1F008958630A8
:100BF000A9F08730B9F08430D1F4809180008F7DE6
:100C000003C0809180008F7780938000089584B521
:100C10008F7702C084B58F7D84BD08958091B00028
:100C20008F7703C08091B0008F7D8093B0000895CE
:100C3000CF93DF9390E0FC01E458FF4F2491FC0137
:100C4000E057FF4F8491882361F190E0880F991F4E
:100C5000FC01E255FF4FC591D491FC01EC55FF4FCB
:100C6000A591B491611109C09FB7F894888120952E
:100C700082238883EC912E230BC0623061F49FB7EE
:100C8000F8943881822F809583238883EC912E2BD2
:100C90002C939FBF06C08FB7F894E8812E2B288332
:100CA0008FBFDF91CF9108951F93CF93DF93282FAC
:100CB00030E0F901E859FF4F8491F901E458FF4F02
:100CC000D491F901E057FF4FC491CC23C9F0162FFE
:100CD00081110E94EF05EC2FF0E0EE0FFF1FEC55A5
:100CE000FF4FA591B4918FB7F894111105C09C9155
:100CF000ED2FE095E92302C0EC91ED2BEC938FBF33
:100D0000DF91CF911F91089561E08AE00E9454061F
:100D100061E08AE00E9418068CB580618CBD8CB5BC
:100D200080648CBD61E08DE00E94180661E08BE07C
:100D30000C9418068CB58F7B8CBD0895811103C06F
:100D40008CB5806202C08CB58F7D8CBD08959CB53A
:100D5000937F892B8CBD08959CB5282F23709C7F91
:100D6000922B9CBD2DB582FB992790F9822F8E7F07
:100D7000892B8DBD08951F920F920FB60F921124EB
:100D80002F933F934F935F936F937F938F939F9393
:100D9000AF93BF93EF93FF938091DD0187FF05C071
:100DA00010928500109284001BC02091DD01022E5C
:100DB000000C330B8091DC0190E02817390784F494
:100DC0008091DD01082E000C990BFC01EE0FFF1F36
:100DD0008E0F9F1FFC01E252FE4F808186FD15C0E1
:100DE0008091DD018F5F8093DD012091DD01022E76
:100DF000000C330B8091DC0190E028173907C4F414
:100E00008091DD018C3064F113C08091DD01082EEA
:100E1000000C990BFC01EE0FFF1F8E0F9F1FFC01B2
:100E2000E252FE4F808160E08F730E945406D8CF5B
:100E30008091840090918500049680349C4918F438
:100E400080E49CE905C0809184009091850004961F
:100E500090938900809388008FEF8093DD013BC0E1
:100E600020918400309185008091DD01082E000CD6
:100E7000990BFC01EE0FFF1F8E0F9F1FFC01E2522A
:100E8000FE4F81819281820F931F909389008093FE
:100E900088008091DD01082E000C990BFC01EE0FFB
:100EA000FF1F8E0F9F1FFC01E252FE4F808186FFC5
:100EB00012C08091DD01082E000C990BFC01EE0F91
:100EC000FF1F8E0F9F1FFC01E252FE4F808161E0E9
:100ED0008F730E945406FF91EF91BF91AF919F9144
:100EE0008F917F916F915F914F913F912F910F90D3
:100EF0000FBE0F901F901895FC019091DC019C3063
:100F0000A0F481E0890F8093DC019083892F90E029
:100F1000FC01EE0FFF1F8E0F9F1FFC01E252FE4FE0
:100F200088EB9BE09283818308958FEF80830895FF
:100F3000DF92EF92FF920F931F93CF93DF93EC0119
:100F4000D62E7A01890188818C3008F06AC061E070
:100F50008D2D0E9418068881E82FF0E09F01220F56
:100F6000331FE20FF31FE252FE4F9D2D9F7320812E
:100F7000207CD22ED92AD08260E272E0AB014E19D9
:100F80005F0957FF02C04D5F5F4F559547955595D7
:100F90004795498340E659E09A01201B310B37FF02
:100FA00002C02D5F3F4F35952795359527952A83AC
:100FB0006CE00E94360A9CE0899FB001112440E059
:100FC00050E09A01260F371FF901EE0FFF1F2E0F79
:100FD0003F1FF901E252FE4F908196FD16C04F5F10
:100FE0005F4F4C30510569F781110FC0109280009E
:100FF00082E0809381001092850010928400B19A63
:1010000080916F00826080936F00E881F0E0CF01F3
:10101000880F991FE80FF91FE252FE4F808180640C
:1010200080838881DF91CF911F910F91FF90EF9086
:10103000DF90089520E639E040E252E00C949807F2
:10104000FC0190819C3080F5818128E830E0281BEC
:10105000310987FD3395220F331F220F331F62178B
:1010600073077CF0828128E532E0281B310987FD77
:101070003395220F331F220F331F621773070CF4AF
:101080009B014FB7F894892F90E0FC01EE0FFF1FF2
:101090008E0F9F1FFC01E252FE4F22503109220F9A
:1010A000331F328321834FBF0895AF92BF92CF92F7
:1010B000DF92EF92FF920F931F93CF93DF93EC0198
:1010C000603282E078070CF03FC077FD06C0653BD8
:1010D00071052CF064EB70E002C060E070E0898183
:1010E00028E830E05901A81AB10887FDB394AA0C8A
:1010F000BB1CAA0CBB1C0B2C000CCC08DD08072E5B
:10110000000C880B990B2A8108E512E0021B1109DB
:1011100027FD1395000F111F000F111F012E000C4A
:10112000220B330B3F932F931F930F9314EBE12E5E
:10113000F12C00E010E020E030E0A9010E94B108AD
:101140000F900F900F900F90CE01DF91CF911F91D4
:101150000F91FF90EF90DF90CF90BF90AF900C94E5
:1011600020084F925F926F927F92AF92BF92CF9280
:10117000DF92EF92FF920F931F93CF93DF93CDB740
:10118000DEB729013A019B01AC0124193509460952
:10119000570989899A89AB89BC89BC01CD016A1933
:1011A0007B098C099D090E94260AA8019701241930
:1011B0003509460957090E94640ACA01B9016A0D36
:1011C0007B1D8C1D9D1DDF91CF911F910F91FF9075
:1011D000EF90DF90CF90BF90AF907F906F905F9037
:1011E0004F900895F8940C94A30A0E94FC08689408
:1011F000B1110C94B30908950E94980988F09F5783
:1012000098F0B92F9927B751B0F0E1F0660F771F2A
:10121000881F991F1AF0BA95C9F714C0B13091F020
:101220000E94B209B1E008950C94B209672F782F9B
:101230008827B85F39F0B93FCCF3869577956795E5
:10124000B395D9F73EF490958095709561957F4F51
:101250008F4F9F4F0895E89409C097FB3EF49095F7
:101260008095709561957F4F8F4F9F4F9923A9F07F
:10127000F92F96E9BB279395F6958795779567950E
:10128000B795F111F8CFFAF4BB0F11F460FF1BC052
:101290006F5F7F4F8F4F9F4F16C0882311F096E9E5
:1012A00011C0772321F09EE8872F762F05C0662393
:1012B00071F096E8862F70E060E02AF09A95660F4C
:1012C000771F881FDAF7880F9695879597F9089505
:1012D00097F99F6780E870E060E008959FEF80ECE9
:1012E000089500240A94161617061806090608958C
:1012F00000240A9412161306140605060895092EF2
:101300000394000C11F4882352F0BB0F40F4BF2B60
:1013100011F460FF04C06F5F7F4F8F4F9F4F0895A0
:1013200057FD9058440F551F59F05F3F71F0479596
:10133000880F97FB991F61F09F3F79F0879508957B
:10134000121613061406551FF2CF4695F1DF08C09A
:10135000161617061806991FF1CF869571056105B7
:1013600008940895E894BB2766277727CB0197F95F
:1013700008950E94CC090C947F090E94710938F0ED
:101380000E94780920F0952311F00C9468090C94C0
:101390006E0911240C94B3090E94900970F3959F73
:1013A000C1F3950F50E0551F629FF001729FBB275C
:1013B000F00DB11D639FAA27F00DB11DAA1F649FF8
:1013C0006627B00DA11D661F829F2227B00DA11DAB
:1013D000621F739FB00DA11D621F839FA00D611D31
:1013E000221F749F3327A00D611D231F849F600D52
:1013F000211D822F762F6A2F11249F5750409AF07B
:10140000F1F088234AF0EE0FFF1FBB1F661F771F06
:10141000881F91505040A9F79E3F510580F00C94D1
:1014200068090C94B3095F3FE4F3983ED4F38695C2
:1014300077956795B795F795E7959F5FC1F7FE2B71
:10144000880F911D9695879597F90895DB018F93E5
:101450009F930E94830ABF91AF91A29F800D911D1F
:10146000A39F900DB29F900D11240895991B79E0D0
:1014700004C0991F961708F0961B881F7A95C9F724
:1014800080950895A1E21A2EAA1BBB1BFD010DC079
:10149000AA1FBB1FEE1FFF1FA217B307E407F50724
:1014A00020F0A21BB30BE40BF50B661F771F881F00
:1014B000991F1A9469F760957095809590959B0196
:1014C000AC01BD01CF010895052E97FB1EF40094D9
:1014D0000E947B0A57FD07D00E94420A07FC03D0F6
:1014E0004EF40C947B0A50954095309521953F4FD2
:1014F0004F4F5F4F089590958095709561957F4F00
:101500008F4F9F4F08950E94940AA59F900DB49FFE
:10151000900DA49F800D911D11240895EE0FFF1FC3
:101520000590F491E02D0994A29FB001B39FC001F2
:10153000A39F700D811D1124911DB29F700D811DFF
:0A1540001124911D0895F894FFCFC7
:10154A00616E676C653A2000000000001503A00177
:08155A00BE02EA02CE020A0300
:00000001FF
