:100000000C945B000C9483000C9483000C9483008C
:100010000C9483000C9483000C9483000C94830054
:100020000C9483000C9483000C9483000C94830044
:100030000C9483000C9483000C9483000C94830034
:100040000C9467020C9483000C9427060C946A06A7
:100050000C9483000C9483000C9483000C94830014
:100060000C943C0D0C94830000000007000201007A
:100070000003040600000000000000000102040864
:100080001020408001020408102001020408102002
:10009000040404040404040402020202020203032E
:1000A0000303030300000000250028002B005E026C
:1000B0002D075B0C660211241FBECFEFD8E0DEBF18
:1000C000CDBF12E0A0E0B1E0E8E9F2E202C00590A5
:1000D0000D92AE35B107D9F723E0AEE5B2E001C02D
:1000E0001D92AF3DB207E1F710E0CAE5D0E004C0D1
:1000F0002197FE010E943911C735D107C9F70E9427
:100100007E050C94C20E0C9400000895CF93DF93EB
:10011000CDB7DEB7A8970FB6F894DEBF0FBECDBF40
:10012000BE016F5F7F4F0E94690766E071E081E763
:1001300092E00E949D036BE271E081E792E00E94F1
:100140008003BE016F5F7F4F81E792E00E949D03B5
:100150006AE371E081E792E00E9480034D855E854D
:100160006F8578892AE030E081E792E00E944F04B1
:1001700069E471E081E792E00E94800349895A892D
:100180006B897C892AE030E081E792E00E944F048D
:1001900068E571E081E792E00E948003498D5A8D05
:1001A0006B8D7C8D22E030E081E792E00E946A0551
:1001B00067E671E081E792E00E949D036CE671E0E2
:1001C00081E792E00E9480034D8D5E8D6F8D78A156
:1001D00022E030E081E792E00E946A0567E671E084
:1001E00081E792E00E949D036BE771E081E792E076
:1001F0000E94800349A15AA16BA17CA122E030E0BA
:1002000081E792E00E946A0567E671E081E792E08B
:100210000E949D0366E071E081E792E00E949D03E9
:100220006EED71E081E792E00E949D0364EF71E062
:1002300080E090E00E94E202A8960FB6F894DEBF3C
:100240000FBECDBFDF91CF910895CF93DF9300D044
:100250001F92CDB7DEB719821A821B829E012F5FD3
:100260003F4FAE014E5F5F4FBE016D5F7F4F0E94FB
:10027000B3086EED71E081E792E00E949D036AE8A9
:1002800071E081E792E00E94800340E150E06B81E1
:1002900081E792E00E946E046CE971E081E792E0F0
:1002A0000E94800340E150E06A8181E792E00E9471
:1002B0006E046EEA71E081E792E00E94800340E103
:1002C00050E0698181E792E00E946E046EED71E07A
:1002D00081E792E00E949D0364EF71E080E090E08E
:1002E0000E94E2020F900F900F90DF91CF9108953E
:1002F0000F931F93CF93DF93CDB7DEB72A970FB637
:10030000F894DEBF0FBECDBF8C0128E247E350E07A
:1003100060E070E0CE0101960E94B0078B81F80189
:1003200082838C8183838D819E81AF81B885848314
:100330009583A683B78389859A85918780876CE0AA
:1003400070E0C8010E944508811107C060EC71E0AF
:1003500081E792E00E948003FFCF68EE73E080E0C7
:1003600090E00E94E20261E0C8010E94EC07C8012F
:100370000E948600C8010E94250161E0C8010E9418
:10038000EC072A960FB6F894DEBF0FBECDBFDF9103
:10039000CF911F910F9108950F931F93CF93DF93E8
:1003A000CDB7DEB7A4970FB6F894DEBF0FBECDBFB2
:1003B0008C01CB01BE016F5F7F4F0E94F4098D89D4
:1003C0009E89AF89B88DF80180839183A283B3831E
:1003D000898D9A8DAB8DBC8D84839583A683B783DD
:1003E0008D8D9E8DAF8DB8A180879187A287B387B1
:1003F000C801A4960FB6F894DEBF0FBECDBFDF9143
:10040000CF911F910F91089540E052EC61E070E0B0
:1004100081E792E00E94A5068EE592E00C947801B7
:10042000CF93DF93CDB7DEB72C970FB6F894DEBF2E
:100430000FBECDBF6EE572E0CE0101960E94CC01E9
:1004400061E072E081E792E00E94800349815A8175
:100450006B817C8122E030E081E792E00E946A05B6
:1004600068E072E081E792E00E9480034D815E8146
:100470006F81788522E030E081E792E00E946A0592
:1004800062E172E081E792E00E94800349855A852B
:100490006B857C8522E030E081E792E00E946C056C
:1004A00064E670E080E090E02C960FB6F894DEBF32
:1004B0000FBECDBFDF91CF910C94E20228E24FEF47
:1004C0005FEFBA018EE592E00C94B00708951F9299
:1004D0000F920FB60F9211242F933F938F939F93F8
:1004E000AF93BF938091690290916A02A0916B02D1
:1004F000B0916C023091680223E0230F2D3720F475
:100500000196A11DB11D05C026E8230F0296A11D6D
:10051000B11D209368028093690290936A02A093B0
:100520006B02B0936C0280916D0290916E02A0916B
:100530006F02B09170020196A11DB11D80936D02F2
:1005400090936E02A0936F02B0937002BF91AF912F
:100550009F918F913F912F910F900FBE0F901F9001
:1005600018952FB7F8946091690270916A02809192
:100570006B0290916C022FBF08953FB7F894809161
:100580006D0290916E02A0916F02B091700226B53B
:10059000A89B05C02F3F19F00196A11DB11D3FBFBB
:1005A000BA2FA92F982F8827820F911DA11DB11D49
:1005B000BC01CD0142E0660F771F881F991F4A9545
:1005C000D1F70895CF92DF92EF92FF92CF93DF930E
:1005D0006B017C010E94BD02EB01C114D104E10456
:1005E000F10479F00E94BD026C1B7D0B683E7340E4
:1005F000A0F381E0C81AD108E108F108C851DC4F26
:10060000ECCFDF91CF91FF90EF90DF90CF900895E6
:10061000789484B5826084BD84B5816084BD85B5DD
:10062000826085BD85B5816085BDEEE6F0E08081A4
:1006300081608083E1E8F0E01082808182608083C5
:10064000808181608083E0E8F0E080818160808348
:10065000E1EBF0E0808184608083E0EBF0E080817A
:1006600081608083EAE7F0E080818460808380811C
:1006700082608083808181608083808180688083C4
:100680001092C1000895CF92DF92EF92FF920F93E4
:100690001F93CF93DF936C01EB017B01E40EF51EFA
:1006A00000E010E0CE15DF0561F06991D601ED9113
:1006B000FC910190F081E02DC6010995080F191FEA
:1006C000F1CFC801DF91CF911F910F91FF90EF9073
:1006D000DF90CF9008956115710579F0FB010190CD
:1006E0000020E9F73197AF01461B570BDC01ED9174
:1006F000FC910280F381E02D099480E090E0089560
:100700000C946B03DC01ED91FC910190F081E02DE4
:1007100009940F931F93CF93DF93EC016DE00E9438
:1007200082038C016AE0CE010E948203800F911F38
:10073000DF91CF911F910F9108950F931F93CF9346
:10074000DF93EC010E946B038C01CE010E948903B0
:10075000800F911FDF91CF911F910F9108958F927C
:100760009F92AF92BF92CF92DF92EF92FF920F9340
:100770001F93CF93DF93CDB7DEB7A1970FB6F89451
:10078000DEBF0FBECDBF6C01142FE52FCB01022FB2
:1007900019A2223008F40AE07E0121E2E20EF11CE7
:1007A000802E912CA12CB12C612F7E2FA5019401BC
:1007B0000E941711029F1019112481E0E81AF10814
:1007C0001A3014F4105D01C0195CF7011083122F68
:1007D000E32FCA01232B242B252B31F7B701C601A8
:1007E0000E946B03A1960FB6F894DEBF0FBECDBF7B
:1007F000DF91CF911F910F91FF90EF90DF90CF90FD
:10080000BF90AF909F908F900895CF92DF92EF921C
:10081000FF920F931F93CF93DF93EC016A017B014B
:100820002115310579F4E881F9810190F081E02DFD
:10083000642FDF91CF911F910F91FF90EF90DF9088
:10084000CF9009942A303105E9F477FF1AC06DE2A0
:100850000E9482038C0144275527BA014C195D0977
:100860006E097F092AE0CE010E94AF03800F911F1D
:10087000DF91CF911F910F91FF90EF90DF90CF907C
:1008800008952AE0B701A601CE01DF91CF911F9113
:100890000F91FF90EF90DF90CF900C94AF030F93E8
:1008A0001F93CF93DF93EC010E9405048C01CE01CE
:1008B0000E948903800F911FDF91CF911F910F91AB
:1008C00008952115310541F4DC01ED91FC91019071
:1008D000F081E02D642F09940C94AF030F931F93C4
:1008E000CF93DF93EC019A01462F50E060E070E077
:1008F0000E9461048C01CE010E948903800F911F28
:10090000DF91CF911F910F9108954F925F926F9257
:100910007F928F929F92AF92BF92CF92DF92EF928F
:10092000FF92CF93DF93EC016A017B01B22E9A0113
:10093000AB01C701B6010E941211882319F06AE1C8
:1009400072E027C026013701E89477F82FEF3FEFD8
:100950004FE75FE7C301B2010E94121181110DC080
:100960002FEF3FEF4FE75FE7C301B2010E94410F56
:1009700018161CF46EE172E00CC02FEF3FEF4FE74A
:100980005FE4C701B6010E94A01018169CF462E251
:1009900072E0CE01DF91CF91FF90EF90DF90CF908A
:1009A000BF90AF909F908F907F906F905F904F908F
:1009B0000C946B032FEF3FEF4FE75FECC701B601DD
:1009C0000E94410F87FDE3CF20E030E0A901C7017D
:1009D000B6010E94410F87FF0AC06DE2CE010E945E
:1009E00082034C01F7FAF094F7F8F09402C0812CDE
:1009F000912CA12C60E070E080E09FE3AB1441F00B
:100A000020E030E040E251E40E94460FA394F6CF8C
:100A10009B01AC01C701B6010E94D50E2B013C0120
:100A20000E94BF0F6B017C010E94EE0F9B01AC0185
:100A3000C301B2010E94D40E2B013C012AE0B70190
:100A4000A601CE010E94AF037C01E80CF91CBB207B
:100A500039F066E272E0CE010E946B03E80EF91EE7
:100A6000DB2CDD2039F120E030E040E251E4C3012D
:100A7000B2010E94A5102B013C010E94B80F4B014E
:100A8000770FAA08BB082AE030E0B501A401CE0127
:100A90000E940504E80EF91EC501B4010E94F00F82
:100AA0009B01AC01C301B2010E94D40E2B013C0199
:100AB000DA94D7CFC701DF91CF91FF90EF90DF900D
:100AC000CF90BF90AF909F908F907F906F905F90EE
:100AD0004F9008950C9485040F931F93CF93DF9349
:100AE000EC010E9485048C01CE010E948903800FD5
:100AF000911FDF91CF911F910F9108950E940803DC
:100B00000E940402C1E6D6E00E9410022097E1F3A1
:100B10000E946106F9CF0C94EE0AFC01248535850C
:100B2000F901E05CFF4F8081918132962081318113
:100B3000821B930B8F7399270895DC011C96ED910E
:100B4000FC911D97DF01A05CBF4F2D913C91119747
:100B500012968D919C9111972817390739F08D9134
:100B60009C91E80FF91F808190E008958FEF9FEF2F
:100B70000895FC01A485B585FD01E05CFF4F20814F
:100B800031813296808191812817390779F08081EF
:100B90009181A80FB91F8C91208131812F5F3F4F28
:100BA0002F7333273183208390E008958FEF9FEFD9
:100BB0000895FC0181A1882329F0A489B5898C912D
:100BC00086FFFBCF11A208950F931F93CF93DF935E
:100BD000FC01A685B7858D01005C1F4FE801888167
:100BE000998101968F739927AD014E5B5F4FEA01A2
:100BF0002881398182179307D1F3E801288139814F
:100C0000A20FB31F6C93A685B785A05CBF4F11964A
:100C10009C938E93A689B7892C9181E090E0078CF4
:100C200002C0880F991F0A94E2F7822B8C9381E00F
:100C300081A30488F589E02D80818064808381E030
:100C400090E0DF91CF911F910F91089508951F9229
:100C50000F920FB60F9211242F934F935F938F93A0
:100C60009F93EF93FF938091C00082FD1CC0209161
:100C7000C600809117039091180301968F739927EE
:100C80004091190350911A038417950771F0E09170
:100C90001703F0911803E952FD4F20839093180336
:100CA0008093170302C08091C600FF91EF919F913E
:100CB0008F915F914F912F910F900FBE0F901F90CA
:100CC000189581E792E00E948D05892B11F00C9414
:100CD000260608951F920F920FB60F9211242F939C
:100CE0003F938F939F93EF93FF932091D302309183
:100CF000D4028091D5029091D6022817390731F499
:100D00008091C1008F7D8093C10014C0E091D50215
:100D1000F091D602ED56FD4F20818091D502909141
:100D2000D60201968F7399279093D6028093D502AD
:100D30002093C600FF91EF919F918F913F912F914A
:100D40000F900FBE0F901F901895CF92DF92EF92E9
:100D5000FF920F931F93CF93DF93EC016A017B0106
:100D60004115514E6105710509F1EC89FD8981E05C
:100D700090E008A002C0880F991F0A94E2F78083D0
:100D800060E079E08DE390E0A70196010E941711E1
:100D900089019A01015011092109310936952795D8
:100DA00017950795980101151041A8F0EC89FD8968
:100DB000108260E874E88EE190E0A70196010E943D
:100DC0001711DA01C9010197A109B109B695A795D3
:100DD000979587959C01E889F9893083EA89FB8991
:100DE000208319A2EE89FF89408181E090E09C0177
:100DF0000C8C02C0220F331F0A94E2F7242B2083AD
:100E0000EE89FF8940819C010D8C02C0220F331FA7
:100E10000A94E2F7242B2083EE89FF8940819C010C
:100E20000E8C02C0220F331F0A94E2F7242B20837A
:100E3000EE89FF8920810F8C02C0880F991F0A94C8
:100E4000E2F7809582238083DF91CF911F910F91EC
:100E5000FF90EF90DF90CF900895E1E7F2E01382EA
:100E6000128288EE93E0A0E0B0E084839583A683AD
:100E7000B7838CE292E09183808387ED92E095873F
:100E8000848783E992E09787868785EC90E0918B51
:100E9000808B84EC90E0938B828B80EC90E0958B40
:100EA000848B81EC90E0978B868B82EC90E0918F25
:100EB000808F86EC90E0938F828F84E0848F83E034
:100EC000858F87E0868F85E0878F81E080A30895F6
:100ED00008950F931F93CF93DF938C01EB0188E26A
:100EE000FB0111928A95E9F74BE050E068E372E06C
:100EF000CE010E94C50E1B8681E090E0A0E0B0E02C
:100F00008C879D87AE87BF87F80184819581A681F4
:100F1000B781888B998BAA8BBB8B83E090E0A0E094
:100F2000B0E08C8B9D8BAE8BBF8B1CA21DA21EA232
:100F30001FA2188E198E1A8E1B8E1C8E1D8E1E8E51
:100F40001F8E8AE097EDA3E2BCE388A399A3AAA32E
:100F5000BBA3DF91CF911F910F9108950C948B0546
:100F6000FC0183E492E0918380834483558366830C
:100F70007783238308951F93CF93DF931F92CDB779
:100F8000DEB7162FFC0163818BE193E049830E9459
:100F90003B0C612F8BE193E00E94E20B4981642FAF
:100FA0008BE193E00E94E20B8BE193E00E94580CEE
:100FB00081E00F90DF91CF911F910895462FFC01A2
:100FC000608771876DE370E00E94BB076EE170E09F
:100FD00080E090E00C94E202FF920F931F93CF9376
:100FE000DF93EC01F62E0885198560E070E00E9421
:100FF000DE0769E170E080E090E00E94E20240E0FC
:1010000067E070E0CE010E94BB07FF2011F040E8CE
:1010100001C040E06FE370E0CE010E94BB076AE0D0
:1010200070E080E090E00E94E202B801CE010E94F0
:10103000DE0764E170E080E090E0DF91CF911F91E6
:101040000F91FF900C94E2021F93CF93DF93EC017A
:10105000162F6B818BE193E00E943B0C612F8BE19B
:1010600093E00E94E20B8BE193E00E94580C41E078
:101070006B818BE193E00E94380C8BE193E00E943E
:101080008E0BDF91CF911F9108950F931F93CF93F4
:10109000DF93EC018B018BE193E00E94210C60E077
:1010A00070E0CE010E942408803A61F460E070E0B4
:1010B000CE010E94DE0740E26FE370E0CE010E94A5
:1010C000BB070FC068EE73E080E090E00E94E20290
:1010D00060E070E0CE010E942408803A39F380E09D
:1010E0003DC060E070E0CE010E942408803A39F0F3
:1010F0006AE070E080E090E00E94E202F2CF62E3FA
:1011000070E080E090E00E94E20240E06EE370E078
:10111000CE010E94BB076AE070E080E090E00E9490
:10112000E20240E067E070E0CE010E94BB0740E0D1
:101130006FE370E0CE010E94BB076AE070E080E0E0
:1011400090E00E94E202B801CE010E94DE0764E155
:1011500070E080E090E00E94E20281E0DF91CF91B8
:101160001F910F910895CF92DF92EF92FF920F930C
:101170001F93CF93DF93EC016B017A01890140E06B
:1011800067E070E00E94BB07C114D10439F069E345
:1011900070E0CE010E942408F6018083E114F1047E
:1011A00039F066E370E0CE010E942408F7018083E5
:1011B0000115110539F06AE370E0CE010E942408A0
:1011C000F801808368EC70E080E090E0DF91CF91DF
:1011D0001F910F91FF90EF90DF90CF900C94E2025F
:1011E000CF92DF92FF920F931F93CF93DF931F92C3
:1011F000CDB7DEB76C01F62E042F122FFC016381F0
:101200008BE193E059830E943B0C6F2D8BE193E0BF
:101210000E94E20B8BE193E00E94580C412FF601F3
:1012200063818BE193E00E94380CF02EC02E59812F
:10123000D52E8C2D8F19811740F48BE193E00E94FD
:101240008E0BF60181936F01F4CF81E00F90DF9157
:10125000CF911F910F91FF90DF90CF900895AF92A3
:10126000BF92CF92DF92EF92FF920F931F93CF9393
:10127000DF9300D000D000D0CDB7DEB77C01CB012A
:101280005A012CE0F70111922A95E9F7AE014F5F60
:101290005F4F26E0FA0111922A95E9F726E0B501A1
:1012A0000E94F0086A8170E0762F66278981682B9A
:1012B000CC80D12CDC2CCC248B81C82A0E8110E070
:1012C000102F00278D81082BF4E1AF16B104C1F077
:1012D00054F4E8E0AE16B10409F441C0FEE0AF16E4
:1012E000B10471F06FC088E2A816B104C1F1EEE25A
:1012F000AE16B104A1F1FAE1AF16B10409F062C073
:10130000072E000C880B990B0E94F00F20E030E0B4
:1013100040E85DE30E94A510F7016083718382833A
:101320009383B601DD0C880B990B0E94F00F20E02F
:1013300030E040E85DE30E94A510F7016483758307
:1013400086839783B801110F880B990B0E94F00FC9
:1013500020E030E040E85DE30E94A5102EC0072E9B
:10136000000C880B990B0E94F00F20E030E048EC55
:1013700052E40E94460FF701608371838283938356
:10138000B601DD0C880B990B0E94F00F20E030E0D5
:1013900048EC52E40E94460FF7016483758386830C
:1013A0009783B801110F880B990B0E94F00F20E072
:1013B00030E048EC52E40E94460FF70160877187E5
:1013C00082879387C70126960FB6F894DEBF0FBEBB
:1013D000CDBFDF91CF911F910F91FF90EF90DF90E4
:1013E000CF90BF90AF900895EF92FF920F931F930D
:1013F000CF93DF93CDB7DEB72C970FB6F894DEBF4F
:101400000FBECDBF7C018B0184E2FB0111928A9556
:10141000E9F784E290E0A0E0B0E0FB0180839183F3
:10142000A283B383F70184819581A681B781FB01F3
:1014300084839583A683B78383E090E0A0E0B0E047
:1014400080879187A287B3870E94B102F801608BE1
:10145000718B828B938B4AE150E0B701CE010196EC
:101460000E942F0989819A81AB81BC81F801848B0C
:10147000958BA68BB78B8D819E81AF81B885808F30
:10148000918FA28FB38F89859A85AB85BC85848F18
:10149000958FA68FB78F81E02C960FB6F894DEBF9C
:1014A0000FBECDBFDF91CF911F910F91FF90EF90B5
:1014B0000895CF93DF938230910510F482E090E09D
:1014C000E091DD03F091DE0320E030E0C0E0D0E009
:1014D000309711F14081518148175907C0F04817E2
:1014E000590761F482819381209719F09B838A8345
:1014F0002BC09093DE038093DD0326C021153105B8
:1015000019F04217530718F49A01BE01DF01EF01E9
:101510000280F381E02DDCCF2115310509F1281B74
:10152000390B2430310590F412968D919C911397CC
:101530006115710521F0FB019383828304C09093B0
:10154000DE038093DD03FD01329644C0FD01E20F0E
:10155000F31F81939193225031092D933C933AC00C
:101560002091DB033091DC03232B41F42091020115
:10157000309103013093DC032093DB0320910001C1
:10158000309101012115310541F42DB73EB740914D
:10159000040150910501241B350BE091DB03F09110
:1015A000DC03E217F307A0F42E1B3F0B28173907C3
:1015B00078F0AC014E5F5F4F2417350748F04E0FAF
:1015C0005F1F5093DC034093DB038193919302C030
:1015D000E0E0F0E0CF01DF91CF9108950F931F93EA
:1015E000CF93DF93009709F48CC0FC0132971382EC
:1015F00012820091DD031091DE030115110581F4C3
:1016000020813181820F931F2091DB033091DC0315
:101610002817390779F5F093DC03E093DB0371C0F9
:10162000D80140E050E0AE17BF0750F412962D915C
:101630003C911397AD012115310509F1D901F3CF83
:101640009D01DA013383228360817181860F971FA8
:101650008217930769F4EC0128813981260F371F1F
:101660002E5F3F4F318320838A819B8193838283C6
:10167000452B29F4F093DE03E093DD0342C013967B
:10168000FC93EE931297ED01499159919E01240F1D
:10169000351FE217F30771F480819181840F951F44
:1016A000029611969C938E938281938113969C93BC
:1016B0008E931297E0E0F0E0D80112968D919C9104
:1016C0001397009719F0F8018C01F6CF8D919C913A
:1016D00098012E5F3F4F820F931F2091DB033091C3
:1016E000DC032817390769F4309729F41092DE03D8
:1016F0001092DD0302C0138212821093DC03009368
:10170000DB03DF91CF911F910F91089580914B03DF
:1017100090E020914C03821B9109089590914C0315
:1017200080914B03981750F4E92FF0E0E35BFC4FF6
:10173000208130E09F5F90934C0302C02FEF3FEF7A
:10174000C9010895E0914C0380914B03E81730F4F0
:10175000F0E0E35BFC4F808190E008958FEF9FEF16
:1017600008950895CF92DF92EF92FF920F931F9307
:10177000CF93DF937C01262F972F8A018091270337
:10178000882391F0C62FD72F6E01C40ED51ECC151D
:10179000DD0571F06991D701ED91FC910190F08127
:1017A000E02DC7010995F3CF642F822F0E94130DFE
:1017B000C801DF91CF911F910F91FF90EF90DF90C3
:1017C000CF900895CF93DF931F92CDB7DEB7698393
:1017D000209127032223D1F020912803203240F0CA
:1017E00021E030E0FC013383228380E090E015C0EB
:1017F00080912903E82FF0E0E65DFC4F998190830A
:101800008F5F809329038093280305C061E0CE0198
:1018100001960E94130D81E090E00F90DF91CF912F
:101820000895FC011382128288EE93E0A0E0B0E0FC
:1018300084839583A683B78381E592E09183808337
:10184000089510924C0310924B03109229031092AA
:1018500028030C945F0C862F413208F040E26DE4BF
:1018600073E00E947D0C10924C0380934B0308950B
:1018700021E00C942B0C81E08093270360934A03B2
:10188000109229031092280308950F93062F21E048
:10189000409128036AE273E080914A030E94C10CE0
:1018A0001092290310922803109227030F91089594
:1018B00061E00C94450C8BE193E00C94110C1092B8
:1018C000DA0381E08093D8031092D70361E082E1CC
:1018D0000E94920E61E083E10E94920EE9EBF0E03B
:1018E00080818E7F808380818D7F808388E4809358
:1018F000B80085E48093BC000895413208F03FC0F1
:101900009091DA039111FCCF91E09093DA03209348
:10191000D8032FEF20936D031092B203240F20936E
:10192000B1039093D9039091D903880F892B8093A9
:10193000D9038091D703813041F41092D70380916D
:10194000D9038093BB0085EC01C085EE8093BC0079
:101950008091DA038130E1F38091B203841710F4AF
:101960004091B20323EB33E0FB01D9018A2F821BA4
:10197000841718F48D918193F9CF842F089580E016
:1019800008950F93413208F046C09091DA03911107
:10199000FCCF32E03093DA030093D8033FEF30936B
:1019A0006D031092B2034093B103FB0163EB73E04C
:1019B000DB013A2F361B341718F431913D93F9CFE0
:1019C0001092D9033091D903880F832B8093D903C8
:1019D0008091D703813041F41092D7038091D903CD
:1019E0008093BB0085EC01C085EE8093BC00222370
:1019F00021F08091DA038230D1F380916D038F3F23
:101A000079F080916D03803241F080916D038033D5
:101A100031F094E005C091E003C092E001C093E092
:101A2000892F0F910895613298F42091DA032430C0
:101A300089F460938F03FC0121E933E0D9018A2FF7
:101A4000821B861718F481918D93F9CF80E0089559
:101A500081E0089582E0089585ED8093BC00809137
:101A6000BC0084FDFCCF1092DA03089585EC8093CE
:101A7000BC001092DA0308951F920F920FB60F92D6
:101A800011242F933F934F935F936F937F938F9383
:101A90009F93AF93BF93EF93FF938091B900887F9B
:101AA000803609F49CC068F5883209F45BC090F474
:101AB000803109F454C038F4882309F4F5C0883023
:101AC00009F44DC0F5C0883109F44CC0803209F4E6
:101AD0005DC0EEC0803409F468C048F4803309F476
:101AE00055C0883309F0E4C080936D03A8C08035E9
:101AF00009F44FC0883509F45DC0883409F0D8C0B6
:101B0000D5C0883909F4C6C0A8F4883709F467C07D
:101B100038F4883609F463C0803709F460C0C8C05F
:101B2000883809F4B7C0803909F45FC0803809F0FB
:101B3000BFC05BC0803B09F485C038F4803A09F42B
:101B400066C0883A09F47EC0B3C0803C09F4A6C0E0
:101B5000883C09F4A3C0883B09F489C0A9C08091DE
:101B6000D90310C09091B2038091B103981770F51A
:101B7000E091B20381E08E0F8093B203F0E0ED5468
:101B8000FC4F80818093BB0085EC85C080936D0302
:101B90008DC0E091B20381E08E0F8093B2038091FB
:101BA000BB00F0E0ED54FC4F80839091B203809134
:101BB000B1036DC0E091B20381E08E0F8093B20358
:101BC0008091BB00F0E0ED54FC4F80838091D803FE
:101BD00081116CC081E08093D70384EA60C083E008
:101BE0008093DA0310926E03CFCF80916E03803220
:101BF00008F050C0E0916E0381E08E0F80936E0379
:101C00008091BB00F0E0E159FC4F8083BDCF809113
:101C10006E03803230F4E0916E03F0E0E159FC4F46
:101C200010820E942C0D60916E0370E0E091D3034E
:101C3000F091D4038FE693E0099510926E030E9411
:101C4000360D36C084E08093DA0310929003109230
:101C50008F03E091D503F091D603099580918F030E
:101C6000811105C081E080938F0310929103E09170
:101C7000900381E08E0F80939003F0E0EF56FC4FCD
:101C800080818093BB009091900380918F0398177F
:101C900008F47ACF85E88093BC000AC085EC809375
:101CA000BC001092DA0304C010926D030E942C0D48
:101CB000FF91EF91BF91AF919F918F917F916F9124
:101CC0005F914F913F912F910F900FBE0F901F90FA
:101CD0001895833081F028F4813099F08230A1F09A
:101CE00008958630A9F08730B9F08430D1F480911E
:101CF00080008F7D03C0809180008F77809380006B
:101D0000089584B58F7702C084B58F7D84BD089512
:101D10008091B0008F7703C08091B0008F7D809359
:101D2000B00008951F93CF93DF93282F30E0F9017F
:101D3000E859FF4F8491F901E458FF4FD491F9011C
:101D4000E057FF4FC491CC23C9F0162F81110E9498
:101D5000690EEC2FF0E0EE0FFF1FEC55FF4FA59141
:101D6000B4918FB7F894111105C09C91ED2FE095B7
:101D7000E92302C0EC91ED2BEC938FBFDF91CF9163
:101D80001F910895F8940C943F11FB01DC01415020
:101D9000504048F001900D920020C9F701C01D92FB
:101DA00041505040E0F708955058BB27AA270E94A1
:101DB000EC0E0C9466100E94581038F00E945F10D0
:101DC00020F039F49F3F19F426F40C9455100EF4CA
:101DD000E095E7FB0C944F10E92F0E94771058F321
:101DE000BA17620773078407950720F079F4A6F500
:101DF0000C9499100EF4E0950B2EBA2FA02D0B0128
:101E0000B90190010C01CA01A0011124FF27591B3F
:101E100099F0593F50F4503E68F11A16F040A22F45
:101E2000232F342F4427585FF3CF469537952795B6
:101E3000A795F0405395C9F77EF41F16BA0B620BB5
:101E4000730B840BBAF09150A1F0FF0FBB1F661FFC
:101E5000771F881FC2F70EC0BA0F621F731F841F3F
:101E600048F4879577956795B795F7959E3F08F065
:101E7000B0CF9395880F08F09927EE0F9795879527
:101E800008950E942B1008F481E008950E945A0FD3
:101E90000C9466100E945F1058F00E94581040F099
:101EA00029F45F3F29F00C944F1051110C949A10B3
:101EB0000C9455100E94771068F39923B1F35523C1
:101EC00091F3951B550BBB27AA276217730784074D
:101ED00038F09F5F5F4F220F331F441FAA1FA9F3E3
:101EE00035D00E2E3AF0E0E832D091505040E695D1
:101EF000001CCAF72BD0FE2F29D0660F771F881F32
:101F0000BB1F261737074807AB07B0E809F0BB0B24
:101F1000802DBF01FF2793585F4F3AF09E3F510538
:101F200078F00C944F100C949A105F3FE4F3983EB5
:101F3000D4F3869577956795B795F7959F5FC9F721
:101F4000880F911D9695879597F90895E1E0660FA2
:101F5000771F881FBB1F621773078407BA0720F01B
:101F6000621B730B840BBA0BEE1F88F7E095089584
:101F70000E94BF0F6894B1110C949A1008950E94AA
:101F80007F1088F09F5798F0B92F9927B751B0F07C
:101F9000E1F0660F771F881F991F1AF0BA95C9F7ED
:101FA00014C0B13091F00E949910B1E008950C94E2
:101FB0009910672F782F8827B85F39F0B93FCCF395
:101FC000869577956795B395D9F73EF4909580956A
:101FD000709561957F4F8F4F9F4F0895E89409C08A
:101FE00097FB3EF490958095709561957F4F8F4F4C
:101FF0009F4F9923A9F0F92F96E9BB279395F69562
:10200000879577956795B795F111F8CFFAF4BB0FDF
:1020100011F460FF1BC06F5F7F4F8F4F9F4F16C043
:10202000882311F096E911C0772321F09EE8872FCD
:10203000762F05C0662371F096E8862F70E060E089
:102040002AF09A95660F771F881FDAF7880F969502
:10205000879597F90895990F0008550FAA0BE0E8A6
:10206000FEEF16161706E807F907C0F0121613065A
:10207000E407F50798F0621B730B840B950B39F49A
:102080000A2661F0232B242B252B21F408950A2600
:1020900009F4A140A6958FEF811D811D089597F940
:1020A0009F6780E870E060E008959FEF80EC0895FE
:1020B00000240A9416161706180609060895002427
:1020C0000A9412161306140605060895092E0394A1
:1020D000000C11F4882352F0BB0F40F4BF2B11F415
:1020E00060FF04C06F5F7F4F8F4F9F4F089557FD74
:1020F0009058440F551F59F05F3F71F04795880F76
:1021000097FB991F61F09F3F79F08795089512160C
:1021100013061406551FF2CF4695F1DF08C01616B8
:1021200017061806991FF1CF869571056105089469
:102130000895E894BB2766277727CB0197F9089580
:102140000E942B1008F48FEF08950E94B8100C9491
:1021500066100E94581038F00E945F1020F09523FE
:1021600011F00C944F100C94551011240C949A10EB
:102170000E94771070F3959FC1F3950F50E0551FA3
:10218000629FF001729FBB27F00DB11D639FAA27CC
:10219000F00DB11DAA1F649F6627B00DA11D661F1B
:1021A000829F2227B00DA11D621F739FB00DA11D3C
:1021B000621F839FA00D611D221F749F3327A00DF6
:1021C000611D231F849F600D211D822F762F6A2F92
:1021D00011249F5750409AF0F1F088234AF0EE0FF7
:1021E000FF1FBB1F661F771F881F91505040A9F724
:1021F0009E3F510580F00C944F100C949A105F3F55
:10220000E4F3983ED4F3869577956795B795F7955F
:10221000E7959F5FC1F7FE2B880F911D96958795D7
:1022200097F908950E942B10880B990B0895A1E24D
:102230001A2EAA1BBB1BFD010DC0AA1FBB1FEE1F40
:10224000FF1FA217B307E407F50720F0A21BB30B8B
:10225000E40BF50B661F771F881F991F1A9469F707
:1022600060957095809590959B01AC01BD01CF0163
:102270000895EE0FFF1F0590F491E02D099410E0F2
:10228000CAE5D0E004C0FE010E9439112196CB3589
:08229000D107C9F7F894FFCF54
:102298000000DF0380002D2D2D2D2D2D2D2D2D2D12
:1022A8002D2D2D2D2D2D2D2D2D2D2D2D2D2D2D2D56
:1022B8002D2D2D2D2D2D2D2D2D2D0053656E736F4C
:1022C800723A20202020202020004472697665720E
:1022D800205665723A20202000556E697175652078
:1022E80049443A20202020004D61782056616C75C1
:1022F800653A202020200020787878004D696E20EB
:1023080056616C75653A20202020005265736F6C09
:102318007574696F6E3A2020200053797374656D67
:10232800205374617475733A2030780053656C6675
:1023380020546573743A2020202020307800537987
:102348007374656D204572726F723A202030780080
:102358004E6F742064657465637465642C206368CB
:1023680065636B204932432070696E730009002150
:1023780020005379733A0020473A0020413A002060
:102388004D3A00583A200009593A2000095A3A2093
:1023980000726F6C6C3A20002C2070697463683A84
:1023A80020002C207961773A20006E616E00696EFA
:1023B80066006F7666002E0000000000E405430307
:1023C8008D05B9059D05D905424E4F3035350000BC
:1023D8000000006807AE078500F4096907000000DF
:0E23E80000E20BB20B860B8E0BA20BB10B00AA
:00000001FF
